{
  "contractName": "CErc20",
  "abi": [
    {
      "inputs": [
        {
          "internalType": "address",
          "name": "underlying_",
          "type": "address"
        },
        {
          "internalType": "contract ComptrollerInterface",
          "name": "comptroller_",
          "type": "address"
        },
        {
          "internalType": "contract InterestRateModel",
          "name": "interestRateModel_",
          "type": "address"
        },
        {
          "internalType": "uint256",
          "name": "initialExchangeRateMantissa_",
          "type": "uint256"
        },
        {
          "internalType": "string",
          "name": "name_",
          "type": "string"
        },
        {
          "internalType": "string",
          "name": "symbol_",
          "type": "string"
        },
        {
          "internalType": "uint256",
          "name": "decimals_",
          "type": "uint256"
        }
      ],
      "payable": false,
      "stateMutability": "nonpayable",
      "type": "constructor"
    },
    {
      "anonymous": false,
      "inputs": [
        {
          "indexed": false,
          "internalType": "uint256",
          "name": "interestAccumulated",
          "type": "uint256"
        },
        {
          "indexed": false,
          "internalType": "uint256",
          "name": "borrowIndex",
          "type": "uint256"
        },
        {
          "indexed": false,
          "internalType": "uint256",
          "name": "totalBorrows",
          "type": "uint256"
        }
      ],
      "name": "AccrueInterest",
      "type": "event"
    },
    {
      "anonymous": false,
      "inputs": [
        {
          "indexed": true,
          "internalType": "address",
          "name": "owner",
          "type": "address"
        },
        {
          "indexed": true,
          "internalType": "address",
          "name": "spender",
          "type": "address"
        },
        {
          "indexed": false,
          "internalType": "uint256",
          "name": "amount",
          "type": "uint256"
        }
      ],
      "name": "Approval",
      "type": "event"
    },
    {
      "anonymous": false,
      "inputs": [
        {
          "indexed": false,
          "internalType": "address",
          "name": "borrower",
          "type": "address"
        },
        {
          "indexed": false,
          "internalType": "uint256",
          "name": "borrowAmount",
          "type": "uint256"
        },
        {
          "indexed": false,
          "internalType": "uint256",
          "name": "accountBorrows",
          "type": "uint256"
        },
        {
          "indexed": false,
          "internalType": "uint256",
          "name": "totalBorrows",
          "type": "uint256"
        }
      ],
      "name": "Borrow",
      "type": "event"
    },
    {
      "anonymous": false,
      "inputs": [
        {
          "indexed": false,
          "internalType": "uint256",
          "name": "error",
          "type": "uint256"
        },
        {
          "indexed": false,
          "internalType": "uint256",
          "name": "info",
          "type": "uint256"
        },
        {
          "indexed": false,
          "internalType": "uint256",
          "name": "detail",
          "type": "uint256"
        }
      ],
      "name": "Failure",
      "type": "event"
    },
    {
      "anonymous": false,
      "inputs": [
        {
          "indexed": false,
          "internalType": "address",
          "name": "liquidator",
          "type": "address"
        },
        {
          "indexed": false,
          "internalType": "address",
          "name": "borrower",
          "type": "address"
        },
        {
          "indexed": false,
          "internalType": "uint256",
          "name": "repayAmount",
          "type": "uint256"
        },
        {
          "indexed": false,
          "internalType": "address",
          "name": "cTokenCollateral",
          "type": "address"
        },
        {
          "indexed": false,
          "internalType": "uint256",
          "name": "seizeTokens",
          "type": "uint256"
        }
      ],
      "name": "LiquidateBorrow",
      "type": "event"
    },
    {
      "anonymous": false,
      "inputs": [
        {
          "indexed": false,
          "internalType": "address",
          "name": "minter",
          "type": "address"
        },
        {
          "indexed": false,
          "internalType": "uint256",
          "name": "mintAmount",
          "type": "uint256"
        },
        {
          "indexed": false,
          "internalType": "uint256",
          "name": "mintTokens",
          "type": "uint256"
        }
      ],
      "name": "Mint",
      "type": "event"
    },
    {
      "anonymous": false,
      "inputs": [
        {
          "indexed": false,
          "internalType": "address",
          "name": "oldAdmin",
          "type": "address"
        },
        {
          "indexed": false,
          "internalType": "address",
          "name": "newAdmin",
          "type": "address"
        }
      ],
      "name": "NewAdmin",
      "type": "event"
    },
    {
      "anonymous": false,
      "inputs": [
        {
          "indexed": false,
          "internalType": "contract ComptrollerInterface",
          "name": "oldComptroller",
          "type": "address"
        },
        {
          "indexed": false,
          "internalType": "contract ComptrollerInterface",
          "name": "newComptroller",
          "type": "address"
        }
      ],
      "name": "NewComptroller",
      "type": "event"
    },
    {
      "anonymous": false,
      "inputs": [
        {
          "indexed": false,
          "internalType": "contract InterestRateModel",
          "name": "oldInterestRateModel",
          "type": "address"
        },
        {
          "indexed": false,
          "internalType": "contract InterestRateModel",
          "name": "newInterestRateModel",
          "type": "address"
        }
      ],
      "name": "NewMarketInterestRateModel",
      "type": "event"
    },
    {
      "anonymous": false,
      "inputs": [
        {
          "indexed": false,
          "internalType": "address",
          "name": "oldPendingAdmin",
          "type": "address"
        },
        {
          "indexed": false,
          "internalType": "address",
          "name": "newPendingAdmin",
          "type": "address"
        }
      ],
      "name": "NewPendingAdmin",
      "type": "event"
    },
    {
      "anonymous": false,
      "inputs": [
        {
          "indexed": false,
          "internalType": "uint256",
          "name": "oldReserveFactorMantissa",
          "type": "uint256"
        },
        {
          "indexed": false,
          "internalType": "uint256",
          "name": "newReserveFactorMantissa",
          "type": "uint256"
        }
      ],
      "name": "NewReserveFactor",
      "type": "event"
    },
    {
      "anonymous": false,
      "inputs": [
        {
          "indexed": false,
          "internalType": "address",
          "name": "redeemer",
          "type": "address"
        },
        {
          "indexed": false,
          "internalType": "uint256",
          "name": "redeemAmount",
          "type": "uint256"
        },
        {
          "indexed": false,
          "internalType": "uint256",
          "name": "redeemTokens",
          "type": "uint256"
        }
      ],
      "name": "Redeem",
      "type": "event"
    },
    {
      "anonymous": false,
      "inputs": [
        {
          "indexed": false,
          "internalType": "address",
          "name": "payer",
          "type": "address"
        },
        {
          "indexed": false,
          "internalType": "address",
          "name": "borrower",
          "type": "address"
        },
        {
          "indexed": false,
          "internalType": "uint256",
          "name": "repayAmount",
          "type": "uint256"
        },
        {
          "indexed": false,
          "internalType": "uint256",
          "name": "accountBorrows",
          "type": "uint256"
        },
        {
          "indexed": false,
          "internalType": "uint256",
          "name": "totalBorrows",
          "type": "uint256"
        }
      ],
      "name": "RepayBorrow",
      "type": "event"
    },
    {
      "anonymous": false,
      "inputs": [
        {
          "indexed": false,
          "internalType": "address",
          "name": "admin",
          "type": "address"
        },
        {
          "indexed": false,
          "internalType": "uint256",
          "name": "reduceAmount",
          "type": "uint256"
        },
        {
          "indexed": false,
          "internalType": "uint256",
          "name": "newTotalReserves",
          "type": "uint256"
        }
      ],
      "name": "ReservesReduced",
      "type": "event"
    },
    {
      "anonymous": false,
      "inputs": [
        {
          "indexed": true,
          "internalType": "address",
          "name": "from",
          "type": "address"
        },
        {
          "indexed": true,
          "internalType": "address",
          "name": "to",
          "type": "address"
        },
        {
          "indexed": false,
          "internalType": "uint256",
          "name": "amount",
          "type": "uint256"
        }
      ],
      "name": "Transfer",
      "type": "event"
    },
    {
      "constant": false,
      "inputs": [],
      "name": "_acceptAdmin",
      "outputs": [
        {
          "internalType": "uint256",
          "name": "",
          "type": "uint256"
        }
      ],
      "payable": false,
      "stateMutability": "nonpayable",
      "type": "function"
    },
    {
      "constant": false,
      "inputs": [
        {
          "internalType": "uint256",
          "name": "reduceAmount",
          "type": "uint256"
        }
      ],
      "name": "_reduceReserves",
      "outputs": [
        {
          "internalType": "uint256",
          "name": "",
          "type": "uint256"
        }
      ],
      "payable": false,
      "stateMutability": "nonpayable",
      "type": "function"
    },
    {
      "constant": false,
      "inputs": [
        {
          "internalType": "contract ComptrollerInterface",
          "name": "newComptroller",
          "type": "address"
        }
      ],
      "name": "_setComptroller",
      "outputs": [
        {
          "internalType": "uint256",
          "name": "",
          "type": "uint256"
        }
      ],
      "payable": false,
      "stateMutability": "nonpayable",
      "type": "function"
    },
    {
      "constant": false,
      "inputs": [
        {
          "internalType": "contract InterestRateModel",
          "name": "newInterestRateModel",
          "type": "address"
        }
      ],
      "name": "_setInterestRateModel",
      "outputs": [
        {
          "internalType": "uint256",
          "name": "",
          "type": "uint256"
        }
      ],
      "payable": false,
      "stateMutability": "nonpayable",
      "type": "function"
    },
    {
      "constant": false,
      "inputs": [
        {
          "internalType": "address payable",
          "name": "newPendingAdmin",
          "type": "address"
        }
      ],
      "name": "_setPendingAdmin",
      "outputs": [
        {
          "internalType": "uint256",
          "name": "",
          "type": "uint256"
        }
      ],
      "payable": false,
      "stateMutability": "nonpayable",
      "type": "function"
    },
    {
      "constant": false,
      "inputs": [
        {
          "internalType": "uint256",
          "name": "newReserveFactorMantissa",
          "type": "uint256"
        }
      ],
      "name": "_setReserveFactor",
      "outputs": [
        {
          "internalType": "uint256",
          "name": "",
          "type": "uint256"
        }
      ],
      "payable": false,
      "stateMutability": "nonpayable",
      "type": "function"
    },
    {
      "constant": true,
      "inputs": [],
      "name": "accrualBlockNumber",
      "outputs": [
        {
          "internalType": "uint256",
          "name": "",
          "type": "uint256"
        }
      ],
      "payable": false,
      "stateMutability": "view",
      "type": "function"
    },
    {
      "constant": false,
      "inputs": [],
      "name": "accrueInterest",
      "outputs": [
        {
          "internalType": "uint256",
          "name": "",
          "type": "uint256"
        }
      ],
      "payable": false,
      "stateMutability": "nonpayable",
      "type": "function"
    },
    {
      "constant": true,
      "inputs": [],
      "name": "admin",
      "outputs": [
        {
          "internalType": "address payable",
          "name": "",
          "type": "address"
        }
      ],
      "payable": false,
      "stateMutability": "view",
      "type": "function"
    },
    {
      "constant": true,
      "inputs": [
        {
          "internalType": "address",
          "name": "owner",
          "type": "address"
        },
        {
          "internalType": "address",
          "name": "spender",
          "type": "address"
        }
      ],
      "name": "allowance",
      "outputs": [
        {
          "internalType": "uint256",
          "name": "",
          "type": "uint256"
        }
      ],
      "payable": false,
      "stateMutability": "view",
      "type": "function"
    },
    {
      "constant": false,
      "inputs": [
        {
          "internalType": "address",
          "name": "spender",
          "type": "address"
        },
        {
          "internalType": "uint256",
          "name": "amount",
          "type": "uint256"
        }
      ],
      "name": "approve",
      "outputs": [
        {
          "internalType": "bool",
          "name": "",
          "type": "bool"
        }
      ],
      "payable": false,
      "stateMutability": "nonpayable",
      "type": "function"
    },
    {
      "constant": true,
      "inputs": [
        {
          "internalType": "address",
          "name": "owner",
          "type": "address"
        }
      ],
      "name": "balanceOf",
      "outputs": [
        {
          "internalType": "uint256",
          "name": "",
          "type": "uint256"
        }
      ],
      "payable": false,
      "stateMutability": "view",
      "type": "function"
    },
    {
      "constant": false,
      "inputs": [
        {
          "internalType": "address",
          "name": "owner",
          "type": "address"
        }
      ],
      "name": "balanceOfUnderlying",
      "outputs": [
        {
          "internalType": "uint256",
          "name": "",
          "type": "uint256"
        }
      ],
      "payable": false,
      "stateMutability": "nonpayable",
      "type": "function"
    },
    {
      "constant": false,
      "inputs": [
        {
          "internalType": "address",
          "name": "account",
          "type": "address"
        }
      ],
      "name": "borrowBalanceCurrent",
      "outputs": [
        {
          "internalType": "uint256",
          "name": "",
          "type": "uint256"
        }
      ],
      "payable": false,
      "stateMutability": "nonpayable",
      "type": "function"
    },
    {
      "constant": true,
      "inputs": [
        {
          "internalType": "address",
          "name": "account",
          "type": "address"
        }
      ],
      "name": "borrowBalanceStored",
      "outputs": [
        {
          "internalType": "uint256",
          "name": "",
          "type": "uint256"
        }
      ],
      "payable": false,
      "stateMutability": "view",
      "type": "function"
    },
    {
      "constant": true,
      "inputs": [],
      "name": "borrowIndex",
      "outputs": [
        {
          "internalType": "uint256",
          "name": "",
          "type": "uint256"
        }
      ],
      "payable": false,
      "stateMutability": "view",
      "type": "function"
    },
    {
      "constant": true,
      "inputs": [],
      "name": "borrowRatePerBlock",
      "outputs": [
        {
          "internalType": "uint256",
          "name": "",
          "type": "uint256"
        }
      ],
      "payable": false,
      "stateMutability": "view",
      "type": "function"
    },
    {
      "constant": true,
      "inputs": [],
      "name": "comptroller",
      "outputs": [
        {
          "internalType": "contract ComptrollerInterface",
          "name": "",
          "type": "address"
        }
      ],
      "payable": false,
      "stateMutability": "view",
      "type": "function"
    },
    {
      "constant": true,
      "inputs": [],
      "name": "decimals",
      "outputs": [
        {
          "internalType": "uint256",
          "name": "",
          "type": "uint256"
        }
      ],
      "payable": false,
      "stateMutability": "view",
      "type": "function"
    },
    {
      "constant": false,
      "inputs": [],
      "name": "exchangeRateCurrent",
      "outputs": [
        {
          "internalType": "uint256",
          "name": "",
          "type": "uint256"
        }
      ],
      "payable": false,
      "stateMutability": "nonpayable",
      "type": "function"
    },
    {
      "constant": true,
      "inputs": [],
      "name": "exchangeRateStored",
      "outputs": [
        {
          "internalType": "uint256",
          "name": "",
          "type": "uint256"
        }
      ],
      "payable": false,
      "stateMutability": "view",
      "type": "function"
    },
    {
      "constant": true,
      "inputs": [
        {
          "internalType": "address",
          "name": "account",
          "type": "address"
        }
      ],
      "name": "getAccountSnapshot",
      "outputs": [
        {
          "internalType": "uint256",
          "name": "",
          "type": "uint256"
        },
        {
          "internalType": "uint256",
          "name": "",
          "type": "uint256"
        },
        {
          "internalType": "uint256",
          "name": "",
          "type": "uint256"
        },
        {
          "internalType": "uint256",
          "name": "",
          "type": "uint256"
        }
      ],
      "payable": false,
      "stateMutability": "view",
      "type": "function"
    },
    {
      "constant": true,
      "inputs": [],
      "name": "getCash",
      "outputs": [
        {
          "internalType": "uint256",
          "name": "",
          "type": "uint256"
        }
      ],
      "payable": false,
      "stateMutability": "view",
      "type": "function"
    },
    {
      "constant": true,
      "inputs": [],
      "name": "initialExchangeRateMantissa",
      "outputs": [
        {
          "internalType": "uint256",
          "name": "",
          "type": "uint256"
        }
      ],
      "payable": false,
      "stateMutability": "view",
      "type": "function"
    },
    {
      "constant": true,
      "inputs": [],
      "name": "interestRateModel",
      "outputs": [
        {
          "internalType": "contract InterestRateModel",
          "name": "",
          "type": "address"
        }
      ],
      "payable": false,
      "stateMutability": "view",
      "type": "function"
    },
    {
      "constant": true,
      "inputs": [],
      "name": "isCToken",
      "outputs": [
        {
          "internalType": "bool",
          "name": "",
          "type": "bool"
        }
      ],
      "payable": false,
      "stateMutability": "view",
      "type": "function"
    },
    {
      "constant": true,
      "inputs": [],
      "name": "name",
      "outputs": [
        {
          "internalType": "string",
          "name": "",
          "type": "string"
        }
      ],
      "payable": false,
      "stateMutability": "view",
      "type": "function"
    },
    {
      "constant": true,
      "inputs": [],
      "name": "pendingAdmin",
      "outputs": [
        {
          "internalType": "address payable",
          "name": "",
          "type": "address"
        }
      ],
      "payable": false,
      "stateMutability": "view",
      "type": "function"
    },
    {
      "constant": true,
      "inputs": [],
      "name": "reserveFactorMantissa",
      "outputs": [
        {
          "internalType": "uint256",
          "name": "",
          "type": "uint256"
        }
      ],
      "payable": false,
      "stateMutability": "view",
      "type": "function"
    },
    {
      "constant": false,
      "inputs": [
        {
          "internalType": "address",
          "name": "liquidator",
          "type": "address"
        },
        {
          "internalType": "address",
          "name": "borrower",
          "type": "address"
        },
        {
          "internalType": "uint256",
          "name": "seizeTokens",
          "type": "uint256"
        }
      ],
      "name": "seize",
      "outputs": [
        {
          "internalType": "uint256",
          "name": "",
          "type": "uint256"
        }
      ],
      "payable": false,
      "stateMutability": "nonpayable",
      "type": "function"
    },
    {
      "constant": true,
      "inputs": [],
      "name": "supplyRatePerBlock",
      "outputs": [
        {
          "internalType": "uint256",
          "name": "",
          "type": "uint256"
        }
      ],
      "payable": false,
      "stateMutability": "view",
      "type": "function"
    },
    {
      "constant": true,
      "inputs": [],
      "name": "symbol",
      "outputs": [
        {
          "internalType": "string",
          "name": "",
          "type": "string"
        }
      ],
      "payable": false,
      "stateMutability": "view",
      "type": "function"
    },
    {
      "constant": true,
      "inputs": [],
      "name": "totalBorrows",
      "outputs": [
        {
          "internalType": "uint256",
          "name": "",
          "type": "uint256"
        }
      ],
      "payable": false,
      "stateMutability": "view",
      "type": "function"
    },
    {
      "constant": false,
      "inputs": [],
      "name": "totalBorrowsCurrent",
      "outputs": [
        {
          "internalType": "uint256",
          "name": "",
          "type": "uint256"
        }
      ],
      "payable": false,
      "stateMutability": "nonpayable",
      "type": "function"
    },
    {
      "constant": true,
      "inputs": [],
      "name": "totalReserves",
      "outputs": [
        {
          "internalType": "uint256",
          "name": "",
          "type": "uint256"
        }
      ],
      "payable": false,
      "stateMutability": "view",
      "type": "function"
    },
    {
      "constant": true,
      "inputs": [],
      "name": "totalSupply",
      "outputs": [
        {
          "internalType": "uint256",
          "name": "",
          "type": "uint256"
        }
      ],
      "payable": false,
      "stateMutability": "view",
      "type": "function"
    },
    {
      "constant": false,
      "inputs": [
        {
          "internalType": "address",
          "name": "dst",
          "type": "address"
        },
        {
          "internalType": "uint256",
          "name": "amount",
          "type": "uint256"
        }
      ],
      "name": "transfer",
      "outputs": [
        {
          "internalType": "bool",
          "name": "",
          "type": "bool"
        }
      ],
      "payable": false,
      "stateMutability": "nonpayable",
      "type": "function"
    },
    {
      "constant": false,
      "inputs": [
        {
          "internalType": "address",
          "name": "src",
          "type": "address"
        },
        {
          "internalType": "address",
          "name": "dst",
          "type": "address"
        },
        {
          "internalType": "uint256",
          "name": "amount",
          "type": "uint256"
        }
      ],
      "name": "transferFrom",
      "outputs": [
        {
          "internalType": "bool",
          "name": "",
          "type": "bool"
        }
      ],
      "payable": false,
      "stateMutability": "nonpayable",
      "type": "function"
    },
    {
      "constant": true,
      "inputs": [],
      "name": "underlying",
      "outputs": [
        {
          "internalType": "address",
          "name": "",
          "type": "address"
        }
      ],
      "payable": false,
      "stateMutability": "view",
      "type": "function"
    },
    {
      "constant": false,
      "inputs": [
        {
          "internalType": "uint256",
          "name": "mintAmount",
          "type": "uint256"
        }
      ],
      "name": "mint",
      "outputs": [
        {
          "internalType": "uint256",
          "name": "",
          "type": "uint256"
        }
      ],
      "payable": false,
      "stateMutability": "nonpayable",
      "type": "function"
    },
    {
      "constant": false,
      "inputs": [
        {
          "internalType": "uint256",
          "name": "redeemTokens",
          "type": "uint256"
        }
      ],
      "name": "redeem",
      "outputs": [
        {
          "internalType": "uint256",
          "name": "",
          "type": "uint256"
        }
      ],
      "payable": false,
      "stateMutability": "nonpayable",
      "type": "function"
    },
    {
      "constant": false,
      "inputs": [
        {
          "internalType": "uint256",
          "name": "redeemAmount",
          "type": "uint256"
        }
      ],
      "name": "redeemUnderlying",
      "outputs": [
        {
          "internalType": "uint256",
          "name": "",
          "type": "uint256"
        }
      ],
      "payable": false,
      "stateMutability": "nonpayable",
      "type": "function"
    },
    {
      "constant": false,
      "inputs": [
        {
          "internalType": "uint256",
          "name": "borrowAmount",
          "type": "uint256"
        }
      ],
      "name": "borrow",
      "outputs": [
        {
          "internalType": "uint256",
          "name": "",
          "type": "uint256"
        }
      ],
      "payable": false,
      "stateMutability": "nonpayable",
      "type": "function"
    },
    {
      "constant": false,
      "inputs": [
        {
          "internalType": "uint256",
          "name": "repayAmount",
          "type": "uint256"
        }
      ],
      "name": "repayBorrow",
      "outputs": [
        {
          "internalType": "uint256",
          "name": "",
          "type": "uint256"
        }
      ],
      "payable": false,
      "stateMutability": "nonpayable",
      "type": "function"
    },
    {
      "constant": false,
      "inputs": [
        {
          "internalType": "address",
          "name": "borrower",
          "type": "address"
        },
        {
          "internalType": "uint256",
          "name": "repayAmount",
          "type": "uint256"
        }
      ],
      "name": "repayBorrowBehalf",
      "outputs": [
        {
          "internalType": "uint256",
          "name": "",
          "type": "uint256"
        }
      ],
      "payable": false,
      "stateMutability": "nonpayable",
      "type": "function"
    },
    {
      "constant": false,
      "inputs": [
        {
          "internalType": "address",
          "name": "borrower",
          "type": "address"
        },
        {
          "internalType": "uint256",
          "name": "repayAmount",
          "type": "uint256"
        },
        {
          "internalType": "contract CToken",
          "name": "cTokenCollateral",
          "type": "address"
        }
      ],
      "name": "liquidateBorrow",
      "outputs": [
        {
          "internalType": "uint256",
          "name": "",
          "type": "uint256"
        }
      ],
      "payable": false,
      "stateMutability": "nonpayable",
      "type": "function"
    }
  ],
  "bytecode": "0x60806040523480156200001157600080fd5b5060405162008b9b38038062008b9b833981810160405260e08110156200003757600080fd5b8101908080519060200190929190805190602001909291908051906020019092919080519060200190929190805160405193929190846401000000008211156200008057600080fd5b838201915060208201858111156200009757600080fd5b8251866001820283011164010000000082111715620000b557600080fd5b8083526020830192505050908051906020019080838360005b83811015620000eb578082015181840152602081019050620000ce565b50505050905090810190601f168015620001195780820380516001836020036101000a031916815260200191505b50604052602001805160405193929190846401000000008211156200013d57600080fd5b838201915060208201858111156200015457600080fd5b82518660018202830111640100000000821117156200017257600080fd5b8083526020830192505050908051906020019080838360005b83811015620001a85780820151818401526020810190506200018b565b50505050905090810190601f168015620001d65780820380516001836020036101000a031916815260200191505b5060405260200180519060200190929190505050858585858585600160008190555033600460006101000a81548173ffffffffffffffffffffffffffffffffffffffff021916908373ffffffffffffffffffffffffffffffffffffffff160217905550836008819055506000600854116200029d576040517f08c379a000000000000000000000000000000000000000000000000000000000815260040180806020018281038252603081526020018062008b6b6030913960400191505060405180910390fd5b6000620002b0876200050960201b60201c565b905060006010811115620002c057fe5b811462000335576040517f08c379a000000000000000000000000000000000000000000000000000000000815260040180806020018281038252601a8152602001807f53657474696e6720636f6d7074726f6c6c6572206661696c656400000000000081525060200191505060405180910390fd5b620003456200078960201b60201c565b600a81905550670de0b6b3a7640000600b819055506200036b866200079160201b60201c565b9050600060108111156200037b57fe5b8114620003d4576040517f08c379a000000000000000000000000000000000000000000000000000000000815260040180806020018281038252602281526020018062008b496022913960400191505060405180910390fd5b8360019080519060200190620003ec92919062000abf565b5082600290805190602001906200040592919062000abf565b50816003819055505050505050505086601260006101000a81548173ffffffffffffffffffffffffffffffffffffffff021916908373ffffffffffffffffffffffffffffffffffffffff160217905550601260009054906101000a900473ffffffffffffffffffffffffffffffffffffffff1673ffffffffffffffffffffffffffffffffffffffff166318160ddd6040518163ffffffff1660e01b815260040160206040518083038186803b158015620004be57600080fd5b505afa158015620004d3573d6000803e3d6000fd5b505050506040513d6020811015620004ea57600080fd5b8101908080519060200190929190505050505050505050505062000b6e565b6000600460009054906101000a900473ffffffffffffffffffffffffffffffffffffffff1673ffffffffffffffffffffffffffffffffffffffff163373ffffffffffffffffffffffffffffffffffffffff16146200057d57620005756001603f62000a4860201b60201c565b905062000784565b6000600660009054906101000a900473ffffffffffffffffffffffffffffffffffffffff1690508273ffffffffffffffffffffffffffffffffffffffff16627e3dd26040518163ffffffff1660e01b815260040160206040518083038186803b158015620005ea57600080fd5b505afa158015620005ff573d6000803e3d6000fd5b505050506040513d60208110156200061657600080fd5b81019080805190602001909291905050506200069a576040517f08c379a000000000000000000000000000000000000000000000000000000000815260040180806020018281038252601c8152602001807f6d61726b6572206d6574686f642072657475726e65642066616c73650000000081525060200191505060405180910390fd5b82600660006101000a81548173ffffffffffffffffffffffffffffffffffffffff021916908373ffffffffffffffffffffffffffffffffffffffff1602179055507f7ac369dbd14fa5ea3f473ed67cc9d598964a77501540ba6751eb0b3decf5870d8184604051808373ffffffffffffffffffffffffffffffffffffffff1673ffffffffffffffffffffffffffffffffffffffff1681526020018273ffffffffffffffffffffffffffffffffffffffff1673ffffffffffffffffffffffffffffffffffffffff1681526020019250505060405180910390a1600060108111156200078057fe5b9150505b919050565b600043905090565b600080600460009054906101000a900473ffffffffffffffffffffffffffffffffffffffff1673ffffffffffffffffffffffffffffffffffffffff163373ffffffffffffffffffffffffffffffffffffffff16146200080757620007fe6001604262000a4860201b60201c565b91505062000a43565b620008176200078960201b60201c565b600a54146200083d5762000834600a604162000a4860201b60201c565b91505062000a43565b600760009054906101000a900473ffffffffffffffffffffffffffffffffffffffff1690508273ffffffffffffffffffffffffffffffffffffffff16632191f92a6040518163ffffffff1660e01b815260040160206040518083038186803b158015620008a957600080fd5b505afa158015620008be573d6000803e3d6000fd5b505050506040513d6020811015620008d557600080fd5b810190808051906020019092919050505062000959576040517f08c379a000000000000000000000000000000000000000000000000000000000815260040180806020018281038252601c8152602001807f6d61726b6572206d6574686f642072657475726e65642066616c73650000000081525060200191505060405180910390fd5b82600760006101000a81548173ffffffffffffffffffffffffffffffffffffffff021916908373ffffffffffffffffffffffffffffffffffffffff1602179055507fedffc32e068c7c95dfd4bdfd5c4d939a084d6b11c4199eac8436ed234d72f9268184604051808373ffffffffffffffffffffffffffffffffffffffff1673ffffffffffffffffffffffffffffffffffffffff1681526020018273ffffffffffffffffffffffffffffffffffffffff1673ffffffffffffffffffffffffffffffffffffffff1681526020019250505060405180910390a16000601081111562000a3f57fe5b9150505b919050565b60007f45b96fe442630264581b197e84bbada861235052c5a1aadfff9ea4e40a969aa083601081111562000a7857fe5b83604d81111562000a8557fe5b600060405180848152602001838152602001828152602001935050505060405180910390a182601081111562000ab757fe5b905092915050565b828054600181600116156101000203166002900490600052602060002090601f016020900481019282601f1062000b0257805160ff191683800117855562000b33565b8280016001018555821562000b33579182015b8281111562000b3257825182559160200191906001019062000b15565b5b50905062000b42919062000b46565b5090565b62000b6b91905b8082111562000b6757600081600090555060010162000b4d565b5090565b90565b617fcb8062000b7e6000396000f3fe608060405234801561001057600080fd5b506004361061028a5760003560e01c80638f840ddd1161015c578063c37f68e2116100ce578063f3fdb15a11610087578063f3fdb15a14610d44578063f5e3c46214610d8e578063f851a44014610e10578063f8f9da2814610e5a578063fca7820b14610e78578063fe9c44ae14610eba5761028a565b8063c37f68e214610b65578063c5ebeaec14610bd2578063db006a7514610c14578063dd62ed3e14610c56578063e9c714f214610cce578063f2b3abbd14610cec5761028a565b8063a9059cbb11610120578063a9059cbb146109cb578063aa5af0fd14610a31578063ae9d70b014610a4f578063b2a02ff114610a6d578063b71d1a0c14610aef578063bd6d894d14610b475761028a565b80638f840ddd1461087257806395d89b411461089057806395dd919314610913578063a0712d681461096b578063a6afed95146109ad5761028a565b80633af9e66911610200578063675d972c116101b9578063675d972c146107345780636c540baf146107525780636f307dc31461077057806370a08231146107ba57806373acee9814610812578063852a12e3146108305761028a565b80633af9e669146105bc5780633b1d21a2146106145780634576b5db1461063257806347bd37181461068a5780635fe3b567146106a8578063601a0bf1146106f25761028a565b806318160ddd1161025257806318160ddd14610430578063182df0f51461044e57806323b872dd1461046c5780632608f818146104f25780632678224714610554578063313ce5671461059e5761028a565b806306fdde031461028f578063095ea7b3146103125780630e75270214610378578063173b9904146103ba57806317bfdfbc146103d8575b600080fd5b610297610edc565b6040518080602001828103825283818151815260200191508051906020019080838360005b838110156102d75780820151818401526020810190506102bc565b50505050905090810190601f1680156103045780820380516001836020036101000a031916815260200191505b509250505060405180910390f35b61035e6004803603604081101561032857600080fd5b81019080803573ffffffffffffffffffffffffffffffffffffffff16906020019092919080359060200190929190505050610f7a565b604051808215151515815260200191505060405180910390f35b6103a46004803603602081101561038e57600080fd5b8101908080359060200190929190505050611071565b6040518082815260200191505060405180910390f35b6103c2611083565b6040518082815260200191505060405180910390f35b61041a600480360360208110156103ee57600080fd5b81019080803573ffffffffffffffffffffffffffffffffffffffff169060200190929190505050611089565b6040518082815260200191505060405180910390f35b6104386111b1565b6040518082815260200191505060405180910390f35b6104566111b7565b6040518082815260200191505060405180910390f35b6104d86004803603606081101561048257600080fd5b81019080803573ffffffffffffffffffffffffffffffffffffffff169060200190929190803573ffffffffffffffffffffffffffffffffffffffff1690602001909291908035906020019092919050505061123f565b604051808215151515815260200191505060405180910390f35b61053e6004803603604081101561050857600080fd5b81019080803573ffffffffffffffffffffffffffffffffffffffff169060200190929190803590602001909291905050506112f2565b6040518082815260200191505060405180910390f35b61055c611306565b604051808273ffffffffffffffffffffffffffffffffffffffff1673ffffffffffffffffffffffffffffffffffffffff16815260200191505060405180910390f35b6105a661132c565b6040518082815260200191505060405180910390f35b6105fe600480360360208110156105d257600080fd5b81019080803573ffffffffffffffffffffffffffffffffffffffff169060200190929190505050611332565b6040518082815260200191505060405180910390f35b61061c6113d2565b6040518082815260200191505060405180910390f35b6106746004803603602081101561064857600080fd5b81019080803573ffffffffffffffffffffffffffffffffffffffff1690602001909291905050506113e1565b6040518082815260200191505060405180910390f35b610692611652565b6040518082815260200191505060405180910390f35b6106b0611658565b604051808273ffffffffffffffffffffffffffffffffffffffff1673ffffffffffffffffffffffffffffffffffffffff16815260200191505060405180910390f35b61071e6004803603602081101561070857600080fd5b810190808035906020019092919050505061167e565b6040518082815260200191505060405180910390f35b61073c61175d565b6040518082815260200191505060405180910390f35b61075a611763565b6040518082815260200191505060405180910390f35b610778611769565b604051808273ffffffffffffffffffffffffffffffffffffffff1673ffffffffffffffffffffffffffffffffffffffff16815260200191505060405180910390f35b6107fc600480360360208110156107d057600080fd5b81019080803573ffffffffffffffffffffffffffffffffffffffff16906020019092919050505061178f565b6040518082815260200191505060405180910390f35b61081a6117d8565b6040518082815260200191505060405180910390f35b61085c6004803603602081101561084657600080fd5b81019080803590602001909291905050506118f8565b6040518082815260200191505060405180910390f35b61087a61190a565b6040518082815260200191505060405180910390f35b610898611910565b6040518080602001828103825283818151815260200191508051906020019080838360005b838110156108d85780820151818401526020810190506108bd565b50505050905090810190601f1680156109055780820380516001836020036101000a031916815260200191505b509250505060405180910390f35b6109556004803603602081101561092957600080fd5b81019080803573ffffffffffffffffffffffffffffffffffffffff1690602001909291905050506119ae565b6040518082815260200191505060405180910390f35b6109976004803603602081101561098157600080fd5b8101908080359060200190929190505050611a39565b6040518082815260200191505060405180910390f35b6109b5611a4b565b6040518082815260200191505060405180910390f35b610a17600480360360408110156109e157600080fd5b81019080803573ffffffffffffffffffffffffffffffffffffffff16906020019092919080359060200190929190505050611f7e565b604051808215151515815260200191505060405180910390f35b610a39612030565b6040518082815260200191505060405180910390f35b610a57612036565b6040518082815260200191505060405180910390f35b610ad960048036036060811015610a8357600080fd5b81019080803573ffffffffffffffffffffffffffffffffffffffff169060200190929190803573ffffffffffffffffffffffffffffffffffffffff169060200190929190803590602001909291905050506123ed565b6040518082815260200191505060405180910390f35b610b3160048036036020811015610b0557600080fd5b81019080803573ffffffffffffffffffffffffffffffffffffffff1690602001909291905050506129f4565b6040518082815260200191505060405180910390f35b610b4f612b73565b6040518082815260200191505060405180910390f35b610ba760048036036020811015610b7b57600080fd5b81019080803573ffffffffffffffffffffffffffffffffffffffff169060200190929190505050612c98565b6040518085815260200184815260200183815260200182815260200194505050505060405180910390f35b610bfe60048036036020811015610be857600080fd5b8101908080359060200190929190505050612dc0565b6040518082815260200191505060405180910390f35b610c4060048036036020811015610c2a57600080fd5b8101908080359060200190929190505050612dd2565b6040518082815260200191505060405180910390f35b610cb860048036036040811015610c6c57600080fd5b81019080803573ffffffffffffffffffffffffffffffffffffffff169060200190929190803573ffffffffffffffffffffffffffffffffffffffff169060200190929190505050612de4565b6040518082815260200191505060405180910390f35b610cd6612e6b565b6040518082815260200191505060405180910390f35b610d2e60048036036020811015610d0257600080fd5b81019080803573ffffffffffffffffffffffffffffffffffffffff169060200190929190505050613188565b6040518082815260200191505060405180910390f35b610d4c6131d8565b604051808273ffffffffffffffffffffffffffffffffffffffff1673ffffffffffffffffffffffffffffffffffffffff16815260200191505060405180910390f35b610dfa60048036036060811015610da457600080fd5b81019080803573ffffffffffffffffffffffffffffffffffffffff16906020019092919080359060200190929190803573ffffffffffffffffffffffffffffffffffffffff1690602001909291905050506131fe565b6040518082815260200191505060405180910390f35b610e18613214565b604051808273ffffffffffffffffffffffffffffffffffffffff1673ffffffffffffffffffffffffffffffffffffffff16815260200191505060405180910390f35b610e6261323a565b6040518082815260200191505060405180910390f35b610ea460048036036020811015610e8e57600080fd5b8101908080359060200190929190505050613376565b6040518082815260200191505060405180910390f35b610ec2613455565b604051808215151515815260200191505060405180910390f35b60018054600181600116156101000203166002900480601f016020809104026020016040519081016040528092919081815260200182805460018160011615610100020316600290048015610f725780601f10610f4757610100808354040283529160200191610f72565b820191906000526020600020905b815481529060010190602001808311610f5557829003601f168201915b505050505081565b60008033905082601060008373ffffffffffffffffffffffffffffffffffffffff1673ffffffffffffffffffffffffffffffffffffffff16815260200190815260200160002060008673ffffffffffffffffffffffffffffffffffffffff1673ffffffffffffffffffffffffffffffffffffffff168152602001908152602001600020819055508373ffffffffffffffffffffffffffffffffffffffff168173ffffffffffffffffffffffffffffffffffffffff167f8c5be1e5ebec7d5bd14f71427d1e84f3dd0314c0f7b2291e5b200ac8c7c3b925856040518082815260200191505060405180910390a3600191505092915050565b600061107c8261345a565b9050919050565b60095481565b600060016000808282540192505081905550600080549050600060108111156110ae57fe5b6110b6611a4b565b14611129576040517f08c379a00000000000000000000000000000000000000000000000000000000081526004018080602001828103825260168152602001807f61636372756520696e746572657374206661696c65640000000000000000000081525060200191505060405180910390fd5b611132836119ae565b915060005481146111ab576040517f08c379a000000000000000000000000000000000000000000000000000000000815260040180806020018281038252600a8152602001807f72652d656e74657265640000000000000000000000000000000000000000000081525060200191505060405180910390fd5b50919050565b600e5481565b60008060006111c461353b565b91509150600060038111156111d557fe5b8260038111156111e157fe5b14611237576040517f08c379a0000000000000000000000000000000000000000000000000000000008152600401808060200182810382526035815260200180617f0a6035913960400191505060405180910390fd5b809250505090565b6000600160008082825401925050819055506000805490506000601081111561126457fe5b61127033878787613610565b14915060005481146112ea576040517f08c379a000000000000000000000000000000000000000000000000000000000815260040180806020018281038252600a8152602001807f72652d656e74657265640000000000000000000000000000000000000000000081525060200191505060405180910390fd5b509392505050565b60006112fe8383613ce3565b905092915050565b600560009054906101000a900473ffffffffffffffffffffffffffffffffffffffff1681565b60035481565b600061133c617bb7565b604051806020016040528061134f612b73565b81525090506000806113a083600f60008873ffffffffffffffffffffffffffffffffffffffff1673ffffffffffffffffffffffffffffffffffffffff16815260200190815260200160002054613dc5565b91509150600060038111156113b157fe5b8260038111156113bd57fe5b146113c757600080fd5b809350505050919050565b60006113dc613e28565b905090565b6000600460009054906101000a900473ffffffffffffffffffffffffffffffffffffffff1673ffffffffffffffffffffffffffffffffffffffff163373ffffffffffffffffffffffffffffffffffffffff161461144b576114446001603f613f0e565b905061164d565b6000600660009054906101000a900473ffffffffffffffffffffffffffffffffffffffff1690508273ffffffffffffffffffffffffffffffffffffffff16627e3dd26040518163ffffffff1660e01b815260040160206040518083038186803b1580156114b757600080fd5b505afa1580156114cb573d6000803e3d6000fd5b505050506040513d60208110156114e157600080fd5b8101908080519060200190929190505050611564576040517f08c379a000000000000000000000000000000000000000000000000000000000815260040180806020018281038252601c8152602001807f6d61726b6572206d6574686f642072657475726e65642066616c73650000000081525060200191505060405180910390fd5b82600660006101000a81548173ffffffffffffffffffffffffffffffffffffffff021916908373ffffffffffffffffffffffffffffffffffffffff1602179055507f7ac369dbd14fa5ea3f473ed67cc9d598964a77501540ba6751eb0b3decf5870d8184604051808373ffffffffffffffffffffffffffffffffffffffff1673ffffffffffffffffffffffffffffffffffffffff1681526020018273ffffffffffffffffffffffffffffffffffffffff1673ffffffffffffffffffffffffffffffffffffffff1681526020019250505060405180910390a16000601081111561164957fe5b9150505b919050565b600c5481565b600660009054906101000a900473ffffffffffffffffffffffffffffffffffffffff1681565b60006001600080828254019250508190555060008054905060006116a0611a4b565b9050600060108111156116af57fe5b81146116d3576116cb8160108111156116c457fe5b6030613f0e565b9250506116e0565b6116dc84613f82565b9250505b6000548114611757576040517f08c379a000000000000000000000000000000000000000000000000000000000815260040180806020018281038252600a8152602001807f72652d656e74657265640000000000000000000000000000000000000000000081525060200191505060405180910390fd5b50919050565b60085481565b600a5481565b601260009054906101000a900473ffffffffffffffffffffffffffffffffffffffff1681565b6000600f60008373ffffffffffffffffffffffffffffffffffffffff1673ffffffffffffffffffffffffffffffffffffffff168152602001908152602001600020549050919050565b600060016000808282540192505081905550600080549050600060108111156117fd57fe5b611805611a4b565b14611878576040517f08c379a00000000000000000000000000000000000000000000000000000000081526004018080602001828103825260168152602001807f61636372756520696e746572657374206661696c65640000000000000000000081525060200191505060405180910390fd5b600c54915060005481146118f4576040517f08c379a000000000000000000000000000000000000000000000000000000000815260040180806020018281038252600a8152602001807f72652d656e74657265640000000000000000000000000000000000000000000081525060200191505060405180910390fd5b5090565b60006119038261420b565b9050919050565b600d5481565b60028054600181600116156101000203166002900480601f0160208091040260200160405190810160405280929190818152602001828054600181600116156101000203166002900480156119a65780601f1061197b576101008083540402835291602001916119a6565b820191906000526020600020905b81548152906001019060200180831161198957829003601f168201915b505050505081565b60008060006119bc846142ed565b91509150600060038111156119cd57fe5b8260038111156119d957fe5b14611a2f576040517f08c379a0000000000000000000000000000000000000000000000000000000008152600401808060200182810382526037815260200180617dfe6037913960400191505060405180910390fd5b8092505050919050565b6000611a44826143f8565b9050919050565b6000611a55617bca565b600760009054906101000a900473ffffffffffffffffffffffffffffffffffffffff1673ffffffffffffffffffffffffffffffffffffffff166315f24053611a9b613e28565b600c54600d546040518463ffffffff1660e01b8152600401808481526020018381526020018281526020019350505050604080518083038186803b158015611ae257600080fd5b505afa158015611af6573d6000803e3d6000fd5b505050506040513d6040811015611b0c57600080fd5b8101908080519060200190929190805190602001909291905050508260200183604001828152508281525050506601c6bf5263400081604001511115611bba576040517f08c379a000000000000000000000000000000000000000000000000000000000815260040180806020018281038252601c8152602001807f626f72726f772072617465206973206162737572646c7920686967680000000081525060200191505060405180910390fd5b6000816020015114611bdf57611bd76005600283602001516144d8565b915050611f7b565b611be761454c565b816060018181525050611c008160600151600a54614554565b826000018360800182815250826003811115611c1857fe5b6003811115611c2357fe5b815250505060006003811115611c3557fe5b81600001516003811115611c4557fe5b14611c4c57fe5b611c6c60405180602001604052808360400151815250826080015161457f565b809050826000018360a001829052826003811115611c8657fe5b6003811115611c9157fe5b815250505060006003811115611ca357fe5b81600001516003811115611cb357fe5b14611cdc57611cd46009600683600001516003811115611ccf57fe5b6144d8565b915050611f7b565b611cec8160a00151600c54613dc5565b826000018360c00182815250826003811115611d0457fe5b6003811115611d0f57fe5b815250505060006003811115611d2157fe5b81600001516003811115611d3157fe5b14611d5a57611d526009600183600001516003811115611d4d57fe5b6144d8565b915050611f7b565b611d6a8160c00151600c546145fd565b826000018360e00182815250826003811115611d8257fe5b6003811115611d8d57fe5b815250505060006003811115611d9f57fe5b81600001516003811115611daf57fe5b14611dd857611dd06009600483600001516003811115611dcb57fe5b6144d8565b915050611f7b565b611df960405180602001604052806009548152508260c00151600d5461462f565b82600001836101000182815250826003811115611e1257fe5b6003811115611e1d57fe5b815250505060006003811115611e2f57fe5b81600001516003811115611e3f57fe5b14611e6857611e606009600583600001516003811115611e5b57fe5b6144d8565b915050611f7b565b611e7b8160a00151600b54600b5461462f565b82600001836101200182815250826003811115611e9457fe5b6003811115611e9f57fe5b815250505060006003811115611eb157fe5b81600001516003811115611ec157fe5b14611eea57611ee26009600383600001516003811115611edd57fe5b6144d8565b915050611f7b565b8060600151600a81905550806101200151600b819055508060e00151600c81905550806101000151600d819055507f875352fb3fadeb8c0be7cbbe8ff761b308fa7033470cd0287f02f3436fd76cb98160c00151826101200151600c5460405180848152602001838152602001828152602001935050505060405180910390a160006010811115611f7757fe5b9150505b90565b60006001600080828254019250508190555060008054905060006010811115611fa357fe5b611faf33338787613610565b1491506000548114612029576040517f08c379a000000000000000000000000000000000000000000000000000000000815260040180806020018281038252600a8152602001807f72652d656e74657265640000000000000000000000000000000000000000000081525060200191505060405180910390fd5b5092915050565b600b5481565b6000806120416111b7565b9050600080600760009054906101000a900473ffffffffffffffffffffffffffffffffffffffff1673ffffffffffffffffffffffffffffffffffffffff166315f2405361208c613e28565b600c54600d546040518463ffffffff1660e01b8152600401808481526020018381526020018281526020019350505050604080518083038186803b1580156120d357600080fd5b505afa1580156120e7573d6000803e3d6000fd5b505050506040513d60408110156120fd57600080fd5b8101908080519060200190929190805190602001909291905050509150915060008214612175576040517f08c379a0000000000000000000000000000000000000000000000000000000008152600401808060200182810382526031815260200180617e9d6031913960400191505060405180910390fd5b600061217f617bb7565b612199604051806020016040528087815250600e5461457f565b91509150600060038111156121aa57fe5b8260038111156121b657fe5b1461220c576040517f08c379a0000000000000000000000000000000000000000000000000000000008152600401808060200182810382526031815260200180617e356031913960400191505060405180910390fd5b6000612216617bb7565b612222600c548461469a565b915091506000600381111561223357fe5b82600381111561223f57fe5b14612295576040517f08c379a0000000000000000000000000000000000000000000000000000000008152600401808060200182810382526031815260200180617d796031913960400191505060405180910390fd5b600061229f617bb7565b6122cf6040518060200160405280670de0b6b3a76400008152506040518060200160405280600954815250614716565b91509150600060038111156122e057fe5b8260038111156122ec57fe5b14612342576040517f08c379a000000000000000000000000000000000000000000000000000000000815260040180806020018281038252603c815260200180617ece603c913960400191505060405180910390fd5b600061234c617bb7565b61236560405180602001604052808b8152508487614759565b915091506000600381111561237657fe5b82600381111561238257fe5b146123d8576040517f08c379a0000000000000000000000000000000000000000000000000000000008152600401808060200182810382526031815260200180617dcd6031913960400191505060405180910390fd5b80600001519b50505050505050505050505090565b6000600160008082825401925050819055506000805490506000600660009054906101000a900473ffffffffffffffffffffffffffffffffffffffff1673ffffffffffffffffffffffffffffffffffffffff1663d02f735130338989896040518663ffffffff1660e01b8152600401808673ffffffffffffffffffffffffffffffffffffffff1673ffffffffffffffffffffffffffffffffffffffff1681526020018573ffffffffffffffffffffffffffffffffffffffff1673ffffffffffffffffffffffffffffffffffffffff1681526020018473ffffffffffffffffffffffffffffffffffffffff1673ffffffffffffffffffffffffffffffffffffffff1681526020018373ffffffffffffffffffffffffffffffffffffffff1673ffffffffffffffffffffffffffffffffffffffff16815260200182815260200195505050505050602060405180830381600087803b15801561254c57600080fd5b505af1158015612560573d6000803e3d6000fd5b505050506040513d602081101561257657600080fd5b81019080805190602001909291905050509050600081146125a65761259e6003601b836144d8565b925050612975565b8573ffffffffffffffffffffffffffffffffffffffff168573ffffffffffffffffffffffffffffffffffffffff1614156125ee576125e66006601c613f0e565b925050612975565b600080600061263c600f60008a73ffffffffffffffffffffffffffffffffffffffff1673ffffffffffffffffffffffffffffffffffffffff1681526020019081526020016000205488614554565b80935081945050506000600381111561265157fe5b83600381111561265d57fe5b146126855761267a6009601a85600381111561267557fe5b6144d8565b955050505050612975565b6126ce600f60008b73ffffffffffffffffffffffffffffffffffffffff1673ffffffffffffffffffffffffffffffffffffffff16815260200190815260200160002054886145fd565b8092508194505050600060038111156126e357fe5b8360038111156126ef57fe5b146127175761270c6009601985600381111561270757fe5b6144d8565b955050505050612975565b81600f60008a73ffffffffffffffffffffffffffffffffffffffff1673ffffffffffffffffffffffffffffffffffffffff1681526020019081526020016000208190555080600f60008b73ffffffffffffffffffffffffffffffffffffffff1673ffffffffffffffffffffffffffffffffffffffff168152602001908152602001600020819055508873ffffffffffffffffffffffffffffffffffffffff168873ffffffffffffffffffffffffffffffffffffffff167fddf252ad1be2c89b69c2b068fc378daa952ba7f163c4a11628f55a4df523b3ef896040518082815260200191505060405180910390a3600660009054906101000a900473ffffffffffffffffffffffffffffffffffffffff1673ffffffffffffffffffffffffffffffffffffffff16636d35bf9130338c8c8c6040518663ffffffff1660e01b8152600401808673ffffffffffffffffffffffffffffffffffffffff1673ffffffffffffffffffffffffffffffffffffffff1681526020018573ffffffffffffffffffffffffffffffffffffffff1673ffffffffffffffffffffffffffffffffffffffff1681526020018473ffffffffffffffffffffffffffffffffffffffff1673ffffffffffffffffffffffffffffffffffffffff1681526020018373ffffffffffffffffffffffffffffffffffffffff1673ffffffffffffffffffffffffffffffffffffffff16815260200182815260200195505050505050600060405180830381600087803b15801561294957600080fd5b505af115801561295d573d6000803e3d6000fd5b505050506000601081111561296e57fe5b9550505050505b60005481146129ec576040517f08c379a000000000000000000000000000000000000000000000000000000000815260040180806020018281038252600a8152602001807f72652d656e74657265640000000000000000000000000000000000000000000081525060200191505060405180910390fd5b509392505050565b6000600460009054906101000a900473ffffffffffffffffffffffffffffffffffffffff1673ffffffffffffffffffffffffffffffffffffffff163373ffffffffffffffffffffffffffffffffffffffff1614612a5e57612a5760016045613f0e565b9050612b6e565b6000600560009054906101000a900473ffffffffffffffffffffffffffffffffffffffff16905082600560006101000a81548173ffffffffffffffffffffffffffffffffffffffff021916908373ffffffffffffffffffffffffffffffffffffffff1602179055507fca4f2f25d0898edd99413412fb94012f9e54ec8142f9b093e7720646a95b16a98184604051808373ffffffffffffffffffffffffffffffffffffffff1673ffffffffffffffffffffffffffffffffffffffff1681526020018273ffffffffffffffffffffffffffffffffffffffff1673ffffffffffffffffffffffffffffffffffffffff1681526020019250505060405180910390a160006010811115612b6a57fe5b9150505b919050565b60006001600080828254019250508190555060008054905060006010811115612b9857fe5b612ba0611a4b565b14612c13576040517f08c379a00000000000000000000000000000000000000000000000000000000081526004018080602001828103825260168152602001807f61636372756520696e746572657374206661696c65640000000000000000000081525060200191505060405180910390fd5b612c1b6111b7565b91506000548114612c94576040517f08c379a000000000000000000000000000000000000000000000000000000000815260040180806020018281038252600a8152602001807f72652d656e74657265640000000000000000000000000000000000000000000081525060200191505060405180910390fd5b5090565b6000806000806000600f60008773ffffffffffffffffffffffffffffffffffffffff1673ffffffffffffffffffffffffffffffffffffffff1681526020019081526020016000205490506000806000612cf0896142ed565b809450819250505060006003811115612d0557fe5b816003811115612d1157fe5b14612d425760096010811115612d2357fe5b6000806000829250819150809050975097509750975050505050612db9565b612d4a61353b565b809350819250505060006003811115612d5f57fe5b816003811115612d6b57fe5b14612d9c5760096010811115612d7d57fe5b6000806000829250819150809050975097509750975050505050612db9565b60006010811115612da957fe5b8484849750975097509750505050505b9193509193565b6000612dcb826147bf565b9050919050565b6000612ddd8261489f565b9050919050565b6000601060008473ffffffffffffffffffffffffffffffffffffffff1673ffffffffffffffffffffffffffffffffffffffff16815260200190815260200160002060008373ffffffffffffffffffffffffffffffffffffffff1673ffffffffffffffffffffffffffffffffffffffff16815260200190815260200160002054905092915050565b6000600560009054906101000a900473ffffffffffffffffffffffffffffffffffffffff1673ffffffffffffffffffffffffffffffffffffffff163373ffffffffffffffffffffffffffffffffffffffff16141580612ef65750600073ffffffffffffffffffffffffffffffffffffffff163373ffffffffffffffffffffffffffffffffffffffff16145b15612f0e57612f0760016000613f0e565b9050613185565b6000600460009054906101000a900473ffffffffffffffffffffffffffffffffffffffff1690506000600560009054906101000a900473ffffffffffffffffffffffffffffffffffffffff169050600560009054906101000a900473ffffffffffffffffffffffffffffffffffffffff16600460006101000a81548173ffffffffffffffffffffffffffffffffffffffff021916908373ffffffffffffffffffffffffffffffffffffffff1602179055506000600560006101000a81548173ffffffffffffffffffffffffffffffffffffffff021916908373ffffffffffffffffffffffffffffffffffffffff1602179055507ff9ffabca9c8276e99321725bcb43fb076a6c66a54b7f21c4e8146d8519b417dc82600460009054906101000a900473ffffffffffffffffffffffffffffffffffffffff16604051808373ffffffffffffffffffffffffffffffffffffffff1673ffffffffffffffffffffffffffffffffffffffff1681526020018273ffffffffffffffffffffffffffffffffffffffff1673ffffffffffffffffffffffffffffffffffffffff1681526020019250505060405180910390a17fca4f2f25d0898edd99413412fb94012f9e54ec8142f9b093e7720646a95b16a981600560009054906101000a900473ffffffffffffffffffffffffffffffffffffffff16604051808373ffffffffffffffffffffffffffffffffffffffff1673ffffffffffffffffffffffffffffffffffffffff1681526020018273ffffffffffffffffffffffffffffffffffffffff1673ffffffffffffffffffffffffffffffffffffffff1681526020019250505060405180910390a16000601081111561318057fe5b925050505b90565b600080613193611a4b565b9050600060108111156131a257fe5b81146131c6576131be8160108111156131b757fe5b6040613f0e565b9150506131d3565b6131cf83614981565b9150505b919050565b600760009054906101000a900473ffffffffffffffffffffffffffffffffffffffff1681565b600061320b848484614c17565b90509392505050565b600460009054906101000a900473ffffffffffffffffffffffffffffffffffffffff1681565b6000806000600760009054906101000a900473ffffffffffffffffffffffffffffffffffffffff1673ffffffffffffffffffffffffffffffffffffffff166315f24053613285613e28565b600c54600d546040518463ffffffff1660e01b8152600401808481526020018381526020018281526020019350505050604080518083038186803b1580156132cc57600080fd5b505afa1580156132e0573d6000803e3d6000fd5b505050506040513d60408110156132f657600080fd5b810190808051906020019092919080519060200190929190505050915091506000821461336e576040517f08c379a0000000000000000000000000000000000000000000000000000000008152600401808060200182810382526037815260200180617e666037913960400191505060405180910390fd5b809250505090565b6000600160008082825401925050819055506000805490506000613398611a4b565b9050600060108111156133a757fe5b81146133cb576133c38160108111156133bc57fe5b6046613f0e565b9250506133d8565b6133d484614db1565b9250505b600054811461344f576040517f08c379a000000000000000000000000000000000000000000000000000000000815260040180806020018281038252600a8152602001807f72652d656e74657265640000000000000000000000000000000000000000000081525060200191505060405180910390fd5b50919050565b600181565b600060016000808282540192505081905550600080549050600061347c611a4b565b90506000601081111561348b57fe5b81146134af576134a78160108111156134a057fe5b6036613f0e565b9250506134be565b6134ba333386614ec4565b9250505b6000548114613535576040517f08c379a000000000000000000000000000000000000000000000000000000000815260040180806020018281038252600a8152602001807f72652d656e74657265640000000000000000000000000000000000000000000081525060200191505060405180910390fd5b50919050565b6000806000600e5414156135575760006008549150915061360c565b6000613561613e28565b9050600061356d617bb7565b600061357e84600c54600d5461563c565b80945081925050506000600381111561359357fe5b81600381111561359f57fe5b146135b757806000809050955095505050505061360c565b6135c383600e54615698565b8093508192505050600060038111156135d857fe5b8160038111156135e457fe5b146135fc57806000809050955095505050505061360c565b6000826000015195509550505050505b9091565b600080600660009054906101000a900473ffffffffffffffffffffffffffffffffffffffff1673ffffffffffffffffffffffffffffffffffffffff1663bdcdc258308787876040518563ffffffff1660e01b8152600401808573ffffffffffffffffffffffffffffffffffffffff1673ffffffffffffffffffffffffffffffffffffffff1681526020018473ffffffffffffffffffffffffffffffffffffffff1673ffffffffffffffffffffffffffffffffffffffff1681526020018373ffffffffffffffffffffffffffffffffffffffff1673ffffffffffffffffffffffffffffffffffffffff168152602001828152602001945050505050602060405180830381600087803b15801561372457600080fd5b505af1158015613738573d6000803e3d6000fd5b505050506040513d602081101561374e57600080fd5b810190808051906020019092919050505090506000811461377e576137766003604a836144d8565b915050613cdb565b8373ffffffffffffffffffffffffffffffffffffffff168573ffffffffffffffffffffffffffffffffffffffff1614156137c6576137be6002604b613f0e565b915050613cdb565b60008090508573ffffffffffffffffffffffffffffffffffffffff168773ffffffffffffffffffffffffffffffffffffffff161415613827577fffffffffffffffffffffffffffffffffffffffffffffffffffffffffffffffff90506138a7565b601060008773ffffffffffffffffffffffffffffffffffffffff1673ffffffffffffffffffffffffffffffffffffffff16815260200190815260200160002060008873ffffffffffffffffffffffffffffffffffffffff1673ffffffffffffffffffffffffffffffffffffffff1681526020019081526020016000205490505b6000806000806138b78589614554565b8094508195505050600060038111156138cc57fe5b8460038111156138d857fe5b146138f6576138e96009604b613f0e565b9650505050505050613cdb565b61393f600f60008c73ffffffffffffffffffffffffffffffffffffffff1673ffffffffffffffffffffffffffffffffffffffff1681526020019081526020016000205489614554565b80935081955050506000600381111561395457fe5b84600381111561396057fe5b1461397e576139716009604c613f0e565b9650505050505050613cdb565b6139c7600f60008b73ffffffffffffffffffffffffffffffffffffffff1673ffffffffffffffffffffffffffffffffffffffff16815260200190815260200160002054896145fd565b8092508195505050600060038111156139dc57fe5b8460038111156139e857fe5b14613a06576139f96009604d613f0e565b9650505050505050613cdb565b81600f60008c73ffffffffffffffffffffffffffffffffffffffff1673ffffffffffffffffffffffffffffffffffffffff1681526020019081526020016000208190555080600f60008b73ffffffffffffffffffffffffffffffffffffffff1673ffffffffffffffffffffffffffffffffffffffff168152602001908152602001600020819055507fffffffffffffffffffffffffffffffffffffffffffffffffffffffffffffffff8514613b375782601060008c73ffffffffffffffffffffffffffffffffffffffff1673ffffffffffffffffffffffffffffffffffffffff16815260200190815260200160002060008d73ffffffffffffffffffffffffffffffffffffffff1673ffffffffffffffffffffffffffffffffffffffff168152602001908152602001600020819055505b8873ffffffffffffffffffffffffffffffffffffffff168a73ffffffffffffffffffffffffffffffffffffffff167fddf252ad1be2c89b69c2b068fc378daa952ba7f163c4a11628f55a4df523b3ef8a6040518082815260200191505060405180910390a3600660009054906101000a900473ffffffffffffffffffffffffffffffffffffffff1673ffffffffffffffffffffffffffffffffffffffff16636a56947e308c8c8c6040518563ffffffff1660e01b8152600401808573ffffffffffffffffffffffffffffffffffffffff1673ffffffffffffffffffffffffffffffffffffffff1681526020018473ffffffffffffffffffffffffffffffffffffffff1673ffffffffffffffffffffffffffffffffffffffff1681526020018373ffffffffffffffffffffffffffffffffffffffff1673ffffffffffffffffffffffffffffffffffffffff168152602001828152602001945050505050600060405180830381600087803b158015613cad57600080fd5b505af1158015613cc1573d6000803e3d6000fd5b5050505060006010811115613cd257fe5b96505050505050505b949350505050565b6000600160008082825401925050819055506000805490506000613d05611a4b565b905060006010811115613d1457fe5b8114613d3857613d30816010811115613d2957fe5b6035613f0e565b925050613d47565b613d43338686614ec4565b9250505b6000548114613dbe576040517f08c379a000000000000000000000000000000000000000000000000000000000815260040180806020018281038252600a8152602001807f72652d656e74657265640000000000000000000000000000000000000000000081525060200191505060405180910390fd5b5092915050565b6000806000613dd2617bb7565b613ddc868661457f565b9150915060006003811115613ded57fe5b826003811115613df957fe5b14613e0f57816000809050935093505050613e21565b6000613e1a8261576c565b9350935050505b9250929050565b600080601260009054906101000a900473ffffffffffffffffffffffffffffffffffffffff1690508073ffffffffffffffffffffffffffffffffffffffff166370a08231306040518263ffffffff1660e01b8152600401808273ffffffffffffffffffffffffffffffffffffffff1673ffffffffffffffffffffffffffffffffffffffff16815260200191505060206040518083038186803b158015613ecd57600080fd5b505afa158015613ee1573d6000803e3d6000fd5b505050506040513d6020811015613ef757600080fd5b810190808051906020019092919050505091505090565b60007f45b96fe442630264581b197e84bbada861235052c5a1aadfff9ea4e40a969aa0836010811115613f3d57fe5b83604d811115613f4957fe5b600060405180848152602001838152602001828152602001935050505060405180910390a1826010811115613f7a57fe5b905092915050565b6000806000600460009054906101000a900473ffffffffffffffffffffffffffffffffffffffff1673ffffffffffffffffffffffffffffffffffffffff163373ffffffffffffffffffffffffffffffffffffffff1614613ff157613fe860016031613f0e565b92505050614206565b613ff961454c565b600a54146140165761400d600a6033613f0e565b92505050614206565b8361401f613e28565b101561403a57614031600e6032613f0e565b92505050614206565b600d548411156140595761405060026034613f0e565b92505050614206565b83600d54039050600d548111156140bb576040517f08c379a0000000000000000000000000000000000000000000000000000000008152600401808060200182810382526024815260200180617f736024913960400191505060405180910390fd5b80600d819055506140ee600460009054906101000a900473ffffffffffffffffffffffffffffffffffffffff168561578b565b9150600060108111156140fd57fe5b82601081111561410957fe5b1461415f576040517f08c379a0000000000000000000000000000000000000000000000000000000008152600401808060200182810382526023815260200180617daa6023913960400191505060405180910390fd5b7f3bad0c59cf2f06e7314077049f48a93578cd16f5ef92329f1dab1420a99c177e600460009054906101000a900473ffffffffffffffffffffffffffffffffffffffff168583604051808473ffffffffffffffffffffffffffffffffffffffff1673ffffffffffffffffffffffffffffffffffffffff168152602001838152602001828152602001935050505060405180910390a16000601081111561420157fe5b925050505b919050565b600060016000808282540192505081905550600080549050600061422d611a4b565b90506000601081111561423c57fe5b81146142605761425881601081111561425157fe5b6027613f0e565b925050614270565b61426c3360008661589e565b9250505b60005481146142e7576040517f08c379a000000000000000000000000000000000000000000000000000000000815260040180806020018281038252600a8152602001807f72652d656e74657265640000000000000000000000000000000000000000000081525060200191505060405180910390fd5b50919050565b600080600080600080601160008873ffffffffffffffffffffffffffffffffffffffff1673ffffffffffffffffffffffffffffffffffffffff16815260200190815260200160002090506000816000015414156143575760008080905095509550505050506143f3565b6143678160000154600b54616092565b80945081955050506000600381111561437c57fe5b84600381111561438857fe5b146143a05783600080905095509550505050506143f3565b6143ae8382600101546160e5565b8093508195505050600060038111156143c357fe5b8460038111156143cf57fe5b146143e75783600080905095509550505050506143f3565b60008295509550505050505b915091565b600060016000808282540192505081905550600080549050600061441a611a4b565b90506000601081111561442957fe5b811461444d5761444581601081111561443e57fe5b601e613f0e565b92505061445b565b6144573385616119565b9250505b60005481146144d2576040517f08c379a000000000000000000000000000000000000000000000000000000000815260040180806020018281038252600a8152602001807f72652d656e74657265640000000000000000000000000000000000000000000081525060200191505060405180910390fd5b50919050565b60007f45b96fe442630264581b197e84bbada861235052c5a1aadfff9ea4e40a969aa084601081111561450757fe5b84604d81111561451357fe5b8460405180848152602001838152602001828152602001935050505060405180910390a183601081111561454357fe5b90509392505050565b600043905090565b60008083831161456c57600083850391509150614578565b60036000809050915091505b9250929050565b6000614589617bb7565b60008061459a866000015186616092565b91509150600060038111156145ab57fe5b8260038111156145b757fe5b146145db5781604051806020016040528060008152508090509350935050506145f6565b60006040518060200160405280838152508090509350935050505b9250929050565b6000806000838501905084811061461b576000819250925050614628565b6002600080905092509250505b9250929050565b600080600061463c617bb7565b614646878761457f565b915091506000600381111561465757fe5b82600381111561466357fe5b1461467957816000809050935093505050614692565b61468b6146858261576c565b866145fd565b9350935050505b935093915050565b60006146a4617bb7565b6000806146b9670de0b6b3a764000087616092565b91509150600060038111156146ca57fe5b8260038111156146d657fe5b146146fa57816040518060200160405280600081525080905093509350505061470f565b614708818660000151615698565b9350935050505b9250929050565b6000614720617bb7565b60008061473586600001518660000151614554565b91509150816040518060200160405280838152508090509350935050509250929050565b6000614763617bb7565b600061476d617bb7565b61477787876167d2565b915091506000600381111561478857fe5b82600381111561479457fe5b146147a65781819350935050506147b7565b6147b081866167d2565b9350935050505b935093915050565b60006001600080828254019250508190555060008054905060006147e1611a4b565b9050600060108111156147f057fe5b81146148145761480c81601081111561480557fe5b6008613f0e565b925050614822565b61481e33856168f3565b9250505b6000548114614899576040517f08c379a000000000000000000000000000000000000000000000000000000000815260040180806020018281038252600a8152602001807f72652d656e74657265640000000000000000000000000000000000000000000081525060200191505060405180910390fd5b50919050565b60006001600080828254019250508190555060008054905060006148c1611a4b565b9050600060108111156148d057fe5b81146148f4576148ec8160108111156148e557fe5b6027613f0e565b925050614904565b6149003385600061589e565b9250505b600054811461497b576040517f08c379a000000000000000000000000000000000000000000000000000000000815260040180806020018281038252600a8152602001807f72652d656e74657265640000000000000000000000000000000000000000000081525060200191505060405180910390fd5b50919050565b600080600460009054906101000a900473ffffffffffffffffffffffffffffffffffffffff1673ffffffffffffffffffffffffffffffffffffffff163373ffffffffffffffffffffffffffffffffffffffff16146149ed576149e560016042613f0e565b915050614c12565b6149f561454c565b600a5414614a1157614a09600a6041613f0e565b915050614c12565b600760009054906101000a900473ffffffffffffffffffffffffffffffffffffffff1690508273ffffffffffffffffffffffffffffffffffffffff16632191f92a6040518163ffffffff1660e01b815260040160206040518083038186803b158015614a7c57600080fd5b505afa158015614a90573d6000803e3d6000fd5b505050506040513d6020811015614aa657600080fd5b8101908080519060200190929190505050614b29576040517f08c379a000000000000000000000000000000000000000000000000000000000815260040180806020018281038252601c8152602001807f6d61726b6572206d6574686f642072657475726e65642066616c73650000000081525060200191505060405180910390fd5b82600760006101000a81548173ffffffffffffffffffffffffffffffffffffffff021916908373ffffffffffffffffffffffffffffffffffffffff1602179055507fedffc32e068c7c95dfd4bdfd5c4d939a084d6b11c4199eac8436ed234d72f9268184604051808373ffffffffffffffffffffffffffffffffffffffff1673ffffffffffffffffffffffffffffffffffffffff1681526020018273ffffffffffffffffffffffffffffffffffffffff1673ffffffffffffffffffffffffffffffffffffffff1681526020019250505060405180910390a160006010811115614c0e57fe5b9150505b919050565b6000600160008082825401925050819055506000805490506000614c39611a4b565b905060006010811115614c4857fe5b8114614c6c57614c64816010811115614c5d57fe5b600f613f0e565b925050614d32565b8373ffffffffffffffffffffffffffffffffffffffff1663a6afed956040518163ffffffff1660e01b8152600401602060405180830381600087803b158015614cb457600080fd5b505af1158015614cc8573d6000803e3d6000fd5b505050506040513d6020811015614cde57600080fd5b8101908080519060200190929190505050905060006010811115614cfe57fe5b8114614d2257614d1a816010811115614d1357fe5b6010613f0e565b925050614d32565b614d2e33878787616ed5565b9250505b6000548114614da9576040517f08c379a000000000000000000000000000000000000000000000000000000000815260040180806020018281038252600a8152602001807f72652d656e74657265640000000000000000000000000000000000000000000081525060200191505060405180910390fd5b509392505050565b6000600460009054906101000a900473ffffffffffffffffffffffffffffffffffffffff1673ffffffffffffffffffffffffffffffffffffffff163373ffffffffffffffffffffffffffffffffffffffff1614614e1b57614e1460016047613f0e565b9050614ebf565b614e2361454c565b600a5414614e3e57614e37600a6048613f0e565b9050614ebf565b670de0b6b3a7640000821115614e6157614e5a60026049613f0e565b9050614ebf565b60006009549050826009819055507faaa68312e2ea9d50e16af5068410ab56e1a1fd06037b1a35664812c30f8214608184604051808381526020018281526020019250505060405180910390a160006010811115614ebb57fe5b9150505b919050565b600080600660009054906101000a900473ffffffffffffffffffffffffffffffffffffffff1673ffffffffffffffffffffffffffffffffffffffff166324008a62308787876040518563ffffffff1660e01b8152600401808573ffffffffffffffffffffffffffffffffffffffff1673ffffffffffffffffffffffffffffffffffffffff1681526020018473ffffffffffffffffffffffffffffffffffffffff1673ffffffffffffffffffffffffffffffffffffffff1681526020018373ffffffffffffffffffffffffffffffffffffffff1673ffffffffffffffffffffffffffffffffffffffff168152602001828152602001945050505050602060405180830381600087803b158015614fd857600080fd5b505af1158015614fec573d6000803e3d6000fd5b505050506040513d602081101561500257600080fd5b81019080805190602001909291905050509050600081146150325761502a60036038836144d8565b915050615635565b61503a61454c565b600a54146150565761504e600a6039613f0e565b915050615635565b61505e617c2e565b601160008673ffffffffffffffffffffffffffffffffffffffff1673ffffffffffffffffffffffffffffffffffffffff168152602001908152602001600020600101548160600181815250506150b3856142ed565b8260200183608001828152508260038111156150cb57fe5b60038111156150d657fe5b8152505050600060038111156150e857fe5b816020015160038111156150f857fe5b1461512257615119600960378360200151600381111561511457fe5b6144d8565b92505050615635565b7fffffffffffffffffffffffffffffffffffffffffffffffffffffffffffffffff84141561515d578060800151816040018181525050615168565b838160400181815250505b615176868260400151617813565b8160000190601081111561518657fe5b9081601081111561519357fe5b81525050600060108111156151a457fe5b816000015160108111156151b457fe5b146151d1576151c88160000151603c613f0e565b92505050615635565b6151e381608001518260400151614554565b826020018360a001828152508260038111156151fb57fe5b600381111561520657fe5b81525050506000600381111561521857fe5b8160200151600381111561522857fe5b14615252576152496009603a8360200151600381111561524457fe5b6144d8565b92505050615635565b615262600c548260400151614554565b826020018360c0018281525082600381111561527a57fe5b600381111561528557fe5b81525050506000600381111561529757fe5b816020015160038111156152a757fe5b146152d1576152c86009603b836020015160038111156152c357fe5b6144d8565b92505050615635565b6152df868260400151617a0d565b816000019060108111156152ef57fe5b908160108111156152fc57fe5b815250506000601081111561530d57fe5b8160000151601081111561531d57fe5b14615390576040517f08c379a000000000000000000000000000000000000000000000000000000000815260040180806020018281038252601f8152602001807f726570617920626f72726f77207472616e7366657220696e206661696c65640081525060200191505060405180910390fd5b8060a00151601160008773ffffffffffffffffffffffffffffffffffffffff1673ffffffffffffffffffffffffffffffffffffffff16815260200190815260200160002060000181905550600b54601160008773ffffffffffffffffffffffffffffffffffffffff1673ffffffffffffffffffffffffffffffffffffffff168152602001908152602001600020600101819055508060c00151600c819055507f1a2a22cb034d26d1854bdc6666a5b91fe25efbbb5dcad3b0355478d6f5c362a1868683604001518460a001518560c00151604051808673ffffffffffffffffffffffffffffffffffffffff1673ffffffffffffffffffffffffffffffffffffffff1681526020018573ffffffffffffffffffffffffffffffffffffffff1673ffffffffffffffffffffffffffffffffffffffff1681526020018481526020018381526020018281526020019550505050505060405180910390a1600660009054906101000a900473ffffffffffffffffffffffffffffffffffffffff1673ffffffffffffffffffffffffffffffffffffffff16631ededc91308888856040015186606001516040518663ffffffff1660e01b8152600401808673ffffffffffffffffffffffffffffffffffffffff1673ffffffffffffffffffffffffffffffffffffffff1681526020018573ffffffffffffffffffffffffffffffffffffffff1673ffffffffffffffffffffffffffffffffffffffff1681526020018473ffffffffffffffffffffffffffffffffffffffff1673ffffffffffffffffffffffffffffffffffffffff16815260200183815260200182815260200195505050505050600060405180830381600087803b15801561560b57600080fd5b505af115801561561f573d6000803e3d6000fd5b505050506000601081111561563057fe5b925050505b9392505050565b60008060008061564c87876145fd565b915091506000600381111561565d57fe5b82600381111561566957fe5b1461567f57816000809050935093505050615690565b6156898186614554565b9350935050505b935093915050565b60006156a2617bb7565b6000806156b786670de0b6b3a7640000616092565b91509150600060038111156156c857fe5b8260038111156156d457fe5b146156f8578160405180602001604052806000815250809050935093505050615765565b60008061570583886160e5565b915091506000600381111561571657fe5b82600381111561572257fe5b146157485781604051806020016040528060008152508090509550955050505050615765565b600060405180602001604052808381525080905095509550505050505b9250929050565b6000670de0b6b3a764000082600001518161578357fe5b049050919050565b600080601260009054906101000a900473ffffffffffffffffffffffffffffffffffffffff16905060008173ffffffffffffffffffffffffffffffffffffffff1663a9059cbb86866040518363ffffffff1660e01b8152600401808373ffffffffffffffffffffffffffffffffffffffff1673ffffffffffffffffffffffffffffffffffffffff16815260200182815260200192505050600060405180830381600087803b15801561583c57600080fd5b505af1158015615850573d6000803e3d6000fd5b505050503d6000811461586a576020811461587457600080fd5b6000199150615880565b60206000803e60005191505b508061589157601092505050615898565b6000925050505b92915050565b6000808314806158ae5750600082145b615903576040517f08c379a0000000000000000000000000000000000000000000000000000000008152600401808060200182810382526034815260200180617f3f6034913960400191505060405180910390fd5b61590b617c81565b61591361353b565b82602001836040018281525082600381111561592b57fe5b600381111561593657fe5b81525050506000600381111561594857fe5b8160200151600381111561595857fe5b14615981576159796009602b8360200151600381111561597457fe5b6144d8565b91505061608b565b6000841115615a2357838160600181815250506159b06040518060200160405280836040015181525085613dc5565b8260200183608001828152508260038111156159c857fe5b60038111156159d357fe5b8152505050600060038111156159e557fe5b816020015160038111156159f557fe5b14615a1e57615a166009602983602001516003811115615a1157fe5b6144d8565b91505061608b565b615ab8565b615a3f8360405180602001604052808460400151815250617b54565b826020018360600182815250826003811115615a5757fe5b6003811115615a6257fe5b815250505060006003811115615a7457fe5b81602001516003811115615a8457fe5b14615aad57615aa56009602a83602001516003811115615aa057fe5b6144d8565b91505061608b565b828160800181815250505b6000600660009054906101000a900473ffffffffffffffffffffffffffffffffffffffff1673ffffffffffffffffffffffffffffffffffffffff1663eabe7d91308885606001516040518463ffffffff1660e01b8152600401808473ffffffffffffffffffffffffffffffffffffffff1673ffffffffffffffffffffffffffffffffffffffff1681526020018373ffffffffffffffffffffffffffffffffffffffff1673ffffffffffffffffffffffffffffffffffffffff1681526020018281526020019350505050602060405180830381600087803b158015615b9b57600080fd5b505af1158015615baf573d6000803e3d6000fd5b505050506040513d6020811015615bc557600080fd5b8101908080519060200190929190505050905060008114615bf657615bed60036028836144d8565b9250505061608b565b615bfe61454c565b600a5414615c1b57615c12600a602c613f0e565b9250505061608b565b615c2b600e548360600151614554565b836020018460a00182815250826003811115615c4357fe5b6003811115615c4e57fe5b815250505060006003811115615c6057fe5b82602001516003811115615c7057fe5b14615c9a57615c916009602e84602001516003811115615c8c57fe5b6144d8565b9250505061608b565b615ce7600f60008873ffffffffffffffffffffffffffffffffffffffff1673ffffffffffffffffffffffffffffffffffffffff168152602001908152602001600020548360600151614554565b836020018460c00182815250826003811115615cff57fe5b6003811115615d0a57fe5b815250505060006003811115615d1c57fe5b82602001516003811115615d2c57fe5b14615d5657615d4d6009602d84602001516003811115615d4857fe5b6144d8565b9250505061608b565b8160800151615d63613e28565b1015615d7e57615d75600e602f613f0e565b9250505061608b565b615d8c86836080015161578b565b82600001906010811115615d9c57fe5b90816010811115615da957fe5b8152505060006010811115615dba57fe5b82600001516010811115615dca57fe5b14615e3d576040517f08c379a000000000000000000000000000000000000000000000000000000000815260040180806020018281038252601a8152602001807f72656465656d207472616e73666572206f7574206661696c656400000000000081525060200191505060405180910390fd5b8160a00151600e819055508160c00151600f60008873ffffffffffffffffffffffffffffffffffffffff1673ffffffffffffffffffffffffffffffffffffffff168152602001908152602001600020819055503073ffffffffffffffffffffffffffffffffffffffff168673ffffffffffffffffffffffffffffffffffffffff167fddf252ad1be2c89b69c2b068fc378daa952ba7f163c4a11628f55a4df523b3ef84606001516040518082815260200191505060405180910390a37fe5b754fb1abb7f01b499791d0b820ae3b6af3424ac1c59768edb53f4ec31a9298683608001518460600151604051808473ffffffffffffffffffffffffffffffffffffffff1673ffffffffffffffffffffffffffffffffffffffff168152602001838152602001828152602001935050505060405180910390a1600660009054906101000a900473ffffffffffffffffffffffffffffffffffffffff1673ffffffffffffffffffffffffffffffffffffffff166351dff9893088856080015186606001516040518563ffffffff1660e01b8152600401808573ffffffffffffffffffffffffffffffffffffffff1673ffffffffffffffffffffffffffffffffffffffff1681526020018473ffffffffffffffffffffffffffffffffffffffff1673ffffffffffffffffffffffffffffffffffffffff168152602001838152602001828152602001945050505050600060405180830381600087803b15801561606157600080fd5b505af1158015616075573d6000803e3d6000fd5b505050506000601081111561608657fe5b925050505b9392505050565b60008060008414156160ad57600080809050915091506160de565b60008385029050838582816160be57fe5b04146160d5576002600080905092509250506160de565b60008192509250505b9250929050565b6000806000831415616101576001600080905091509150616112565b600083858161610c57fe5b04915091505b9250929050565b600080600660009054906101000a900473ffffffffffffffffffffffffffffffffffffffff1673ffffffffffffffffffffffffffffffffffffffff16634ef4c3e13086866040518463ffffffff1660e01b8152600401808473ffffffffffffffffffffffffffffffffffffffff1673ffffffffffffffffffffffffffffffffffffffff1681526020018373ffffffffffffffffffffffffffffffffffffffff1673ffffffffffffffffffffffffffffffffffffffff1681526020018281526020019350505050602060405180830381600087803b1580156161f957600080fd5b505af115801561620d573d6000803e3d6000fd5b505050506040513d602081101561622357600080fd5b81019080805190602001909291905050509050600081146162535761624b6003601f836144d8565b9150506167cc565b61625b61454c565b600a54146162775761626f600a6022613f0e565b9150506167cc565b61627f617cd4565b6162898585617813565b8160000190601081111561629957fe5b908160108111156162a657fe5b81525050600060108111156162b757fe5b816000015160108111156162c757fe5b146162e4576162db81600001516026613f0e565b925050506167cc565b6162ec61353b565b82602001836040018281525082600381111561630457fe5b600381111561630f57fe5b81525050506000600381111561632157fe5b8160200151600381111561633157fe5b1461635b57616352600960218360200151600381111561634d57fe5b6144d8565b925050506167cc565b6163778460405180602001604052808460400151815250617b54565b82602001836060018281525082600381111561638f57fe5b600381111561639a57fe5b8152505050600060038111156163ac57fe5b816020015160038111156163bc57fe5b146163e6576163dd60096020836020015160038111156163d857fe5b6144d8565b925050506167cc565b6163f6600e5482606001516145fd565b82602001836080018281525082600381111561640e57fe5b600381111561641957fe5b81525050506000600381111561642b57fe5b8160200151600381111561643b57fe5b146164655761645c600960248360200151600381111561645757fe5b6144d8565b925050506167cc565b6164b2600f60008773ffffffffffffffffffffffffffffffffffffffff1673ffffffffffffffffffffffffffffffffffffffff1681526020019081526020016000205482606001516145fd565b826020018360a001828152508260038111156164ca57fe5b60038111156164d557fe5b8152505050600060038111156164e757fe5b816020015160038111156164f757fe5b1461652157616518600960238360200151600381111561651357fe5b6144d8565b925050506167cc565b61652b8585617a0d565b8160000190601081111561653b57fe5b9081601081111561654857fe5b815250506000601081111561655957fe5b8160000151601081111561656957fe5b146165865761657d81600001516025613f0e565b925050506167cc565b8060800151600e819055508060a00151600f60008773ffffffffffffffffffffffffffffffffffffffff1673ffffffffffffffffffffffffffffffffffffffff168152602001908152602001600020819055507f4c209b5fc8ad50758f13e2e1088ba56a560dff690a1c6fef26394f4c03821c4f85858360600151604051808473ffffffffffffffffffffffffffffffffffffffff1673ffffffffffffffffffffffffffffffffffffffff168152602001838152602001828152602001935050505060405180910390a18473ffffffffffffffffffffffffffffffffffffffff163073ffffffffffffffffffffffffffffffffffffffff167fddf252ad1be2c89b69c2b068fc378daa952ba7f163c4a11628f55a4df523b3ef83606001516040518082815260200191505060405180910390a3600660009054906101000a900473ffffffffffffffffffffffffffffffffffffffff1673ffffffffffffffffffffffffffffffffffffffff166341c728b930878785606001516040518563ffffffff1660e01b8152600401808573ffffffffffffffffffffffffffffffffffffffff1673ffffffffffffffffffffffffffffffffffffffff1681526020018473ffffffffffffffffffffffffffffffffffffffff1673ffffffffffffffffffffffffffffffffffffffff168152602001838152602001828152602001945050505050600060405180830381600087803b1580156167a257600080fd5b505af11580156167b6573d6000803e3d6000fd5b50505050600060108111156167c757fe5b925050505b92915050565b60006167dc617bb7565b6000806167f186600001518660000151616092565b915091506000600381111561680257fe5b82600381111561680e57fe5b146168325781604051806020016040528060008152508090509350935050506168ec565b6000806168516002670de0b6b3a76400008161684a57fe5b04846145fd565b915091506000600381111561686257fe5b82600381111561686e57fe5b1461689457816040518060200160405280600081525080905095509550505050506168ec565b6000806168a983670de0b6b3a76400006160e5565b91509150600060038111156168ba57fe5b8260038111156168c657fe5b146168cd57fe5b6000604051806020016040528083815250809050975097505050505050505b9250929050565b600080600660009054906101000a900473ffffffffffffffffffffffffffffffffffffffff1673ffffffffffffffffffffffffffffffffffffffff1663da3d454c3086866040518463ffffffff1660e01b8152600401808473ffffffffffffffffffffffffffffffffffffffff1673ffffffffffffffffffffffffffffffffffffffff1681526020018373ffffffffffffffffffffffffffffffffffffffff1673ffffffffffffffffffffffffffffffffffffffff1681526020018281526020019350505050602060405180830381600087803b1580156169d357600080fd5b505af11580156169e7573d6000803e3d6000fd5b505050506040513d60208110156169fd57600080fd5b8101908080519060200190929190505050905060008114616a2d57616a256003600e836144d8565b915050616ecf565b616a3561454c565b600a5414616a5057616a48600a80613f0e565b915050616ecf565b82616a59613e28565b1015616a7357616a6b600e6009613f0e565b915050616ecf565b616a7b617d20565b616a84856142ed565b826020018360400182815250826003811115616a9c57fe5b6003811115616aa757fe5b815250505060006003811115616ab957fe5b81602001516003811115616ac957fe5b14616af357616aea6009600783602001516003811115616ae557fe5b6144d8565b92505050616ecf565b616b018160400151856145fd565b826020018360600182815250826003811115616b1957fe5b6003811115616b2457fe5b815250505060006003811115616b3657fe5b81602001516003811115616b4657fe5b14616b7057616b676009600c83602001516003811115616b6257fe5b6144d8565b92505050616ecf565b616b7c600c54856145fd565b826020018360800182815250826003811115616b9457fe5b6003811115616b9f57fe5b815250505060006003811115616bb157fe5b81602001516003811115616bc157fe5b14616beb57616be26009600b83602001516003811115616bdd57fe5b6144d8565b92505050616ecf565b616bf5858561578b565b81600001906010811115616c0557fe5b90816010811115616c1257fe5b8152505060006010811115616c2357fe5b81600001516010811115616c3357fe5b14616ca6576040517f08c379a000000000000000000000000000000000000000000000000000000000815260040180806020018281038252601a8152602001807f626f72726f77207472616e73666572206f7574206661696c656400000000000081525060200191505060405180910390fd5b8060600151601160008773ffffffffffffffffffffffffffffffffffffffff1673ffffffffffffffffffffffffffffffffffffffff16815260200190815260200160002060000181905550600b54601160008773ffffffffffffffffffffffffffffffffffffffff1673ffffffffffffffffffffffffffffffffffffffff168152602001908152602001600020600101819055508060800151600c819055507f13ed6866d4e1ee6da46f845c46d7e54120883d75c5ea9a2dacc1c4ca8984ab80858583606001518460800151604051808573ffffffffffffffffffffffffffffffffffffffff1673ffffffffffffffffffffffffffffffffffffffff16815260200184815260200183815260200182815260200194505050505060405180910390a1600660009054906101000a900473ffffffffffffffffffffffffffffffffffffffff1673ffffffffffffffffffffffffffffffffffffffff16635c7786053087876040518463ffffffff1660e01b8152600401808473ffffffffffffffffffffffffffffffffffffffff1673ffffffffffffffffffffffffffffffffffffffff1681526020018373ffffffffffffffffffffffffffffffffffffffff1673ffffffffffffffffffffffffffffffffffffffff1681526020018281526020019350505050600060405180830381600087803b158015616ea557600080fd5b505af1158015616eb9573d6000803e3d6000fd5b5050505060006010811115616eca57fe5b925050505b92915050565b600080600660009054906101000a900473ffffffffffffffffffffffffffffffffffffffff1673ffffffffffffffffffffffffffffffffffffffff16635fc7e71e30858989896040518663ffffffff1660e01b8152600401808673ffffffffffffffffffffffffffffffffffffffff1673ffffffffffffffffffffffffffffffffffffffff1681526020018573ffffffffffffffffffffffffffffffffffffffff1673ffffffffffffffffffffffffffffffffffffffff1681526020018473ffffffffffffffffffffffffffffffffffffffff1673ffffffffffffffffffffffffffffffffffffffff1681526020018373ffffffffffffffffffffffffffffffffffffffff1673ffffffffffffffffffffffffffffffffffffffff16815260200182815260200195505050505050602060405180830381600087803b15801561701d57600080fd5b505af1158015617031573d6000803e3d6000fd5b505050506040513d602081101561704757600080fd5b81019080805190602001909291905050509050600081146170775761706f60036012836144d8565b91505061780b565b61707f61454c565b600a541461709b57617093600a6016613f0e565b91505061780b565b6170a361454c565b8373ffffffffffffffffffffffffffffffffffffffff16636c540baf6040518163ffffffff1660e01b815260040160206040518083038186803b1580156170e957600080fd5b505afa1580156170fd573d6000803e3d6000fd5b505050506040513d602081101561711357600080fd5b81019080805190602001909291905050501461713d57617135600a6011613f0e565b91505061780b565b8573ffffffffffffffffffffffffffffffffffffffff168573ffffffffffffffffffffffffffffffffffffffff1614156171855761717d60066017613f0e565b91505061780b565b60008414156171a25761719a60076015613f0e565b91505061780b565b7fffffffffffffffffffffffffffffffffffffffffffffffffffffffffffffffff8414156171de576171d660076014613f0e565b91505061780b565b600080600660009054906101000a900473ffffffffffffffffffffffffffffffffffffffff1673ffffffffffffffffffffffffffffffffffffffff1663c488847b3087896040518463ffffffff1660e01b8152600401808473ffffffffffffffffffffffffffffffffffffffff1673ffffffffffffffffffffffffffffffffffffffff1681526020018373ffffffffffffffffffffffffffffffffffffffff1673ffffffffffffffffffffffffffffffffffffffff1681526020018281526020019350505050604080518083038186803b1580156172bb57600080fd5b505afa1580156172cf573d6000803e3d6000fd5b505050506040513d60408110156172e557600080fd5b81019080805190602001909291908051906020019092919050505091509150600082146173235761731960046013846144d8565b935050505061780b565b8473ffffffffffffffffffffffffffffffffffffffff166370a08231886040518263ffffffff1660e01b8152600401808273ffffffffffffffffffffffffffffffffffffffff1673ffffffffffffffffffffffffffffffffffffffff16815260200191505060206040518083038186803b1580156173a057600080fd5b505afa1580156173b4573d6000803e3d6000fd5b505050506040513d60208110156173ca57600080fd5b81019080805190602001909291905050508111156173f8576173ee600d601d613f0e565b935050505061780b565b6000617405898989614ec4565b90506000601081111561741457fe5b811461743b5761743081601081111561742957fe5b6018613f0e565b94505050505061780b565b60008673ffffffffffffffffffffffffffffffffffffffff1663b2a02ff18b8b866040518463ffffffff1660e01b8152600401808473ffffffffffffffffffffffffffffffffffffffff1673ffffffffffffffffffffffffffffffffffffffff1681526020018373ffffffffffffffffffffffffffffffffffffffff1673ffffffffffffffffffffffffffffffffffffffff1681526020018281526020019350505050602060405180830381600087803b1580156174f857600080fd5b505af115801561750c573d6000803e3d6000fd5b505050506040513d602081101561752257600080fd5b810190808051906020019092919050505090506000601081111561754257fe5b81146175b6576040517f08c379a00000000000000000000000000000000000000000000000000000000081526004018080602001828103825260148152602001807f746f6b656e207365697a757265206661696c656400000000000000000000000081525060200191505060405180910390fd5b7f298637f684da70674f26509b10f07ec2fbc77a335ab1e7d6215a4b2484d8bb528a8a8a8a87604051808673ffffffffffffffffffffffffffffffffffffffff1673ffffffffffffffffffffffffffffffffffffffff1681526020018573ffffffffffffffffffffffffffffffffffffffff1673ffffffffffffffffffffffffffffffffffffffff1681526020018481526020018373ffffffffffffffffffffffffffffffffffffffff1673ffffffffffffffffffffffffffffffffffffffff1681526020018281526020019550505050505060405180910390a1600660009054906101000a900473ffffffffffffffffffffffffffffffffffffffff1673ffffffffffffffffffffffffffffffffffffffff166347ef3b3b30898d8d8d896040518763ffffffff1660e01b8152600401808773ffffffffffffffffffffffffffffffffffffffff1673ffffffffffffffffffffffffffffffffffffffff1681526020018673ffffffffffffffffffffffffffffffffffffffff1673ffffffffffffffffffffffffffffffffffffffff1681526020018573ffffffffffffffffffffffffffffffffffffffff1673ffffffffffffffffffffffffffffffffffffffff1681526020018473ffffffffffffffffffffffffffffffffffffffff1673ffffffffffffffffffffffffffffffffffffffff1681526020018381526020018281526020019650505050505050600060405180830381600087803b1580156177de57600080fd5b505af11580156177f2573d6000803e3d6000fd5b505050506000601081111561780357fe5b955050505050505b949350505050565b600080601260009054906101000a900473ffffffffffffffffffffffffffffffffffffffff169050828173ffffffffffffffffffffffffffffffffffffffff1663dd62ed3e86306040518363ffffffff1660e01b8152600401808373ffffffffffffffffffffffffffffffffffffffff1673ffffffffffffffffffffffffffffffffffffffff1681526020018273ffffffffffffffffffffffffffffffffffffffff1673ffffffffffffffffffffffffffffffffffffffff1681526020019250505060206040518083038186803b1580156178ed57600080fd5b505afa158015617901573d6000803e3d6000fd5b505050506040513d602081101561791757600080fd5b8101908080519060200190929190505050101561793857600c915050617a07565b828173ffffffffffffffffffffffffffffffffffffffff166370a08231866040518263ffffffff1660e01b8152600401808273ffffffffffffffffffffffffffffffffffffffff1673ffffffffffffffffffffffffffffffffffffffff16815260200191505060206040518083038186803b1580156179b657600080fd5b505afa1580156179ca573d6000803e3d6000fd5b505050506040513d60208110156179e057600080fd5b81019080805190602001909291905050501015617a0157600d915050617a07565b60009150505b92915050565b600080601260009054906101000a900473ffffffffffffffffffffffffffffffffffffffff16905060008173ffffffffffffffffffffffffffffffffffffffff166323b872dd8630876040518463ffffffff1660e01b8152600401808473ffffffffffffffffffffffffffffffffffffffff1673ffffffffffffffffffffffffffffffffffffffff1681526020018373ffffffffffffffffffffffffffffffffffffffff1673ffffffffffffffffffffffffffffffffffffffff1681526020018281526020019350505050600060405180830381600087803b158015617af257600080fd5b505af1158015617b06573d6000803e3d6000fd5b505050503d60008114617b205760208114617b2a57600080fd5b6000199150617b36565b60206000803e60005191505b5080617b4757600f92505050617b4e565b6000925050505b92915050565b6000806000617b61617bb7565b617b6b868661469a565b9150915060006003811115617b7c57fe5b826003811115617b8857fe5b14617b9e57816000809050935093505050617bb0565b6000617ba98261576c565b9350935050505b9250929050565b6040518060200160405280600081525090565b60405180610140016040528060006003811115617be357fe5b815260200160008152602001600081526020016000815260200160008152602001617c0c617d65565b8152602001600081526020016000815260200160008152602001600081525090565b6040518060e0016040528060006010811115617c4657fe5b815260200160006003811115617c5857fe5b815260200160008152602001600081526020016000815260200160008152602001600081525090565b6040518060e0016040528060006010811115617c9957fe5b815260200160006003811115617cab57fe5b815260200160008152602001600081526020016000815260200160008152602001600081525090565b6040518060c0016040528060006010811115617cec57fe5b815260200160006003811115617cfe57fe5b8152602001600081526020016000815260200160008152602001600081525090565b6040518060a0016040528060006010811115617d3857fe5b815260200160006003811115617d4a57fe5b81526020016000815260200160008152602001600081525090565b604051806020016040528060008152509056fe737570706c7952617465506572426c6f636b3a2063616c63756c6174696e6720626f72726f7773506572206661696c6564726564756365207265736572766573207472616e73666572206f7574206661696c6564737570706c7952617465506572426c6f636b3a2063616c63756c6174696e6720737570706c7952617465206661696c6564626f72726f7742616c616e636553746f7265643a20626f72726f7742616c616e636553746f726564496e7465726e616c206661696c6564737570706c7952617465506572426c6f636b3a2063616c63756c6174696e6720756e6465726c79696e67206661696c6564626f72726f7752617465506572426c6f636b3a20696e746572657374526174654d6f64656c2e626f72726f7752617465206661696c6564737570706c7952617465506572426c6f636b3a2063616c63756c6174696e6720626f72726f7752617465206661696c6564737570706c7952617465506572426c6f636b3a2063616c63756c6174696e67206f6e654d696e757352657365727665466163746f72206661696c656465786368616e67655261746553746f7265643a2065786368616e67655261746553746f726564496e7465726e616c206661696c65646f6e65206f662072656465656d546f6b656e73496e206f722072656465656d416d6f756e74496e206d757374206265207a65726f72656475636520726573657276657320756e657870656374656420756e646572666c6f77a265627a7a72315820758a7c9442ceb9112e905414e5493c17977b5aa46ec1b33511ebc3d9fccf283164736f6c634300050c003253657474696e6720696e7465726573742072617465206d6f64656c206661696c6564496e697469616c2065786368616e67652072617465206d7573742062652067726561746572207468616e207a65726f2e",
  "source": "pragma solidity ^0.5.8;\n\nimport \"./CToken.sol\";\n\n/**\n * @title Compound's CErc20 Contract\n * @notice CTokens which wrap an EIP-20 underlying\n * @author Compound\n */\ncontract CErc20 is CToken {\n\n    /**\n     * @notice Underlying asset for this CToken\n     */\n    address public underlying;\n\n    /**\n     * @notice Construct a new money market\n     * @param underlying_ The address of the underlying asset\n     * @param comptroller_ The address of the Comptroller\n     * @param interestRateModel_ The address of the interest rate model\n     * @param initialExchangeRateMantissa_ The initial exchange rate, scaled by 1e18\n     * @param name_ ERC-20 name of this token\n     * @param symbol_ ERC-20 symbol of this token\n     * @param decimals_ ERC-20 decimal precision of this token\n     */\n    constructor(address underlying_,\n                ComptrollerInterface comptroller_,\n                InterestRateModel interestRateModel_,\n                uint initialExchangeRateMantissa_,\n                string memory name_,\n                string memory symbol_,\n                uint decimals_) public\n    CToken(comptroller_, interestRateModel_, initialExchangeRateMantissa_, name_, symbol_, decimals_) {\n        // Set underlying\n        underlying = underlying_;\n        EIP20Interface(underlying).totalSupply(); // Sanity check the underlying\n    }\n\n    /*** User Interface ***/\n\n    /**\n     * @notice Sender supplies assets into the market and receives cTokens in exchange\n     * @dev Accrues interest whether or not the operation succeeds, unless reverted\n     * @param mintAmount The amount of the underlying asset to supply\n     * @return uint 0=success, otherwise a failure (see ErrorReporter.sol for details)\n     */\n    function mint(uint mintAmount) external returns (uint) {\n        return mintInternal(mintAmount);\n    }\n\n    /**\n     * @notice Sender redeems cTokens in exchange for the underlying asset\n     * @dev Accrues interest whether or not the operation succeeds, unless reverted\n     * @param redeemTokens The number of cTokens to redeem into underlying\n     * @return uint 0=success, otherwise a failure (see ErrorReporter.sol for details)\n     */\n    function redeem(uint redeemTokens) external returns (uint) {\n        return redeemInternal(redeemTokens);\n    }\n\n    /**\n     * @notice Sender redeems cTokens in exchange for a specified amount of underlying asset\n     * @dev Accrues interest whether or not the operation succeeds, unless reverted\n     * @param redeemAmount The amount of underlying to redeem\n     * @return uint 0=success, otherwise a failure (see ErrorReporter.sol for details)\n     */\n    function redeemUnderlying(uint redeemAmount) external returns (uint) {\n        return redeemUnderlyingInternal(redeemAmount);\n    }\n\n    /**\n      * @notice Sender borrows assets from the protocol to their own address\n      * @param borrowAmount The amount of the underlying asset to borrow\n      * @return uint 0=success, otherwise a failure (see ErrorReporter.sol for details)\n      */\n    function borrow(uint borrowAmount) external returns (uint) {\n        return borrowInternal(borrowAmount);\n    }\n\n    /**\n     * @notice Sender repays their own borrow\n     * @param repayAmount The amount to repay\n     * @return uint 0=success, otherwise a failure (see ErrorReporter.sol for details)\n     */\n    function repayBorrow(uint repayAmount) external returns (uint) {\n        return repayBorrowInternal(repayAmount);\n    }\n\n    /**\n     * @notice Sender repays a borrow belonging to borrower\n     * @param borrower the account with the debt being payed off\n     * @param repayAmount The amount to repay\n     * @return uint 0=success, otherwise a failure (see ErrorReporter.sol for details)\n     */\n    function repayBorrowBehalf(address borrower, uint repayAmount) external returns (uint) {\n        return repayBorrowBehalfInternal(borrower, repayAmount);\n    }\n\n    /**\n     * @notice The sender liquidates the borrowers collateral.\n     *  The collateral seized is transferred to the liquidator.\n     * @param borrower The borrower of this cToken to be liquidated\n     * @param cTokenCollateral The market in which to seize collateral from the borrower\n     * @param repayAmount The amount of the underlying borrowed asset to repay\n     * @return uint 0=success, otherwise a failure (see ErrorReporter.sol for details)\n     */\n    function liquidateBorrow(address borrower, uint repayAmount, CToken cTokenCollateral) external returns (uint) {\n        return liquidateBorrowInternal(borrower, repayAmount, cTokenCollateral);\n    }\n\n    /*** Safe Token ***/\n\n    /**\n     * @notice Gets balance of this contract in terms of the underlying\n     * @dev This excludes the value of the current message, if any\n     * @return The quantity of underlying tokens owned by this contract\n     */\n    function getCashPrior() internal view returns (uint) {\n        EIP20Interface token = EIP20Interface(underlying);\n        return token.balanceOf(address(this));\n    }\n\n    /**\n     * @dev Checks whether or not there is sufficient allowance for this contract to move amount from `from` and\n     *      whether or not `from` has a balance of at least `amount`. Does NOT do a transfer.\n     */\n    function checkTransferIn(address from, uint amount) internal view returns (Error) {\n        EIP20Interface token = EIP20Interface(underlying);\n\n        if (token.allowance(from, address(this)) < amount) {\n            return Error.TOKEN_INSUFFICIENT_ALLOWANCE;\n        }\n\n        if (token.balanceOf(from) < amount) {\n            return Error.TOKEN_INSUFFICIENT_BALANCE;\n        }\n\n        return Error.NO_ERROR;\n    }\n\n    /**\n     * @dev Similar to EIP20 transfer, except it handles a False result from `transferFrom` and returns an explanatory\n     *      error code rather than reverting.  If caller has not called `checkTransferIn`, this may revert due to\n     *      insufficient balance or insufficient allowance. If caller has called `checkTransferIn` prior to this call,\n     *      and it returned Error.NO_ERROR, this should not revert in normal conditions.\n     *\n     *      Note: This wrapper safely handles non-standard ERC-20 tokens that do not return a value.\n     *            See here: https://medium.com/coinmonks/missing-return-value-bug-at-least-130-tokens-affected-d67bf08521ca\n     */\n    function doTransferIn(address from, uint amount) internal returns (Error) {\n        EIP20NonStandardInterface token = EIP20NonStandardInterface(underlying);\n        bool result;\n\n        token.transferFrom(from, address(this), amount);\n\n        // solium-disable-next-line security/no-inline-assembly\n        assembly {\n            switch returndatasize()\n                case 0 {                      // This is a non-standard ERC-20\n                    result := not(0)          // set result to true\n                }\n                case 32 {                     // This is a complaint ERC-20\n                    returndatacopy(0, 0, 32)\n                    result := mload(0)        // Set `result = returndata` of external call\n                }\n                default {                     // This is an excessively non-compliant ERC-20, revert.\n                    revert(0, 0)\n                }\n        }\n\n        if (!result) {\n            return Error.TOKEN_TRANSFER_IN_FAILED;\n        }\n\n        return Error.NO_ERROR;\n    }\n\n    /**\n     * @dev Similar to EIP20 transfer, except it handles a False result from `transfer` and returns an explanatory\n     *      error code rather than reverting. If caller has not called checked protocol's balance, this may revert due to\n     *      insufficient cash held in this contract. If caller has checked protocol's balance prior to this call, and verified\n     *      it is >= amount, this should not revert in normal conditions.\n     *\n     *      Note: This wrapper safely handles non-standard ERC-20 tokens that do not return a value.\n     *            See here: https://medium.com/coinmonks/missing-return-value-bug-at-least-130-tokens-affected-d67bf08521ca\n     */\n    function doTransferOut(address payable to, uint amount) internal returns (Error) {\n        EIP20NonStandardInterface token = EIP20NonStandardInterface(underlying);\n        bool result;\n\n        token.transfer(to, amount);\n\n        // solium-disable-next-line security/no-inline-assembly\n        assembly {\n            switch returndatasize()\n                case 0 {                      // This is a non-standard ERC-20\n                    result := not(0)          // set result to true\n                }\n                case 32 {                     // This is a complaint ERC-20\n                    returndatacopy(0, 0, 32)\n                    result := mload(0)        // Set `result = returndata` of external call\n                }\n                default {                     // This is an excessively non-compliant ERC-20, revert.\n                    revert(0, 0)\n                }\n        }\n\n        if (!result) {\n            return Error.TOKEN_TRANSFER_OUT_FAILED;\n        }\n\n        return Error.NO_ERROR;\n    }\n}\n",
  "sourcePath": "/Users/logic/eth/interestfund/contracts/mocks/compound/CErc20.sol",
  "compiler": {
    "name": "solc",
    "version": "0.5.12+commit.7709ece9.Emscripten.clang",
    "optimizer": false,
    "runs": 200
  },
  "schemaVersion": "2.2.4",
  "updatedAt": "2019-10-23T11:47:55.495Z"
}