{
  "contractName": "CEther",
  "abi": [
    {
      "inputs": [
        {
          "internalType": "contract ComptrollerInterface",
          "name": "comptroller_",
          "type": "address"
        },
        {
          "internalType": "contract InterestRateModel",
          "name": "interestRateModel_",
          "type": "address"
        },
        {
          "internalType": "uint256",
          "name": "initialExchangeRateMantissa_",
          "type": "uint256"
        },
        {
          "internalType": "string",
          "name": "name_",
          "type": "string"
        },
        {
          "internalType": "string",
          "name": "symbol_",
          "type": "string"
        },
        {
          "internalType": "uint256",
          "name": "decimals_",
          "type": "uint256"
        }
      ],
      "payable": false,
      "stateMutability": "nonpayable",
      "type": "constructor"
    },
    {
      "anonymous": false,
      "inputs": [
        {
          "indexed": false,
          "internalType": "uint256",
          "name": "interestAccumulated",
          "type": "uint256"
        },
        {
          "indexed": false,
          "internalType": "uint256",
          "name": "borrowIndex",
          "type": "uint256"
        },
        {
          "indexed": false,
          "internalType": "uint256",
          "name": "totalBorrows",
          "type": "uint256"
        }
      ],
      "name": "AccrueInterest",
      "type": "event"
    },
    {
      "anonymous": false,
      "inputs": [
        {
          "indexed": true,
          "internalType": "address",
          "name": "owner",
          "type": "address"
        },
        {
          "indexed": true,
          "internalType": "address",
          "name": "spender",
          "type": "address"
        },
        {
          "indexed": false,
          "internalType": "uint256",
          "name": "amount",
          "type": "uint256"
        }
      ],
      "name": "Approval",
      "type": "event"
    },
    {
      "anonymous": false,
      "inputs": [
        {
          "indexed": false,
          "internalType": "address",
          "name": "borrower",
          "type": "address"
        },
        {
          "indexed": false,
          "internalType": "uint256",
          "name": "borrowAmount",
          "type": "uint256"
        },
        {
          "indexed": false,
          "internalType": "uint256",
          "name": "accountBorrows",
          "type": "uint256"
        },
        {
          "indexed": false,
          "internalType": "uint256",
          "name": "totalBorrows",
          "type": "uint256"
        }
      ],
      "name": "Borrow",
      "type": "event"
    },
    {
      "anonymous": false,
      "inputs": [
        {
          "indexed": false,
          "internalType": "uint256",
          "name": "error",
          "type": "uint256"
        },
        {
          "indexed": false,
          "internalType": "uint256",
          "name": "info",
          "type": "uint256"
        },
        {
          "indexed": false,
          "internalType": "uint256",
          "name": "detail",
          "type": "uint256"
        }
      ],
      "name": "Failure",
      "type": "event"
    },
    {
      "anonymous": false,
      "inputs": [
        {
          "indexed": false,
          "internalType": "address",
          "name": "liquidator",
          "type": "address"
        },
        {
          "indexed": false,
          "internalType": "address",
          "name": "borrower",
          "type": "address"
        },
        {
          "indexed": false,
          "internalType": "uint256",
          "name": "repayAmount",
          "type": "uint256"
        },
        {
          "indexed": false,
          "internalType": "address",
          "name": "cTokenCollateral",
          "type": "address"
        },
        {
          "indexed": false,
          "internalType": "uint256",
          "name": "seizeTokens",
          "type": "uint256"
        }
      ],
      "name": "LiquidateBorrow",
      "type": "event"
    },
    {
      "anonymous": false,
      "inputs": [
        {
          "indexed": false,
          "internalType": "address",
          "name": "minter",
          "type": "address"
        },
        {
          "indexed": false,
          "internalType": "uint256",
          "name": "mintAmount",
          "type": "uint256"
        },
        {
          "indexed": false,
          "internalType": "uint256",
          "name": "mintTokens",
          "type": "uint256"
        }
      ],
      "name": "Mint",
      "type": "event"
    },
    {
      "anonymous": false,
      "inputs": [
        {
          "indexed": false,
          "internalType": "address",
          "name": "oldAdmin",
          "type": "address"
        },
        {
          "indexed": false,
          "internalType": "address",
          "name": "newAdmin",
          "type": "address"
        }
      ],
      "name": "NewAdmin",
      "type": "event"
    },
    {
      "anonymous": false,
      "inputs": [
        {
          "indexed": false,
          "internalType": "contract ComptrollerInterface",
          "name": "oldComptroller",
          "type": "address"
        },
        {
          "indexed": false,
          "internalType": "contract ComptrollerInterface",
          "name": "newComptroller",
          "type": "address"
        }
      ],
      "name": "NewComptroller",
      "type": "event"
    },
    {
      "anonymous": false,
      "inputs": [
        {
          "indexed": false,
          "internalType": "contract InterestRateModel",
          "name": "oldInterestRateModel",
          "type": "address"
        },
        {
          "indexed": false,
          "internalType": "contract InterestRateModel",
          "name": "newInterestRateModel",
          "type": "address"
        }
      ],
      "name": "NewMarketInterestRateModel",
      "type": "event"
    },
    {
      "anonymous": false,
      "inputs": [
        {
          "indexed": false,
          "internalType": "address",
          "name": "oldPendingAdmin",
          "type": "address"
        },
        {
          "indexed": false,
          "internalType": "address",
          "name": "newPendingAdmin",
          "type": "address"
        }
      ],
      "name": "NewPendingAdmin",
      "type": "event"
    },
    {
      "anonymous": false,
      "inputs": [
        {
          "indexed": false,
          "internalType": "uint256",
          "name": "oldReserveFactorMantissa",
          "type": "uint256"
        },
        {
          "indexed": false,
          "internalType": "uint256",
          "name": "newReserveFactorMantissa",
          "type": "uint256"
        }
      ],
      "name": "NewReserveFactor",
      "type": "event"
    },
    {
      "anonymous": false,
      "inputs": [
        {
          "indexed": false,
          "internalType": "address",
          "name": "redeemer",
          "type": "address"
        },
        {
          "indexed": false,
          "internalType": "uint256",
          "name": "redeemAmount",
          "type": "uint256"
        },
        {
          "indexed": false,
          "internalType": "uint256",
          "name": "redeemTokens",
          "type": "uint256"
        }
      ],
      "name": "Redeem",
      "type": "event"
    },
    {
      "anonymous": false,
      "inputs": [
        {
          "indexed": false,
          "internalType": "address",
          "name": "payer",
          "type": "address"
        },
        {
          "indexed": false,
          "internalType": "address",
          "name": "borrower",
          "type": "address"
        },
        {
          "indexed": false,
          "internalType": "uint256",
          "name": "repayAmount",
          "type": "uint256"
        },
        {
          "indexed": false,
          "internalType": "uint256",
          "name": "accountBorrows",
          "type": "uint256"
        },
        {
          "indexed": false,
          "internalType": "uint256",
          "name": "totalBorrows",
          "type": "uint256"
        }
      ],
      "name": "RepayBorrow",
      "type": "event"
    },
    {
      "anonymous": false,
      "inputs": [
        {
          "indexed": false,
          "internalType": "address",
          "name": "admin",
          "type": "address"
        },
        {
          "indexed": false,
          "internalType": "uint256",
          "name": "reduceAmount",
          "type": "uint256"
        },
        {
          "indexed": false,
          "internalType": "uint256",
          "name": "newTotalReserves",
          "type": "uint256"
        }
      ],
      "name": "ReservesReduced",
      "type": "event"
    },
    {
      "anonymous": false,
      "inputs": [
        {
          "indexed": true,
          "internalType": "address",
          "name": "from",
          "type": "address"
        },
        {
          "indexed": true,
          "internalType": "address",
          "name": "to",
          "type": "address"
        },
        {
          "indexed": false,
          "internalType": "uint256",
          "name": "amount",
          "type": "uint256"
        }
      ],
      "name": "Transfer",
      "type": "event"
    },
    {
      "payable": true,
      "stateMutability": "payable",
      "type": "fallback"
    },
    {
      "constant": false,
      "inputs": [],
      "name": "_acceptAdmin",
      "outputs": [
        {
          "internalType": "uint256",
          "name": "",
          "type": "uint256"
        }
      ],
      "payable": false,
      "stateMutability": "nonpayable",
      "type": "function"
    },
    {
      "constant": false,
      "inputs": [
        {
          "internalType": "uint256",
          "name": "reduceAmount",
          "type": "uint256"
        }
      ],
      "name": "_reduceReserves",
      "outputs": [
        {
          "internalType": "uint256",
          "name": "",
          "type": "uint256"
        }
      ],
      "payable": false,
      "stateMutability": "nonpayable",
      "type": "function"
    },
    {
      "constant": false,
      "inputs": [
        {
          "internalType": "contract ComptrollerInterface",
          "name": "newComptroller",
          "type": "address"
        }
      ],
      "name": "_setComptroller",
      "outputs": [
        {
          "internalType": "uint256",
          "name": "",
          "type": "uint256"
        }
      ],
      "payable": false,
      "stateMutability": "nonpayable",
      "type": "function"
    },
    {
      "constant": false,
      "inputs": [
        {
          "internalType": "contract InterestRateModel",
          "name": "newInterestRateModel",
          "type": "address"
        }
      ],
      "name": "_setInterestRateModel",
      "outputs": [
        {
          "internalType": "uint256",
          "name": "",
          "type": "uint256"
        }
      ],
      "payable": false,
      "stateMutability": "nonpayable",
      "type": "function"
    },
    {
      "constant": false,
      "inputs": [
        {
          "internalType": "address payable",
          "name": "newPendingAdmin",
          "type": "address"
        }
      ],
      "name": "_setPendingAdmin",
      "outputs": [
        {
          "internalType": "uint256",
          "name": "",
          "type": "uint256"
        }
      ],
      "payable": false,
      "stateMutability": "nonpayable",
      "type": "function"
    },
    {
      "constant": false,
      "inputs": [
        {
          "internalType": "uint256",
          "name": "newReserveFactorMantissa",
          "type": "uint256"
        }
      ],
      "name": "_setReserveFactor",
      "outputs": [
        {
          "internalType": "uint256",
          "name": "",
          "type": "uint256"
        }
      ],
      "payable": false,
      "stateMutability": "nonpayable",
      "type": "function"
    },
    {
      "constant": true,
      "inputs": [],
      "name": "accrualBlockNumber",
      "outputs": [
        {
          "internalType": "uint256",
          "name": "",
          "type": "uint256"
        }
      ],
      "payable": false,
      "stateMutability": "view",
      "type": "function"
    },
    {
      "constant": false,
      "inputs": [],
      "name": "accrueInterest",
      "outputs": [
        {
          "internalType": "uint256",
          "name": "",
          "type": "uint256"
        }
      ],
      "payable": false,
      "stateMutability": "nonpayable",
      "type": "function"
    },
    {
      "constant": true,
      "inputs": [],
      "name": "admin",
      "outputs": [
        {
          "internalType": "address payable",
          "name": "",
          "type": "address"
        }
      ],
      "payable": false,
      "stateMutability": "view",
      "type": "function"
    },
    {
      "constant": true,
      "inputs": [
        {
          "internalType": "address",
          "name": "owner",
          "type": "address"
        },
        {
          "internalType": "address",
          "name": "spender",
          "type": "address"
        }
      ],
      "name": "allowance",
      "outputs": [
        {
          "internalType": "uint256",
          "name": "",
          "type": "uint256"
        }
      ],
      "payable": false,
      "stateMutability": "view",
      "type": "function"
    },
    {
      "constant": false,
      "inputs": [
        {
          "internalType": "address",
          "name": "spender",
          "type": "address"
        },
        {
          "internalType": "uint256",
          "name": "amount",
          "type": "uint256"
        }
      ],
      "name": "approve",
      "outputs": [
        {
          "internalType": "bool",
          "name": "",
          "type": "bool"
        }
      ],
      "payable": false,
      "stateMutability": "nonpayable",
      "type": "function"
    },
    {
      "constant": true,
      "inputs": [
        {
          "internalType": "address",
          "name": "owner",
          "type": "address"
        }
      ],
      "name": "balanceOf",
      "outputs": [
        {
          "internalType": "uint256",
          "name": "",
          "type": "uint256"
        }
      ],
      "payable": false,
      "stateMutability": "view",
      "type": "function"
    },
    {
      "constant": false,
      "inputs": [
        {
          "internalType": "address",
          "name": "owner",
          "type": "address"
        }
      ],
      "name": "balanceOfUnderlying",
      "outputs": [
        {
          "internalType": "uint256",
          "name": "",
          "type": "uint256"
        }
      ],
      "payable": false,
      "stateMutability": "nonpayable",
      "type": "function"
    },
    {
      "constant": false,
      "inputs": [
        {
          "internalType": "address",
          "name": "account",
          "type": "address"
        }
      ],
      "name": "borrowBalanceCurrent",
      "outputs": [
        {
          "internalType": "uint256",
          "name": "",
          "type": "uint256"
        }
      ],
      "payable": false,
      "stateMutability": "nonpayable",
      "type": "function"
    },
    {
      "constant": true,
      "inputs": [
        {
          "internalType": "address",
          "name": "account",
          "type": "address"
        }
      ],
      "name": "borrowBalanceStored",
      "outputs": [
        {
          "internalType": "uint256",
          "name": "",
          "type": "uint256"
        }
      ],
      "payable": false,
      "stateMutability": "view",
      "type": "function"
    },
    {
      "constant": true,
      "inputs": [],
      "name": "borrowIndex",
      "outputs": [
        {
          "internalType": "uint256",
          "name": "",
          "type": "uint256"
        }
      ],
      "payable": false,
      "stateMutability": "view",
      "type": "function"
    },
    {
      "constant": true,
      "inputs": [],
      "name": "borrowRatePerBlock",
      "outputs": [
        {
          "internalType": "uint256",
          "name": "",
          "type": "uint256"
        }
      ],
      "payable": false,
      "stateMutability": "view",
      "type": "function"
    },
    {
      "constant": true,
      "inputs": [],
      "name": "comptroller",
      "outputs": [
        {
          "internalType": "contract ComptrollerInterface",
          "name": "",
          "type": "address"
        }
      ],
      "payable": false,
      "stateMutability": "view",
      "type": "function"
    },
    {
      "constant": true,
      "inputs": [],
      "name": "decimals",
      "outputs": [
        {
          "internalType": "uint256",
          "name": "",
          "type": "uint256"
        }
      ],
      "payable": false,
      "stateMutability": "view",
      "type": "function"
    },
    {
      "constant": false,
      "inputs": [],
      "name": "exchangeRateCurrent",
      "outputs": [
        {
          "internalType": "uint256",
          "name": "",
          "type": "uint256"
        }
      ],
      "payable": false,
      "stateMutability": "nonpayable",
      "type": "function"
    },
    {
      "constant": true,
      "inputs": [],
      "name": "exchangeRateStored",
      "outputs": [
        {
          "internalType": "uint256",
          "name": "",
          "type": "uint256"
        }
      ],
      "payable": false,
      "stateMutability": "view",
      "type": "function"
    },
    {
      "constant": true,
      "inputs": [
        {
          "internalType": "address",
          "name": "account",
          "type": "address"
        }
      ],
      "name": "getAccountSnapshot",
      "outputs": [
        {
          "internalType": "uint256",
          "name": "",
          "type": "uint256"
        },
        {
          "internalType": "uint256",
          "name": "",
          "type": "uint256"
        },
        {
          "internalType": "uint256",
          "name": "",
          "type": "uint256"
        },
        {
          "internalType": "uint256",
          "name": "",
          "type": "uint256"
        }
      ],
      "payable": false,
      "stateMutability": "view",
      "type": "function"
    },
    {
      "constant": true,
      "inputs": [],
      "name": "getCash",
      "outputs": [
        {
          "internalType": "uint256",
          "name": "",
          "type": "uint256"
        }
      ],
      "payable": false,
      "stateMutability": "view",
      "type": "function"
    },
    {
      "constant": true,
      "inputs": [],
      "name": "initialExchangeRateMantissa",
      "outputs": [
        {
          "internalType": "uint256",
          "name": "",
          "type": "uint256"
        }
      ],
      "payable": false,
      "stateMutability": "view",
      "type": "function"
    },
    {
      "constant": true,
      "inputs": [],
      "name": "interestRateModel",
      "outputs": [
        {
          "internalType": "contract InterestRateModel",
          "name": "",
          "type": "address"
        }
      ],
      "payable": false,
      "stateMutability": "view",
      "type": "function"
    },
    {
      "constant": true,
      "inputs": [],
      "name": "isCToken",
      "outputs": [
        {
          "internalType": "bool",
          "name": "",
          "type": "bool"
        }
      ],
      "payable": false,
      "stateMutability": "view",
      "type": "function"
    },
    {
      "constant": true,
      "inputs": [],
      "name": "name",
      "outputs": [
        {
          "internalType": "string",
          "name": "",
          "type": "string"
        }
      ],
      "payable": false,
      "stateMutability": "view",
      "type": "function"
    },
    {
      "constant": true,
      "inputs": [],
      "name": "pendingAdmin",
      "outputs": [
        {
          "internalType": "address payable",
          "name": "",
          "type": "address"
        }
      ],
      "payable": false,
      "stateMutability": "view",
      "type": "function"
    },
    {
      "constant": true,
      "inputs": [],
      "name": "reserveFactorMantissa",
      "outputs": [
        {
          "internalType": "uint256",
          "name": "",
          "type": "uint256"
        }
      ],
      "payable": false,
      "stateMutability": "view",
      "type": "function"
    },
    {
      "constant": false,
      "inputs": [
        {
          "internalType": "address",
          "name": "liquidator",
          "type": "address"
        },
        {
          "internalType": "address",
          "name": "borrower",
          "type": "address"
        },
        {
          "internalType": "uint256",
          "name": "seizeTokens",
          "type": "uint256"
        }
      ],
      "name": "seize",
      "outputs": [
        {
          "internalType": "uint256",
          "name": "",
          "type": "uint256"
        }
      ],
      "payable": false,
      "stateMutability": "nonpayable",
      "type": "function"
    },
    {
      "constant": true,
      "inputs": [],
      "name": "supplyRatePerBlock",
      "outputs": [
        {
          "internalType": "uint256",
          "name": "",
          "type": "uint256"
        }
      ],
      "payable": false,
      "stateMutability": "view",
      "type": "function"
    },
    {
      "constant": true,
      "inputs": [],
      "name": "symbol",
      "outputs": [
        {
          "internalType": "string",
          "name": "",
          "type": "string"
        }
      ],
      "payable": false,
      "stateMutability": "view",
      "type": "function"
    },
    {
      "constant": true,
      "inputs": [],
      "name": "totalBorrows",
      "outputs": [
        {
          "internalType": "uint256",
          "name": "",
          "type": "uint256"
        }
      ],
      "payable": false,
      "stateMutability": "view",
      "type": "function"
    },
    {
      "constant": false,
      "inputs": [],
      "name": "totalBorrowsCurrent",
      "outputs": [
        {
          "internalType": "uint256",
          "name": "",
          "type": "uint256"
        }
      ],
      "payable": false,
      "stateMutability": "nonpayable",
      "type": "function"
    },
    {
      "constant": true,
      "inputs": [],
      "name": "totalReserves",
      "outputs": [
        {
          "internalType": "uint256",
          "name": "",
          "type": "uint256"
        }
      ],
      "payable": false,
      "stateMutability": "view",
      "type": "function"
    },
    {
      "constant": true,
      "inputs": [],
      "name": "totalSupply",
      "outputs": [
        {
          "internalType": "uint256",
          "name": "",
          "type": "uint256"
        }
      ],
      "payable": false,
      "stateMutability": "view",
      "type": "function"
    },
    {
      "constant": false,
      "inputs": [
        {
          "internalType": "address",
          "name": "dst",
          "type": "address"
        },
        {
          "internalType": "uint256",
          "name": "amount",
          "type": "uint256"
        }
      ],
      "name": "transfer",
      "outputs": [
        {
          "internalType": "bool",
          "name": "",
          "type": "bool"
        }
      ],
      "payable": false,
      "stateMutability": "nonpayable",
      "type": "function"
    },
    {
      "constant": false,
      "inputs": [
        {
          "internalType": "address",
          "name": "src",
          "type": "address"
        },
        {
          "internalType": "address",
          "name": "dst",
          "type": "address"
        },
        {
          "internalType": "uint256",
          "name": "amount",
          "type": "uint256"
        }
      ],
      "name": "transferFrom",
      "outputs": [
        {
          "internalType": "bool",
          "name": "",
          "type": "bool"
        }
      ],
      "payable": false,
      "stateMutability": "nonpayable",
      "type": "function"
    },
    {
      "constant": false,
      "inputs": [],
      "name": "mint",
      "outputs": [],
      "payable": true,
      "stateMutability": "payable",
      "type": "function"
    },
    {
      "constant": false,
      "inputs": [
        {
          "internalType": "uint256",
          "name": "redeemTokens",
          "type": "uint256"
        }
      ],
      "name": "redeem",
      "outputs": [
        {
          "internalType": "uint256",
          "name": "",
          "type": "uint256"
        }
      ],
      "payable": false,
      "stateMutability": "nonpayable",
      "type": "function"
    },
    {
      "constant": false,
      "inputs": [
        {
          "internalType": "uint256",
          "name": "redeemAmount",
          "type": "uint256"
        }
      ],
      "name": "redeemUnderlying",
      "outputs": [
        {
          "internalType": "uint256",
          "name": "",
          "type": "uint256"
        }
      ],
      "payable": false,
      "stateMutability": "nonpayable",
      "type": "function"
    },
    {
      "constant": false,
      "inputs": [
        {
          "internalType": "uint256",
          "name": "borrowAmount",
          "type": "uint256"
        }
      ],
      "name": "borrow",
      "outputs": [
        {
          "internalType": "uint256",
          "name": "",
          "type": "uint256"
        }
      ],
      "payable": false,
      "stateMutability": "nonpayable",
      "type": "function"
    },
    {
      "constant": false,
      "inputs": [],
      "name": "repayBorrow",
      "outputs": [],
      "payable": true,
      "stateMutability": "payable",
      "type": "function"
    },
    {
      "constant": false,
      "inputs": [
        {
          "internalType": "address",
          "name": "borrower",
          "type": "address"
        }
      ],
      "name": "repayBorrowBehalf",
      "outputs": [],
      "payable": true,
      "stateMutability": "payable",
      "type": "function"
    },
    {
      "constant": false,
      "inputs": [
        {
          "internalType": "address",
          "name": "borrower",
          "type": "address"
        },
        {
          "internalType": "contract CToken",
          "name": "cTokenCollateral",
          "type": "address"
        }
      ],
      "name": "liquidateBorrow",
      "outputs": [],
      "payable": true,
      "stateMutability": "payable",
      "type": "function"
    }
  ],
  "bytecode": "0x60806040523480156200001157600080fd5b5060405162008d4338038062008d43833981810160405260c08110156200003757600080fd5b81019080805190602001909291908051906020019092919080519060200190929190805160405193929190846401000000008211156200007657600080fd5b838201915060208201858111156200008d57600080fd5b8251866001820283011164010000000082111715620000ab57600080fd5b8083526020830192505050908051906020019080838360005b83811015620000e1578082015181840152602081019050620000c4565b50505050905090810190601f1680156200010f5780820380516001836020036101000a031916815260200191505b50604052602001805160405193929190846401000000008211156200013357600080fd5b838201915060208201858111156200014a57600080fd5b82518660018202830111640100000000821117156200016857600080fd5b8083526020830192505050908051906020019080838360005b838110156200019e57808201518184015260208101905062000181565b50505050905090810190601f168015620001cc5780820380516001836020036101000a031916815260200191505b5060405260200180519060200190929190505050858585858585600160008190555033600460006101000a81548173ffffffffffffffffffffffffffffffffffffffff021916908373ffffffffffffffffffffffffffffffffffffffff1602179055508360088190555060006008541162000293576040517f08c379a000000000000000000000000000000000000000000000000000000000815260040180806020018281038252603081526020018062008d136030913960400191505060405180910390fd5b6000620002a6876200041660201b60201c565b905060006010811115620002b657fe5b81146200032b576040517f08c379a000000000000000000000000000000000000000000000000000000000815260040180806020018281038252601a8152602001807f53657474696e6720636f6d7074726f6c6c6572206661696c656400000000000081525060200191505060405180910390fd5b6200033b6200069660201b60201c565b600a81905550670de0b6b3a7640000600b8190555062000361866200069e60201b60201c565b9050600060108111156200037157fe5b8114620003ca576040517f08c379a000000000000000000000000000000000000000000000000000000000815260040180806020018281038252602281526020018062008cf16022913960400191505060405180910390fd5b8360019080519060200190620003e2929190620009cc565b508260029080519060200190620003fb929190620009cc565b50816003819055505050505050505050505050505062000a7b565b6000600460009054906101000a900473ffffffffffffffffffffffffffffffffffffffff1673ffffffffffffffffffffffffffffffffffffffff163373ffffffffffffffffffffffffffffffffffffffff16146200048a57620004826001603f6200095560201b60201c565b905062000691565b6000600660009054906101000a900473ffffffffffffffffffffffffffffffffffffffff1690508273ffffffffffffffffffffffffffffffffffffffff16627e3dd26040518163ffffffff1660e01b815260040160206040518083038186803b158015620004f757600080fd5b505afa1580156200050c573d6000803e3d6000fd5b505050506040513d60208110156200052357600080fd5b8101908080519060200190929190505050620005a7576040517f08c379a000000000000000000000000000000000000000000000000000000000815260040180806020018281038252601c8152602001807f6d61726b6572206d6574686f642072657475726e65642066616c73650000000081525060200191505060405180910390fd5b82600660006101000a81548173ffffffffffffffffffffffffffffffffffffffff021916908373ffffffffffffffffffffffffffffffffffffffff1602179055507f7ac369dbd14fa5ea3f473ed67cc9d598964a77501540ba6751eb0b3decf5870d8184604051808373ffffffffffffffffffffffffffffffffffffffff1673ffffffffffffffffffffffffffffffffffffffff1681526020018273ffffffffffffffffffffffffffffffffffffffff1673ffffffffffffffffffffffffffffffffffffffff1681526020019250505060405180910390a1600060108111156200068d57fe5b9150505b919050565b600043905090565b600080600460009054906101000a900473ffffffffffffffffffffffffffffffffffffffff1673ffffffffffffffffffffffffffffffffffffffff163373ffffffffffffffffffffffffffffffffffffffff161462000714576200070b600160426200095560201b60201c565b91505062000950565b620007246200069660201b60201c565b600a54146200074a5762000741600a60416200095560201b60201c565b91505062000950565b600760009054906101000a900473ffffffffffffffffffffffffffffffffffffffff1690508273ffffffffffffffffffffffffffffffffffffffff16632191f92a6040518163ffffffff1660e01b815260040160206040518083038186803b158015620007b657600080fd5b505afa158015620007cb573d6000803e3d6000fd5b505050506040513d6020811015620007e257600080fd5b810190808051906020019092919050505062000866576040517f08c379a000000000000000000000000000000000000000000000000000000000815260040180806020018281038252601c8152602001807f6d61726b6572206d6574686f642072657475726e65642066616c73650000000081525060200191505060405180910390fd5b82600760006101000a81548173ffffffffffffffffffffffffffffffffffffffff021916908373ffffffffffffffffffffffffffffffffffffffff1602179055507fedffc32e068c7c95dfd4bdfd5c4d939a084d6b11c4199eac8436ed234d72f9268184604051808373ffffffffffffffffffffffffffffffffffffffff1673ffffffffffffffffffffffffffffffffffffffff1681526020018273ffffffffffffffffffffffffffffffffffffffff1673ffffffffffffffffffffffffffffffffffffffff1681526020019250505060405180910390a1600060108111156200094c57fe5b9150505b919050565b60007f45b96fe442630264581b197e84bbada861235052c5a1aadfff9ea4e40a969aa08360108111156200098557fe5b83604d8111156200099257fe5b600060405180848152602001838152602001828152602001935050505060405180910390a1826010811115620009c457fe5b905092915050565b828054600181600116156101000203166002900490600052602060002090601f016020900481019282601f1062000a0f57805160ff191683800117855562000a40565b8280016001018555821562000a40579182015b8281111562000a3f57825182559160200191906001019062000a22565b5b50905062000a4f919062000a53565b5090565b62000a7891905b8082111562000a7457600081600090555060010162000a5a565b5090565b90565b6182668062000a8b6000396000f3fe6080604052600436106102725760003560e01c80638f840ddd1161014f578063c37f68e2116100c1578063f2b3abbd1161007a578063f2b3abbd14610e6b578063f3fdb15a14610ed0578063f851a44014610f27578063f8f9da2814610f7e578063fca7820b14610fa9578063fe9c44ae14610ff857610272565b8063c37f68e214610c5f578063c5ebeaec14610cd9578063db006a7514610d28578063dd62ed3e14610d77578063e597461914610dfc578063e9c714f214610e4057610272565b8063aa5af0fd11610113578063aa5af0fd14610a86578063aae40a2a14610ab1578063ae9d70b014610b15578063b2a02ff114610b40578063b71d1a0c14610bcf578063bd6d894d14610c3457610272565b80638f840ddd146108c857806395d89b41146108f357806395dd919314610983578063a6afed95146109e8578063a9059cbb14610a1357610272565b80633b1d21a2116101e8578063601a0bf1116101ac578063601a0bf114610744578063675d972c146107935780636c540baf146107be57806370a08231146107e957806373acee981461084e578063852a12e31461087957610272565b80633b1d21a2146106285780634576b5db1461065357806347bd3718146106b85780634e4d9fea146106e35780635fe3b567146106ed57610272565b806318160ddd1161023a57806318160ddd14610458578063182df0f51461048357806323b872dd146104ae5780632678224714610541578063313ce567146105985780633af9e669146105c357610272565b806306fdde03146102bb578063095ea7b31461034b5780631249c58b146103be578063173b9904146103c857806317bfdfbc146103f3575b6102b961027e34611027565b6040518060400160405280600b81526020017f6d696e74206661696c6564000000000000000000000000000000000000000000815250611107565b005b3480156102c757600080fd5b506102d06113ef565b6040518080602001828103825283818151815260200191508051906020019080838360005b838110156103105780820151818401526020810190506102f5565b50505050905090810190601f16801561033d5780820380516001836020036101000a031916815260200191505b509250505060405180910390f35b34801561035757600080fd5b506103a46004803603604081101561036e57600080fd5b81019080803573ffffffffffffffffffffffffffffffffffffffff1690602001909291908035906020019092919050505061148d565b604051808215151515815260200191505060405180910390f35b6103c6611584565b005b3480156103d457600080fd5b506103dd6115cd565b6040518082815260200191505060405180910390f35b3480156103ff57600080fd5b506104426004803603602081101561041657600080fd5b81019080803573ffffffffffffffffffffffffffffffffffffffff1690602001909291905050506115d3565b6040518082815260200191505060405180910390f35b34801561046457600080fd5b5061046d6116fb565b6040518082815260200191505060405180910390f35b34801561048f57600080fd5b50610498611701565b6040518082815260200191505060405180910390f35b3480156104ba57600080fd5b50610527600480360360608110156104d157600080fd5b81019080803573ffffffffffffffffffffffffffffffffffffffff169060200190929190803573ffffffffffffffffffffffffffffffffffffffff16906020019092919080359060200190929190505050611789565b604051808215151515815260200191505060405180910390f35b34801561054d57600080fd5b5061055661183c565b604051808273ffffffffffffffffffffffffffffffffffffffff1673ffffffffffffffffffffffffffffffffffffffff16815260200191505060405180910390f35b3480156105a457600080fd5b506105ad611862565b6040518082815260200191505060405180910390f35b3480156105cf57600080fd5b50610612600480360360208110156105e657600080fd5b81019080803573ffffffffffffffffffffffffffffffffffffffff169060200190929190505050611868565b6040518082815260200191505060405180910390f35b34801561063457600080fd5b5061063d611908565b6040518082815260200191505060405180910390f35b34801561065f57600080fd5b506106a26004803603602081101561067657600080fd5b81019080803573ffffffffffffffffffffffffffffffffffffffff169060200190929190505050611917565b6040518082815260200191505060405180910390f35b3480156106c457600080fd5b506106cd611b88565b6040518082815260200191505060405180910390f35b6106eb611b8e565b005b3480156106f957600080fd5b50610702611bd7565b604051808273ffffffffffffffffffffffffffffffffffffffff1673ffffffffffffffffffffffffffffffffffffffff16815260200191505060405180910390f35b34801561075057600080fd5b5061077d6004803603602081101561076757600080fd5b8101908080359060200190929190505050611bfd565b6040518082815260200191505060405180910390f35b34801561079f57600080fd5b506107a8611cdc565b6040518082815260200191505060405180910390f35b3480156107ca57600080fd5b506107d3611ce2565b6040518082815260200191505060405180910390f35b3480156107f557600080fd5b506108386004803603602081101561080c57600080fd5b81019080803573ffffffffffffffffffffffffffffffffffffffff169060200190929190505050611ce8565b6040518082815260200191505060405180910390f35b34801561085a57600080fd5b50610863611d31565b6040518082815260200191505060405180910390f35b34801561088557600080fd5b506108b26004803603602081101561089c57600080fd5b8101908080359060200190929190505050611e51565b6040518082815260200191505060405180910390f35b3480156108d457600080fd5b506108dd611e63565b6040518082815260200191505060405180910390f35b3480156108ff57600080fd5b50610908611e69565b6040518080602001828103825283818151815260200191508051906020019080838360005b8381101561094857808201518184015260208101905061092d565b50505050905090810190601f1680156109755780820380516001836020036101000a031916815260200191505b509250505060405180910390f35b34801561098f57600080fd5b506109d2600480360360208110156109a657600080fd5b81019080803573ffffffffffffffffffffffffffffffffffffffff169060200190929190505050611f07565b6040518082815260200191505060405180910390f35b3480156109f457600080fd5b506109fd611f92565b6040518082815260200191505060405180910390f35b348015610a1f57600080fd5b50610a6c60048036036040811015610a3657600080fd5b81019080803573ffffffffffffffffffffffffffffffffffffffff169060200190929190803590602001909291905050506124c5565b604051808215151515815260200191505060405180910390f35b348015610a9257600080fd5b50610a9b612577565b6040518082815260200191505060405180910390f35b610b1360048036036040811015610ac757600080fd5b81019080803573ffffffffffffffffffffffffffffffffffffffff169060200190929190803573ffffffffffffffffffffffffffffffffffffffff16906020019092919050505061257d565b005b348015610b2157600080fd5b50610b2a6125ca565b6040518082815260200191505060405180910390f35b348015610b4c57600080fd5b50610bb960048036036060811015610b6357600080fd5b81019080803573ffffffffffffffffffffffffffffffffffffffff169060200190929190803573ffffffffffffffffffffffffffffffffffffffff16906020019092919080359060200190929190505050612981565b6040518082815260200191505060405180910390f35b348015610bdb57600080fd5b50610c1e60048036036020811015610bf257600080fd5b81019080803573ffffffffffffffffffffffffffffffffffffffff169060200190929190505050612f88565b6040518082815260200191505060405180910390f35b348015610c4057600080fd5b50610c49613107565b6040518082815260200191505060405180910390f35b348015610c6b57600080fd5b50610cae60048036036020811015610c8257600080fd5b81019080803573ffffffffffffffffffffffffffffffffffffffff16906020019092919050505061322c565b6040518085815260200184815260200183815260200182815260200194505050505060405180910390f35b348015610ce557600080fd5b50610d1260048036036020811015610cfc57600080fd5b8101908080359060200190929190505050613354565b6040518082815260200191505060405180910390f35b348015610d3457600080fd5b50610d6160048036036020811015610d4b57600080fd5b8101908080359060200190929190505050613366565b6040518082815260200191505060405180910390f35b348015610d8357600080fd5b50610de660048036036040811015610d9a57600080fd5b81019080803573ffffffffffffffffffffffffffffffffffffffff169060200190929190803573ffffffffffffffffffffffffffffffffffffffff169060200190929190505050613378565b6040518082815260200191505060405180910390f35b610e3e60048036036020811015610e1257600080fd5b81019080803573ffffffffffffffffffffffffffffffffffffffff1690602001909291905050506133ff565b005b348015610e4c57600080fd5b50610e5561344a565b6040518082815260200191505060405180910390f35b348015610e7757600080fd5b50610eba60048036036020811015610e8e57600080fd5b81019080803573ffffffffffffffffffffffffffffffffffffffff169060200190929190505050613767565b6040518082815260200191505060405180910390f35b348015610edc57600080fd5b50610ee56137b7565b604051808273ffffffffffffffffffffffffffffffffffffffff1673ffffffffffffffffffffffffffffffffffffffff16815260200191505060405180910390f35b348015610f3357600080fd5b50610f3c6137dd565b604051808273ffffffffffffffffffffffffffffffffffffffff1673ffffffffffffffffffffffffffffffffffffffff16815260200191505060405180910390f35b348015610f8a57600080fd5b50610f93613803565b6040518082815260200191505060405180910390f35b348015610fb557600080fd5b50610fe260048036036020811015610fcc57600080fd5b810190808035906020019092919050505061393f565b6040518082815260200191505060405180910390f35b34801561100457600080fd5b5061100d613a1e565b604051808215151515815260200191505060405180910390f35b6000600160008082825401925050819055506000805490506000611049611f92565b90506000601081111561105857fe5b811461107c5761107481601081111561106d57fe5b601e613a23565b92505061108a565b6110863385613a97565b9250505b6000548114611101576040517f08c379a000000000000000000000000000000000000000000000000000000000815260040180806020018281038252600a8152602001807f72652d656e74657265640000000000000000000000000000000000000000000081525060200191505060405180910390fd5b50919050565b6000601081111561111457fe5b821415611120576113eb565b606060058251016040519080825280601f01601f1916602001820160405280156111595781602001600182028038833980820191505090505b50905060008090505b82518110156111ca5782818151811061117757fe5b602001015160f81c60f81b82828151811061118e57fe5b60200101907effffffffffffffffffffffffffffffffffffffffffffffffffffffffffffff1916908160001a9053508080600101915050611162565b602060f81b8260008301815181106111de57fe5b60200101907effffffffffffffffffffffffffffffffffffffffffffffffffffffffffffff1916908160001a905350602860f81b82600183018151811061122157fe5b60200101907effffffffffffffffffffffffffffffffffffffffffffffffffffffffffffff1916908160001a905350600a848161125a57fe5b0460300160f81b82600283018151811061127057fe5b60200101907effffffffffffffffffffffffffffffffffffffffffffffffffffffffffffff1916908160001a905350600a84816112a957fe5b0660300160f81b8260038301815181106112bf57fe5b60200101907effffffffffffffffffffffffffffffffffffffffffffffffffffffffffffff1916908160001a905350602960f81b82600483018151811061130257fe5b60200101907effffffffffffffffffffffffffffffffffffffffffffffffffffffffffffff1916908160001a9053506000601081111561133e57fe5b841482906113e7576040517f08c379a00000000000000000000000000000000000000000000000000000000081526004018080602001828103825283818151815260200191508051906020019080838360005b838110156113ac578082015181840152602081019050611391565b50505050905090810190601f1680156113d95780820380516001836020036101000a031916815260200191505b509250505060405180910390fd5b5050505b5050565b60018054600181600116156101000203166002900480601f0160208091040260200160405190810160405280929190818152602001828054600181600116156101000203166002900480156114855780601f1061145a57610100808354040283529160200191611485565b820191906000526020600020905b81548152906001019060200180831161146857829003601f168201915b505050505081565b60008033905082601060008373ffffffffffffffffffffffffffffffffffffffff1673ffffffffffffffffffffffffffffffffffffffff16815260200190815260200160002060008673ffffffffffffffffffffffffffffffffffffffff1673ffffffffffffffffffffffffffffffffffffffff168152602001908152602001600020819055508373ffffffffffffffffffffffffffffffffffffffff168173ffffffffffffffffffffffffffffffffffffffff167f8c5be1e5ebec7d5bd14f71427d1e84f3dd0314c0f7b2291e5b200ac8c7c3b925856040518082815260200191505060405180910390a3600191505092915050565b6115cb61159034611027565b6040518060400160405280600b81526020017f6d696e74206661696c6564000000000000000000000000000000000000000000815250611107565b565b60095481565b600060016000808282540192505081905550600080549050600060108111156115f857fe5b611600611f92565b14611673576040517f08c379a00000000000000000000000000000000000000000000000000000000081526004018080602001828103825260168152602001807f61636372756520696e746572657374206661696c65640000000000000000000081525060200191505060405180910390fd5b61167c83611f07565b915060005481146116f5576040517f08c379a000000000000000000000000000000000000000000000000000000000815260040180806020018281038252600a8152602001807f72652d656e74657265640000000000000000000000000000000000000000000081525060200191505060405180910390fd5b50919050565b600e5481565b600080600061170e614150565b915091506000600381111561171f57fe5b82600381111561172b57fe5b14611781576040517f08c379a00000000000000000000000000000000000000000000000000000000081526004018080602001828103825260358152602001806181a56035913960400191505060405180910390fd5b809250505090565b600060016000808282540192505081905550600080549050600060108111156117ae57fe5b6117ba33878787614225565b1491506000548114611834576040517f08c379a000000000000000000000000000000000000000000000000000000000815260040180806020018281038252600a8152602001807f72652d656e74657265640000000000000000000000000000000000000000000081525060200191505060405180910390fd5b509392505050565b600560009054906101000a900473ffffffffffffffffffffffffffffffffffffffff1681565b60035481565b6000611872617e52565b6040518060200160405280611885613107565b81525090506000806118d683600f60008873ffffffffffffffffffffffffffffffffffffffff1673ffffffffffffffffffffffffffffffffffffffff168152602001908152602001600020546148f8565b91509150600060038111156118e757fe5b8260038111156118f357fe5b146118fd57600080fd5b809350505050919050565b600061191261495b565b905090565b6000600460009054906101000a900473ffffffffffffffffffffffffffffffffffffffff1673ffffffffffffffffffffffffffffffffffffffff163373ffffffffffffffffffffffffffffffffffffffff16146119815761197a6001603f613a23565b9050611b83565b6000600660009054906101000a900473ffffffffffffffffffffffffffffffffffffffff1690508273ffffffffffffffffffffffffffffffffffffffff16627e3dd26040518163ffffffff1660e01b815260040160206040518083038186803b1580156119ed57600080fd5b505afa158015611a01573d6000803e3d6000fd5b505050506040513d6020811015611a1757600080fd5b8101908080519060200190929190505050611a9a576040517f08c379a000000000000000000000000000000000000000000000000000000000815260040180806020018281038252601c8152602001807f6d61726b6572206d6574686f642072657475726e65642066616c73650000000081525060200191505060405180910390fd5b82600660006101000a81548173ffffffffffffffffffffffffffffffffffffffff021916908373ffffffffffffffffffffffffffffffffffffffff1602179055507f7ac369dbd14fa5ea3f473ed67cc9d598964a77501540ba6751eb0b3decf5870d8184604051808373ffffffffffffffffffffffffffffffffffffffff1673ffffffffffffffffffffffffffffffffffffffff1681526020018273ffffffffffffffffffffffffffffffffffffffff1673ffffffffffffffffffffffffffffffffffffffff1681526020019250505060405180910390a160006010811115611b7f57fe5b9150505b919050565b600c5481565b611bd5611b9a346149b0565b6040518060400160405280601281526020017f7265706179426f72726f77206661696c65640000000000000000000000000000815250611107565b565b600660009054906101000a900473ffffffffffffffffffffffffffffffffffffffff1681565b6000600160008082825401925050819055506000805490506000611c1f611f92565b905060006010811115611c2e57fe5b8114611c5257611c4a816010811115611c4357fe5b6030613a23565b925050611c5f565b611c5b84614a91565b9250505b6000548114611cd6576040517f08c379a000000000000000000000000000000000000000000000000000000000815260040180806020018281038252600a8152602001807f72652d656e74657265640000000000000000000000000000000000000000000081525060200191505060405180910390fd5b50919050565b60085481565b600a5481565b6000600f60008373ffffffffffffffffffffffffffffffffffffffff1673ffffffffffffffffffffffffffffffffffffffff168152602001908152602001600020549050919050565b60006001600080828254019250508190555060008054905060006010811115611d5657fe5b611d5e611f92565b14611dd1576040517f08c379a00000000000000000000000000000000000000000000000000000000081526004018080602001828103825260168152602001807f61636372756520696e746572657374206661696c65640000000000000000000081525060200191505060405180910390fd5b600c5491506000548114611e4d576040517f08c379a000000000000000000000000000000000000000000000000000000000815260040180806020018281038252600a8152602001807f72652d656e74657265640000000000000000000000000000000000000000000081525060200191505060405180910390fd5b5090565b6000611e5c82614d1a565b9050919050565b600d5481565b60028054600181600116156101000203166002900480601f016020809104026020016040519081016040528092919081815260200182805460018160011615610100020316600290048015611eff5780601f10611ed457610100808354040283529160200191611eff565b820191906000526020600020905b815481529060010190602001808311611ee257829003601f168201915b505050505081565b6000806000611f1584614dfc565b9150915060006003811115611f2657fe5b826003811115611f3257fe5b14611f88576040517f08c379a00000000000000000000000000000000000000000000000000000000081526004018080602001828103825260378152602001806180996037913960400191505060405180910390fd5b8092505050919050565b6000611f9c617e65565b600760009054906101000a900473ffffffffffffffffffffffffffffffffffffffff1673ffffffffffffffffffffffffffffffffffffffff166315f24053611fe261495b565b600c54600d546040518463ffffffff1660e01b8152600401808481526020018381526020018281526020019350505050604080518083038186803b15801561202957600080fd5b505afa15801561203d573d6000803e3d6000fd5b505050506040513d604081101561205357600080fd5b8101908080519060200190929190805190602001909291905050508260200183604001828152508281525050506601c6bf5263400081604001511115612101576040517f08c379a000000000000000000000000000000000000000000000000000000000815260040180806020018281038252601c8152602001807f626f72726f772072617465206973206162737572646c7920686967680000000081525060200191505060405180910390fd5b60008160200151146121265761211e600560028360200151614f07565b9150506124c2565b61212e614f7b565b8160600181815250506121478160600151600a54614f83565b82600001836080018281525082600381111561215f57fe5b600381111561216a57fe5b81525050506000600381111561217c57fe5b8160000151600381111561218c57fe5b1461219357fe5b6121b3604051806020016040528083604001518152508260800151614fae565b809050826000018360a0018290528260038111156121cd57fe5b60038111156121d857fe5b8152505050600060038111156121ea57fe5b816000015160038111156121fa57fe5b146122235761221b600960068360000151600381111561221657fe5b614f07565b9150506124c2565b6122338160a00151600c546148f8565b826000018360c0018281525082600381111561224b57fe5b600381111561225657fe5b81525050506000600381111561226857fe5b8160000151600381111561227857fe5b146122a157612299600960018360000151600381111561229457fe5b614f07565b9150506124c2565b6122b18160c00151600c5461502c565b826000018360e001828152508260038111156122c957fe5b60038111156122d457fe5b8152505050600060038111156122e657fe5b816000015160038111156122f657fe5b1461231f57612317600960048360000151600381111561231257fe5b614f07565b9150506124c2565b61234060405180602001604052806009548152508260c00151600d5461505e565b8260000183610100018281525082600381111561235957fe5b600381111561236457fe5b81525050506000600381111561237657fe5b8160000151600381111561238657fe5b146123af576123a760096005836000015160038111156123a257fe5b614f07565b9150506124c2565b6123c28160a00151600b54600b5461505e565b826000018361012001828152508260038111156123db57fe5b60038111156123e657fe5b8152505050600060038111156123f857fe5b8160000151600381111561240857fe5b1461243157612429600960038360000151600381111561242457fe5b614f07565b9150506124c2565b8060600151600a81905550806101200151600b819055508060e00151600c81905550806101000151600d819055507f875352fb3fadeb8c0be7cbbe8ff761b308fa7033470cd0287f02f3436fd76cb98160c00151826101200151600c5460405180848152602001838152602001828152602001935050505060405180910390a1600060108111156124be57fe5b9150505b90565b600060016000808282540192505081905550600080549050600060108111156124ea57fe5b6124f633338787614225565b1491506000548114612570576040517f08c379a000000000000000000000000000000000000000000000000000000000815260040180806020018281038252600a8152602001807f72652d656e74657265640000000000000000000000000000000000000000000081525060200191505060405180910390fd5b5092915050565b600b5481565b6125c661258b8334846150c9565b6040518060400160405280601681526020017f6c6971756964617465426f72726f77206661696c656400000000000000000000815250611107565b5050565b6000806125d5611701565b9050600080600760009054906101000a900473ffffffffffffffffffffffffffffffffffffffff1673ffffffffffffffffffffffffffffffffffffffff166315f2405361262061495b565b600c54600d546040518463ffffffff1660e01b8152600401808481526020018381526020018281526020019350505050604080518083038186803b15801561266757600080fd5b505afa15801561267b573d6000803e3d6000fd5b505050506040513d604081101561269157600080fd5b8101908080519060200190929190805190602001909291905050509150915060008214612709576040517f08c379a00000000000000000000000000000000000000000000000000000000081526004018080602001828103825260318152602001806181386031913960400191505060405180910390fd5b6000612713617e52565b61272d604051806020016040528087815250600e54614fae565b915091506000600381111561273e57fe5b82600381111561274a57fe5b146127a0576040517f08c379a00000000000000000000000000000000000000000000000000000000081526004018080602001828103825260318152602001806180d06031913960400191505060405180910390fd5b60006127aa617e52565b6127b6600c5484615263565b91509150600060038111156127c757fe5b8260038111156127d357fe5b14612829576040517f08c379a00000000000000000000000000000000000000000000000000000000081526004018080602001828103825260318152602001806180146031913960400191505060405180910390fd5b6000612833617e52565b6128636040518060200160405280670de0b6b3a764000081525060405180602001604052806009548152506152df565b915091506000600381111561287457fe5b82600381111561288057fe5b146128d6576040517f08c379a000000000000000000000000000000000000000000000000000000000815260040180806020018281038252603c815260200180618169603c913960400191505060405180910390fd5b60006128e0617e52565b6128f960405180602001604052808b8152508487615322565b915091506000600381111561290a57fe5b82600381111561291657fe5b1461296c576040517f08c379a00000000000000000000000000000000000000000000000000000000081526004018080602001828103825260318152602001806180686031913960400191505060405180910390fd5b80600001519b50505050505050505050505090565b6000600160008082825401925050819055506000805490506000600660009054906101000a900473ffffffffffffffffffffffffffffffffffffffff1673ffffffffffffffffffffffffffffffffffffffff1663d02f735130338989896040518663ffffffff1660e01b8152600401808673ffffffffffffffffffffffffffffffffffffffff1673ffffffffffffffffffffffffffffffffffffffff1681526020018573ffffffffffffffffffffffffffffffffffffffff1673ffffffffffffffffffffffffffffffffffffffff1681526020018473ffffffffffffffffffffffffffffffffffffffff1673ffffffffffffffffffffffffffffffffffffffff1681526020018373ffffffffffffffffffffffffffffffffffffffff1673ffffffffffffffffffffffffffffffffffffffff16815260200182815260200195505050505050602060405180830381600087803b158015612ae057600080fd5b505af1158015612af4573d6000803e3d6000fd5b505050506040513d6020811015612b0a57600080fd5b8101908080519060200190929190505050905060008114612b3a57612b326003601b83614f07565b925050612f09565b8573ffffffffffffffffffffffffffffffffffffffff168573ffffffffffffffffffffffffffffffffffffffff161415612b8257612b7a6006601c613a23565b925050612f09565b6000806000612bd0600f60008a73ffffffffffffffffffffffffffffffffffffffff1673ffffffffffffffffffffffffffffffffffffffff1681526020019081526020016000205488614f83565b809350819450505060006003811115612be557fe5b836003811115612bf157fe5b14612c1957612c0e6009601a856003811115612c0957fe5b614f07565b955050505050612f09565b612c62600f60008b73ffffffffffffffffffffffffffffffffffffffff1673ffffffffffffffffffffffffffffffffffffffff168152602001908152602001600020548861502c565b809250819450505060006003811115612c7757fe5b836003811115612c8357fe5b14612cab57612ca060096019856003811115612c9b57fe5b614f07565b955050505050612f09565b81600f60008a73ffffffffffffffffffffffffffffffffffffffff1673ffffffffffffffffffffffffffffffffffffffff1681526020019081526020016000208190555080600f60008b73ffffffffffffffffffffffffffffffffffffffff1673ffffffffffffffffffffffffffffffffffffffff168152602001908152602001600020819055508873ffffffffffffffffffffffffffffffffffffffff168873ffffffffffffffffffffffffffffffffffffffff167fddf252ad1be2c89b69c2b068fc378daa952ba7f163c4a11628f55a4df523b3ef896040518082815260200191505060405180910390a3600660009054906101000a900473ffffffffffffffffffffffffffffffffffffffff1673ffffffffffffffffffffffffffffffffffffffff16636d35bf9130338c8c8c6040518663ffffffff1660e01b8152600401808673ffffffffffffffffffffffffffffffffffffffff1673ffffffffffffffffffffffffffffffffffffffff1681526020018573ffffffffffffffffffffffffffffffffffffffff1673ffffffffffffffffffffffffffffffffffffffff1681526020018473ffffffffffffffffffffffffffffffffffffffff1673ffffffffffffffffffffffffffffffffffffffff1681526020018373ffffffffffffffffffffffffffffffffffffffff1673ffffffffffffffffffffffffffffffffffffffff16815260200182815260200195505050505050600060405180830381600087803b158015612edd57600080fd5b505af1158015612ef1573d6000803e3d6000fd5b5050505060006010811115612f0257fe5b9550505050505b6000548114612f80576040517f08c379a000000000000000000000000000000000000000000000000000000000815260040180806020018281038252600a8152602001807f72652d656e74657265640000000000000000000000000000000000000000000081525060200191505060405180910390fd5b509392505050565b6000600460009054906101000a900473ffffffffffffffffffffffffffffffffffffffff1673ffffffffffffffffffffffffffffffffffffffff163373ffffffffffffffffffffffffffffffffffffffff1614612ff257612feb60016045613a23565b9050613102565b6000600560009054906101000a900473ffffffffffffffffffffffffffffffffffffffff16905082600560006101000a81548173ffffffffffffffffffffffffffffffffffffffff021916908373ffffffffffffffffffffffffffffffffffffffff1602179055507fca4f2f25d0898edd99413412fb94012f9e54ec8142f9b093e7720646a95b16a98184604051808373ffffffffffffffffffffffffffffffffffffffff1673ffffffffffffffffffffffffffffffffffffffff1681526020018273ffffffffffffffffffffffffffffffffffffffff1673ffffffffffffffffffffffffffffffffffffffff1681526020019250505060405180910390a1600060108111156130fe57fe5b9150505b919050565b6000600160008082825401925050819055506000805490506000601081111561312c57fe5b613134611f92565b146131a7576040517f08c379a00000000000000000000000000000000000000000000000000000000081526004018080602001828103825260168152602001807f61636372756520696e746572657374206661696c65640000000000000000000081525060200191505060405180910390fd5b6131af611701565b91506000548114613228576040517f08c379a000000000000000000000000000000000000000000000000000000000815260040180806020018281038252600a8152602001807f72652d656e74657265640000000000000000000000000000000000000000000081525060200191505060405180910390fd5b5090565b6000806000806000600f60008773ffffffffffffffffffffffffffffffffffffffff1673ffffffffffffffffffffffffffffffffffffffff168152602001908152602001600020549050600080600061328489614dfc565b80945081925050506000600381111561329957fe5b8160038111156132a557fe5b146132d657600960108111156132b757fe5b600080600082925081915080905097509750975097505050505061334d565b6132de614150565b8093508192505050600060038111156132f357fe5b8160038111156132ff57fe5b14613330576009601081111561331157fe5b600080600082925081915080905097509750975097505050505061334d565b6000601081111561333d57fe5b8484849750975097509750505050505b9193509193565b600061335f82615388565b9050919050565b600061337182615468565b9050919050565b6000601060008473ffffffffffffffffffffffffffffffffffffffff1673ffffffffffffffffffffffffffffffffffffffff16815260200190815260200160002060008373ffffffffffffffffffffffffffffffffffffffff1673ffffffffffffffffffffffffffffffffffffffff16815260200190815260200160002054905092915050565b61344761340c823461554a565b6040518060400160405280601881526020017f7265706179426f72726f77426568616c66206661696c65640000000000000000815250611107565b50565b6000600560009054906101000a900473ffffffffffffffffffffffffffffffffffffffff1673ffffffffffffffffffffffffffffffffffffffff163373ffffffffffffffffffffffffffffffffffffffff161415806134d55750600073ffffffffffffffffffffffffffffffffffffffff163373ffffffffffffffffffffffffffffffffffffffff16145b156134ed576134e660016000613a23565b9050613764565b6000600460009054906101000a900473ffffffffffffffffffffffffffffffffffffffff1690506000600560009054906101000a900473ffffffffffffffffffffffffffffffffffffffff169050600560009054906101000a900473ffffffffffffffffffffffffffffffffffffffff16600460006101000a81548173ffffffffffffffffffffffffffffffffffffffff021916908373ffffffffffffffffffffffffffffffffffffffff1602179055506000600560006101000a81548173ffffffffffffffffffffffffffffffffffffffff021916908373ffffffffffffffffffffffffffffffffffffffff1602179055507ff9ffabca9c8276e99321725bcb43fb076a6c66a54b7f21c4e8146d8519b417dc82600460009054906101000a900473ffffffffffffffffffffffffffffffffffffffff16604051808373ffffffffffffffffffffffffffffffffffffffff1673ffffffffffffffffffffffffffffffffffffffff1681526020018273ffffffffffffffffffffffffffffffffffffffff1673ffffffffffffffffffffffffffffffffffffffff1681526020019250505060405180910390a17fca4f2f25d0898edd99413412fb94012f9e54ec8142f9b093e7720646a95b16a981600560009054906101000a900473ffffffffffffffffffffffffffffffffffffffff16604051808373ffffffffffffffffffffffffffffffffffffffff1673ffffffffffffffffffffffffffffffffffffffff1681526020018273ffffffffffffffffffffffffffffffffffffffff1673ffffffffffffffffffffffffffffffffffffffff1681526020019250505060405180910390a16000601081111561375f57fe5b925050505b90565b600080613772611f92565b90506000601081111561378157fe5b81146137a55761379d81601081111561379657fe5b6040613a23565b9150506137b2565b6137ae8361562c565b9150505b919050565b600760009054906101000a900473ffffffffffffffffffffffffffffffffffffffff1681565b600460009054906101000a900473ffffffffffffffffffffffffffffffffffffffff1681565b6000806000600760009054906101000a900473ffffffffffffffffffffffffffffffffffffffff1673ffffffffffffffffffffffffffffffffffffffff166315f2405361384e61495b565b600c54600d546040518463ffffffff1660e01b8152600401808481526020018381526020018281526020019350505050604080518083038186803b15801561389557600080fd5b505afa1580156138a9573d6000803e3d6000fd5b505050506040513d60408110156138bf57600080fd5b8101908080519060200190929190805190602001909291905050509150915060008214613937576040517f08c379a00000000000000000000000000000000000000000000000000000000081526004018080602001828103825260378152602001806181016037913960400191505060405180910390fd5b809250505090565b6000600160008082825401925050819055506000805490506000613961611f92565b90506000601081111561397057fe5b81146139945761398c81601081111561398557fe5b6046613a23565b9250506139a1565b61399d846158c2565b9250505b6000548114613a18576040517f08c379a000000000000000000000000000000000000000000000000000000000815260040180806020018281038252600a8152602001807f72652d656e74657265640000000000000000000000000000000000000000000081525060200191505060405180910390fd5b50919050565b600181565b60007f45b96fe442630264581b197e84bbada861235052c5a1aadfff9ea4e40a969aa0836010811115613a5257fe5b83604d811115613a5e57fe5b600060405180848152602001838152602001828152602001935050505060405180910390a1826010811115613a8f57fe5b905092915050565b600080600660009054906101000a900473ffffffffffffffffffffffffffffffffffffffff1673ffffffffffffffffffffffffffffffffffffffff16634ef4c3e13086866040518463ffffffff1660e01b8152600401808473ffffffffffffffffffffffffffffffffffffffff1673ffffffffffffffffffffffffffffffffffffffff1681526020018373ffffffffffffffffffffffffffffffffffffffff1673ffffffffffffffffffffffffffffffffffffffff1681526020018281526020019350505050602060405180830381600087803b158015613b7757600080fd5b505af1158015613b8b573d6000803e3d6000fd5b505050506040513d6020811015613ba157600080fd5b8101908080519060200190929190505050905060008114613bd157613bc96003601f83614f07565b91505061414a565b613bd9614f7b565b600a5414613bf557613bed600a6022613a23565b91505061414a565b613bfd617ec9565b613c0785856159d5565b81600001906010811115613c1757fe5b90816010811115613c2457fe5b8152505060006010811115613c3557fe5b81600001516010811115613c4557fe5b14613c6257613c5981600001516026613a23565b9250505061414a565b613c6a614150565b826020018360400182815250826003811115613c8257fe5b6003811115613c8d57fe5b815250505060006003811115613c9f57fe5b81602001516003811115613caf57fe5b14613cd957613cd06009602183602001516003811115613ccb57fe5b614f07565b9250505061414a565b613cf58460405180602001604052808460400151815250615af7565b826020018360600182815250826003811115613d0d57fe5b6003811115613d1857fe5b815250505060006003811115613d2a57fe5b81602001516003811115613d3a57fe5b14613d6457613d5b6009602083602001516003811115613d5657fe5b614f07565b9250505061414a565b613d74600e54826060015161502c565b826020018360800182815250826003811115613d8c57fe5b6003811115613d9757fe5b815250505060006003811115613da957fe5b81602001516003811115613db957fe5b14613de357613dda6009602483602001516003811115613dd557fe5b614f07565b9250505061414a565b613e30600f60008773ffffffffffffffffffffffffffffffffffffffff1673ffffffffffffffffffffffffffffffffffffffff16815260200190815260200160002054826060015161502c565b826020018360a00182815250826003811115613e4857fe5b6003811115613e5357fe5b815250505060006003811115613e6557fe5b81602001516003811115613e7557fe5b14613e9f57613e966009602383602001516003811115613e9157fe5b614f07565b9250505061414a565b613ea98585615b5a565b81600001906010811115613eb957fe5b90816010811115613ec657fe5b8152505060006010811115613ed757fe5b81600001516010811115613ee757fe5b14613f0457613efb81600001516025613a23565b9250505061414a565b8060800151600e819055508060a00151600f60008773ffffffffffffffffffffffffffffffffffffffff1673ffffffffffffffffffffffffffffffffffffffff168152602001908152602001600020819055507f4c209b5fc8ad50758f13e2e1088ba56a560dff690a1c6fef26394f4c03821c4f85858360600151604051808473ffffffffffffffffffffffffffffffffffffffff1673ffffffffffffffffffffffffffffffffffffffff168152602001838152602001828152602001935050505060405180910390a18473ffffffffffffffffffffffffffffffffffffffff163073ffffffffffffffffffffffffffffffffffffffff167fddf252ad1be2c89b69c2b068fc378daa952ba7f163c4a11628f55a4df523b3ef83606001516040518082815260200191505060405180910390a3600660009054906101000a900473ffffffffffffffffffffffffffffffffffffffff1673ffffffffffffffffffffffffffffffffffffffff166341c728b930878785606001516040518563ffffffff1660e01b8152600401808573ffffffffffffffffffffffffffffffffffffffff1673ffffffffffffffffffffffffffffffffffffffff1681526020018473ffffffffffffffffffffffffffffffffffffffff1673ffffffffffffffffffffffffffffffffffffffff168152602001838152602001828152602001945050505050600060405180830381600087803b15801561412057600080fd5b505af1158015614134573d6000803e3d6000fd5b505050506000601081111561414557fe5b925050505b92915050565b6000806000600e54141561416c57600060085491509150614221565b600061417661495b565b90506000614182617e52565b600061419384600c54600d54615c7c565b8094508192505050600060038111156141a857fe5b8160038111156141b457fe5b146141cc578060008090509550955050505050614221565b6141d883600e54615cd8565b8093508192505050600060038111156141ed57fe5b8160038111156141f957fe5b14614211578060008090509550955050505050614221565b6000826000015195509550505050505b9091565b600080600660009054906101000a900473ffffffffffffffffffffffffffffffffffffffff1673ffffffffffffffffffffffffffffffffffffffff1663bdcdc258308787876040518563ffffffff1660e01b8152600401808573ffffffffffffffffffffffffffffffffffffffff1673ffffffffffffffffffffffffffffffffffffffff1681526020018473ffffffffffffffffffffffffffffffffffffffff1673ffffffffffffffffffffffffffffffffffffffff1681526020018373ffffffffffffffffffffffffffffffffffffffff1673ffffffffffffffffffffffffffffffffffffffff168152602001828152602001945050505050602060405180830381600087803b15801561433957600080fd5b505af115801561434d573d6000803e3d6000fd5b505050506040513d602081101561436357600080fd5b81019080805190602001909291905050509050600081146143935761438b6003604a83614f07565b9150506148f0565b8373ffffffffffffffffffffffffffffffffffffffff168573ffffffffffffffffffffffffffffffffffffffff1614156143db576143d36002604b613a23565b9150506148f0565b60008090508573ffffffffffffffffffffffffffffffffffffffff168773ffffffffffffffffffffffffffffffffffffffff16141561443c577fffffffffffffffffffffffffffffffffffffffffffffffffffffffffffffffff90506144bc565b601060008773ffffffffffffffffffffffffffffffffffffffff1673ffffffffffffffffffffffffffffffffffffffff16815260200190815260200160002060008873ffffffffffffffffffffffffffffffffffffffff1673ffffffffffffffffffffffffffffffffffffffff1681526020019081526020016000205490505b6000806000806144cc8589614f83565b8094508195505050600060038111156144e157fe5b8460038111156144ed57fe5b1461450b576144fe6009604b613a23565b96505050505050506148f0565b614554600f60008c73ffffffffffffffffffffffffffffffffffffffff1673ffffffffffffffffffffffffffffffffffffffff1681526020019081526020016000205489614f83565b80935081955050506000600381111561456957fe5b84600381111561457557fe5b14614593576145866009604c613a23565b96505050505050506148f0565b6145dc600f60008b73ffffffffffffffffffffffffffffffffffffffff1673ffffffffffffffffffffffffffffffffffffffff168152602001908152602001600020548961502c565b8092508195505050600060038111156145f157fe5b8460038111156145fd57fe5b1461461b5761460e6009604d613a23565b96505050505050506148f0565b81600f60008c73ffffffffffffffffffffffffffffffffffffffff1673ffffffffffffffffffffffffffffffffffffffff1681526020019081526020016000208190555080600f60008b73ffffffffffffffffffffffffffffffffffffffff1673ffffffffffffffffffffffffffffffffffffffff168152602001908152602001600020819055507fffffffffffffffffffffffffffffffffffffffffffffffffffffffffffffffff851461474c5782601060008c73ffffffffffffffffffffffffffffffffffffffff1673ffffffffffffffffffffffffffffffffffffffff16815260200190815260200160002060008d73ffffffffffffffffffffffffffffffffffffffff1673ffffffffffffffffffffffffffffffffffffffff168152602001908152602001600020819055505b8873ffffffffffffffffffffffffffffffffffffffff168a73ffffffffffffffffffffffffffffffffffffffff167fddf252ad1be2c89b69c2b068fc378daa952ba7f163c4a11628f55a4df523b3ef8a6040518082815260200191505060405180910390a3600660009054906101000a900473ffffffffffffffffffffffffffffffffffffffff1673ffffffffffffffffffffffffffffffffffffffff16636a56947e308c8c8c6040518563ffffffff1660e01b8152600401808573ffffffffffffffffffffffffffffffffffffffff1673ffffffffffffffffffffffffffffffffffffffff1681526020018473ffffffffffffffffffffffffffffffffffffffff1673ffffffffffffffffffffffffffffffffffffffff1681526020018373ffffffffffffffffffffffffffffffffffffffff1673ffffffffffffffffffffffffffffffffffffffff168152602001828152602001945050505050600060405180830381600087803b1580156148c257600080fd5b505af11580156148d6573d6000803e3d6000fd5b50505050600060108111156148e757fe5b96505050505050505b949350505050565b6000806000614905617e52565b61490f8686614fae565b915091506000600381111561492057fe5b82600381111561492c57fe5b1461494257816000809050935093505050614954565b600061494d82615dac565b9350935050505b9250929050565b60008060006149813073ffffffffffffffffffffffffffffffffffffffff163134614f83565b915091506000600381111561499257fe5b82600381111561499e57fe5b146149a857600080fd5b809250505090565b60006001600080828254019250508190555060008054905060006149d2611f92565b9050600060108111156149e157fe5b8114614a05576149fd8160108111156149f657fe5b6036613a23565b925050614a14565b614a10333386615dcb565b9250505b6000548114614a8b576040517f08c379a000000000000000000000000000000000000000000000000000000000815260040180806020018281038252600a8152602001807f72652d656e74657265640000000000000000000000000000000000000000000081525060200191505060405180910390fd5b50919050565b6000806000600460009054906101000a900473ffffffffffffffffffffffffffffffffffffffff1673ffffffffffffffffffffffffffffffffffffffff163373ffffffffffffffffffffffffffffffffffffffff1614614b0057614af760016031613a23565b92505050614d15565b614b08614f7b565b600a5414614b2557614b1c600a6033613a23565b92505050614d15565b83614b2e61495b565b1015614b4957614b40600e6032613a23565b92505050614d15565b600d54841115614b6857614b5f60026034613a23565b92505050614d15565b83600d54039050600d54811115614bca576040517f08c379a000000000000000000000000000000000000000000000000000000000815260040180806020018281038252602481526020018061820e6024913960400191505060405180910390fd5b80600d81905550614bfd600460009054906101000a900473ffffffffffffffffffffffffffffffffffffffff1685616543565b915060006010811115614c0c57fe5b826010811115614c1857fe5b14614c6e576040517f08c379a00000000000000000000000000000000000000000000000000000000081526004018080602001828103825260238152602001806180456023913960400191505060405180910390fd5b7f3bad0c59cf2f06e7314077049f48a93578cd16f5ef92329f1dab1420a99c177e600460009054906101000a900473ffffffffffffffffffffffffffffffffffffffff168583604051808473ffffffffffffffffffffffffffffffffffffffff1673ffffffffffffffffffffffffffffffffffffffff168152602001838152602001828152602001935050505060405180910390a160006010811115614d1057fe5b925050505b919050565b6000600160008082825401925050819055506000805490506000614d3c611f92565b905060006010811115614d4b57fe5b8114614d6f57614d67816010811115614d6057fe5b6027613a23565b925050614d7f565b614d7b33600086616596565b9250505b6000548114614df6576040517f08c379a000000000000000000000000000000000000000000000000000000000815260040180806020018281038252600a8152602001807f72652d656e74657265640000000000000000000000000000000000000000000081525060200191505060405180910390fd5b50919050565b600080600080600080601160008873ffffffffffffffffffffffffffffffffffffffff1673ffffffffffffffffffffffffffffffffffffffff1681526020019081526020016000209050600081600001541415614e66576000808090509550955050505050614f02565b614e768160000154600b54616d8a565b809450819550505060006003811115614e8b57fe5b846003811115614e9757fe5b14614eaf578360008090509550955050505050614f02565b614ebd838260010154616ddd565b809350819550505060006003811115614ed257fe5b846003811115614ede57fe5b14614ef6578360008090509550955050505050614f02565b60008295509550505050505b915091565b60007f45b96fe442630264581b197e84bbada861235052c5a1aadfff9ea4e40a969aa0846010811115614f3657fe5b84604d811115614f4257fe5b8460405180848152602001838152602001828152602001935050505060405180910390a1836010811115614f7257fe5b90509392505050565b600043905090565b600080838311614f9b57600083850391509150614fa7565b60036000809050915091505b9250929050565b6000614fb8617e52565b600080614fc9866000015186616d8a565b9150915060006003811115614fda57fe5b826003811115614fe657fe5b1461500a578160405180602001604052806000815250809050935093505050615025565b60006040518060200160405280838152508090509350935050505b9250929050565b6000806000838501905084811061504a576000819250925050615057565b6002600080905092509250505b9250929050565b600080600061506b617e52565b6150758787614fae565b915091506000600381111561508657fe5b82600381111561509257fe5b146150a8578160008090509350935050506150c1565b6150ba6150b482615dac565b8661502c565b9350935050505b935093915050565b60006001600080828254019250508190555060008054905060006150eb611f92565b9050600060108111156150fa57fe5b811461511e5761511681601081111561510f57fe5b600f613a23565b9250506151e4565b8373ffffffffffffffffffffffffffffffffffffffff1663a6afed956040518163ffffffff1660e01b8152600401602060405180830381600087803b15801561516657600080fd5b505af115801561517a573d6000803e3d6000fd5b505050506040513d602081101561519057600080fd5b81019080805190602001909291905050509050600060108111156151b057fe5b81146151d4576151cc8160108111156151c557fe5b6010613a23565b9250506151e4565b6151e033878787616e11565b9250505b600054811461525b576040517f08c379a000000000000000000000000000000000000000000000000000000000815260040180806020018281038252600a8152602001807f72652d656e74657265640000000000000000000000000000000000000000000081525060200191505060405180910390fd5b509392505050565b600061526d617e52565b600080615282670de0b6b3a764000087616d8a565b915091506000600381111561529357fe5b82600381111561529f57fe5b146152c35781604051806020016040528060008152508090509350935050506152d8565b6152d1818660000151615cd8565b9350935050505b9250929050565b60006152e9617e52565b6000806152fe86600001518660000151614f83565b91509150816040518060200160405280838152508090509350935050509250929050565b600061532c617e52565b6000615336617e52565b615340878761774f565b915091506000600381111561535157fe5b82600381111561535d57fe5b1461536f578181935093505050615380565b615379818661774f565b9350935050505b935093915050565b60006001600080828254019250508190555060008054905060006153aa611f92565b9050600060108111156153b957fe5b81146153dd576153d58160108111156153ce57fe5b6008613a23565b9250506153eb565b6153e73385617870565b9250505b6000548114615462576040517f08c379a000000000000000000000000000000000000000000000000000000000815260040180806020018281038252600a8152602001807f72652d656e74657265640000000000000000000000000000000000000000000081525060200191505060405180910390fd5b50919050565b600060016000808282540192505081905550600080549050600061548a611f92565b90506000601081111561549957fe5b81146154bd576154b58160108111156154ae57fe5b6027613a23565b9250506154cd565b6154c933856000616596565b9250505b6000548114615544576040517f08c379a000000000000000000000000000000000000000000000000000000000815260040180806020018281038252600a8152602001807f72652d656e74657265640000000000000000000000000000000000000000000081525060200191505060405180910390fd5b50919050565b600060016000808282540192505081905550600080549050600061556c611f92565b90506000601081111561557b57fe5b811461559f5761559781601081111561559057fe5b6035613a23565b9250506155ae565b6155aa338686615dcb565b9250505b6000548114615625576040517f08c379a000000000000000000000000000000000000000000000000000000000815260040180806020018281038252600a8152602001807f72652d656e74657265640000000000000000000000000000000000000000000081525060200191505060405180910390fd5b5092915050565b600080600460009054906101000a900473ffffffffffffffffffffffffffffffffffffffff1673ffffffffffffffffffffffffffffffffffffffff163373ffffffffffffffffffffffffffffffffffffffff16146156985761569060016042613a23565b9150506158bd565b6156a0614f7b565b600a54146156bc576156b4600a6041613a23565b9150506158bd565b600760009054906101000a900473ffffffffffffffffffffffffffffffffffffffff1690508273ffffffffffffffffffffffffffffffffffffffff16632191f92a6040518163ffffffff1660e01b815260040160206040518083038186803b15801561572757600080fd5b505afa15801561573b573d6000803e3d6000fd5b505050506040513d602081101561575157600080fd5b81019080805190602001909291905050506157d4576040517f08c379a000000000000000000000000000000000000000000000000000000000815260040180806020018281038252601c8152602001807f6d61726b6572206d6574686f642072657475726e65642066616c73650000000081525060200191505060405180910390fd5b82600760006101000a81548173ffffffffffffffffffffffffffffffffffffffff021916908373ffffffffffffffffffffffffffffffffffffffff1602179055507fedffc32e068c7c95dfd4bdfd5c4d939a084d6b11c4199eac8436ed234d72f9268184604051808373ffffffffffffffffffffffffffffffffffffffff1673ffffffffffffffffffffffffffffffffffffffff1681526020018273ffffffffffffffffffffffffffffffffffffffff1673ffffffffffffffffffffffffffffffffffffffff1681526020019250505060405180910390a1600060108111156158b957fe5b9150505b919050565b6000600460009054906101000a900473ffffffffffffffffffffffffffffffffffffffff1673ffffffffffffffffffffffffffffffffffffffff163373ffffffffffffffffffffffffffffffffffffffff161461592c5761592560016047613a23565b90506159d0565b615934614f7b565b600a541461594f57615948600a6048613a23565b90506159d0565b670de0b6b3a76400008211156159725761596b60026049613a23565b90506159d0565b60006009549050826009819055507faaa68312e2ea9d50e16af5068410ab56e1a1fd06037b1a35664812c30f8214608184604051808381526020018281526020019250505060405180910390a1600060108111156159cc57fe5b9150505b919050565b60008273ffffffffffffffffffffffffffffffffffffffff163373ffffffffffffffffffffffffffffffffffffffff1614615a78576040517f08c379a000000000000000000000000000000000000000000000000000000000815260040180806020018281038252600f8152602001807f73656e646572206d69736d61746368000000000000000000000000000000000081525060200191505060405180910390fd5b813414615aed576040517f08c379a000000000000000000000000000000000000000000000000000000000815260040180806020018281038252600e8152602001807f76616c7565206d69736d6174636800000000000000000000000000000000000081525060200191505060405180910390fd5b6000905092915050565b6000806000615b04617e52565b615b0e8686615263565b9150915060006003811115615b1f57fe5b826003811115615b2b57fe5b14615b4157816000809050935093505050615b53565b6000615b4c82615dac565b9350935050505b9250929050565b60008273ffffffffffffffffffffffffffffffffffffffff163373ffffffffffffffffffffffffffffffffffffffff1614615bfd576040517f08c379a000000000000000000000000000000000000000000000000000000000815260040180806020018281038252600f8152602001807f73656e646572206d69736d61746368000000000000000000000000000000000081525060200191505060405180910390fd5b813414615c72576040517f08c379a000000000000000000000000000000000000000000000000000000000815260040180806020018281038252600e8152602001807f76616c7565206d69736d6174636800000000000000000000000000000000000081525060200191505060405180910390fd5b6000905092915050565b600080600080615c8c878761502c565b9150915060006003811115615c9d57fe5b826003811115615ca957fe5b14615cbf57816000809050935093505050615cd0565b615cc98186614f83565b9350935050505b935093915050565b6000615ce2617e52565b600080615cf786670de0b6b3a7640000616d8a565b9150915060006003811115615d0857fe5b826003811115615d1457fe5b14615d38578160405180602001604052806000815250809050935093505050615da5565b600080615d458388616ddd565b9150915060006003811115615d5657fe5b826003811115615d6257fe5b14615d885781604051806020016040528060008152508090509550955050505050615da5565b600060405180602001604052808381525080905095509550505050505b9250929050565b6000670de0b6b3a7640000826000015181615dc357fe5b049050919050565b600080600660009054906101000a900473ffffffffffffffffffffffffffffffffffffffff1673ffffffffffffffffffffffffffffffffffffffff166324008a62308787876040518563ffffffff1660e01b8152600401808573ffffffffffffffffffffffffffffffffffffffff1673ffffffffffffffffffffffffffffffffffffffff1681526020018473ffffffffffffffffffffffffffffffffffffffff1673ffffffffffffffffffffffffffffffffffffffff1681526020018373ffffffffffffffffffffffffffffffffffffffff1673ffffffffffffffffffffffffffffffffffffffff168152602001828152602001945050505050602060405180830381600087803b158015615edf57600080fd5b505af1158015615ef3573d6000803e3d6000fd5b505050506040513d6020811015615f0957600080fd5b8101908080519060200190929190505050905060008114615f3957615f316003603883614f07565b91505061653c565b615f41614f7b565b600a5414615f5d57615f55600a6039613a23565b91505061653c565b615f65617f15565b601160008673ffffffffffffffffffffffffffffffffffffffff1673ffffffffffffffffffffffffffffffffffffffff16815260200190815260200160002060010154816060018181525050615fba85614dfc565b826020018360800182815250826003811115615fd257fe5b6003811115615fdd57fe5b815250505060006003811115615fef57fe5b81602001516003811115615fff57fe5b1461602957616020600960378360200151600381111561601b57fe5b614f07565b9250505061653c565b7fffffffffffffffffffffffffffffffffffffffffffffffffffffffffffffffff84141561606457806080015181604001818152505061606f565b838160400181815250505b61607d8682604001516159d5565b8160000190601081111561608d57fe5b9081601081111561609a57fe5b81525050600060108111156160ab57fe5b816000015160108111156160bb57fe5b146160d8576160cf8160000151603c613a23565b9250505061653c565b6160ea81608001518260400151614f83565b826020018360a0018281525082600381111561610257fe5b600381111561610d57fe5b81525050506000600381111561611f57fe5b8160200151600381111561612f57fe5b14616159576161506009603a8360200151600381111561614b57fe5b614f07565b9250505061653c565b616169600c548260400151614f83565b826020018360c0018281525082600381111561618157fe5b600381111561618c57fe5b81525050506000600381111561619e57fe5b816020015160038111156161ae57fe5b146161d8576161cf6009603b836020015160038111156161ca57fe5b614f07565b9250505061653c565b6161e6868260400151615b5a565b816000019060108111156161f657fe5b9081601081111561620357fe5b815250506000601081111561621457fe5b8160000151601081111561622457fe5b14616297576040517f08c379a000000000000000000000000000000000000000000000000000000000815260040180806020018281038252601f8152602001807f726570617920626f72726f77207472616e7366657220696e206661696c65640081525060200191505060405180910390fd5b8060a00151601160008773ffffffffffffffffffffffffffffffffffffffff1673ffffffffffffffffffffffffffffffffffffffff16815260200190815260200160002060000181905550600b54601160008773ffffffffffffffffffffffffffffffffffffffff1673ffffffffffffffffffffffffffffffffffffffff168152602001908152602001600020600101819055508060c00151600c819055507f1a2a22cb034d26d1854bdc6666a5b91fe25efbbb5dcad3b0355478d6f5c362a1868683604001518460a001518560c00151604051808673ffffffffffffffffffffffffffffffffffffffff1673ffffffffffffffffffffffffffffffffffffffff1681526020018573ffffffffffffffffffffffffffffffffffffffff1673ffffffffffffffffffffffffffffffffffffffff1681526020018481526020018381526020018281526020019550505050505060405180910390a1600660009054906101000a900473ffffffffffffffffffffffffffffffffffffffff1673ffffffffffffffffffffffffffffffffffffffff16631ededc91308888856040015186606001516040518663ffffffff1660e01b8152600401808673ffffffffffffffffffffffffffffffffffffffff1673ffffffffffffffffffffffffffffffffffffffff1681526020018573ffffffffffffffffffffffffffffffffffffffff1673ffffffffffffffffffffffffffffffffffffffff1681526020018473ffffffffffffffffffffffffffffffffffffffff1673ffffffffffffffffffffffffffffffffffffffff16815260200183815260200182815260200195505050505050600060405180830381600087803b15801561651257600080fd5b505af1158015616526573d6000803e3d6000fd5b505050506000601081111561653757fe5b925050505b9392505050565b60008273ffffffffffffffffffffffffffffffffffffffff166108fc839081150290604051600060405180830381858888f1935050505015801561658b573d6000803e3d6000fd5b506000905092915050565b6000808314806165a65750600082145b6165fb576040517f08c379a00000000000000000000000000000000000000000000000000000000081526004018080602001828103825260348152602001806181da6034913960400191505060405180910390fd5b616603617f68565b61660b614150565b82602001836040018281525082600381111561662357fe5b600381111561662e57fe5b81525050506000600381111561664057fe5b8160200151600381111561665057fe5b14616679576166716009602b8360200151600381111561666c57fe5b614f07565b915050616d83565b600084111561671b57838160600181815250506166a860405180602001604052808360400151815250856148f8565b8260200183608001828152508260038111156166c057fe5b60038111156166cb57fe5b8152505050600060038111156166dd57fe5b816020015160038111156166ed57fe5b146167165761670e600960298360200151600381111561670957fe5b614f07565b915050616d83565b6167b0565b6167378360405180602001604052808460400151815250615af7565b82602001836060018281525082600381111561674f57fe5b600381111561675a57fe5b81525050506000600381111561676c57fe5b8160200151600381111561677c57fe5b146167a55761679d6009602a8360200151600381111561679857fe5b614f07565b915050616d83565b828160800181815250505b6000600660009054906101000a900473ffffffffffffffffffffffffffffffffffffffff1673ffffffffffffffffffffffffffffffffffffffff1663eabe7d91308885606001516040518463ffffffff1660e01b8152600401808473ffffffffffffffffffffffffffffffffffffffff1673ffffffffffffffffffffffffffffffffffffffff1681526020018373ffffffffffffffffffffffffffffffffffffffff1673ffffffffffffffffffffffffffffffffffffffff1681526020018281526020019350505050602060405180830381600087803b15801561689357600080fd5b505af11580156168a7573d6000803e3d6000fd5b505050506040513d60208110156168bd57600080fd5b81019080805190602001909291905050509050600081146168ee576168e56003602883614f07565b92505050616d83565b6168f6614f7b565b600a54146169135761690a600a602c613a23565b92505050616d83565b616923600e548360600151614f83565b836020018460a0018281525082600381111561693b57fe5b600381111561694657fe5b81525050506000600381111561695857fe5b8260200151600381111561696857fe5b14616992576169896009602e8460200151600381111561698457fe5b614f07565b92505050616d83565b6169df600f60008873ffffffffffffffffffffffffffffffffffffffff1673ffffffffffffffffffffffffffffffffffffffff168152602001908152602001600020548360600151614f83565b836020018460c001828152508260038111156169f757fe5b6003811115616a0257fe5b815250505060006003811115616a1457fe5b82602001516003811115616a2457fe5b14616a4e57616a456009602d84602001516003811115616a4057fe5b614f07565b92505050616d83565b8160800151616a5b61495b565b1015616a7657616a6d600e602f613a23565b92505050616d83565b616a84868360800151616543565b82600001906010811115616a9457fe5b90816010811115616aa157fe5b8152505060006010811115616ab257fe5b82600001516010811115616ac257fe5b14616b35576040517f08c379a000000000000000000000000000000000000000000000000000000000815260040180806020018281038252601a8152602001807f72656465656d207472616e73666572206f7574206661696c656400000000000081525060200191505060405180910390fd5b8160a00151600e819055508160c00151600f60008873ffffffffffffffffffffffffffffffffffffffff1673ffffffffffffffffffffffffffffffffffffffff168152602001908152602001600020819055503073ffffffffffffffffffffffffffffffffffffffff168673ffffffffffffffffffffffffffffffffffffffff167fddf252ad1be2c89b69c2b068fc378daa952ba7f163c4a11628f55a4df523b3ef84606001516040518082815260200191505060405180910390a37fe5b754fb1abb7f01b499791d0b820ae3b6af3424ac1c59768edb53f4ec31a9298683608001518460600151604051808473ffffffffffffffffffffffffffffffffffffffff1673ffffffffffffffffffffffffffffffffffffffff168152602001838152602001828152602001935050505060405180910390a1600660009054906101000a900473ffffffffffffffffffffffffffffffffffffffff1673ffffffffffffffffffffffffffffffffffffffff166351dff9893088856080015186606001516040518563ffffffff1660e01b8152600401808573ffffffffffffffffffffffffffffffffffffffff1673ffffffffffffffffffffffffffffffffffffffff1681526020018473ffffffffffffffffffffffffffffffffffffffff1673ffffffffffffffffffffffffffffffffffffffff168152602001838152602001828152602001945050505050600060405180830381600087803b158015616d5957600080fd5b505af1158015616d6d573d6000803e3d6000fd5b5050505060006010811115616d7e57fe5b925050505b9392505050565b6000806000841415616da55760008080905091509150616dd6565b6000838502905083858281616db657fe5b0414616dcd57600260008090509250925050616dd6565b60008192509250505b9250929050565b6000806000831415616df9576001600080905091509150616e0a565b6000838581616e0457fe5b04915091505b9250929050565b600080600660009054906101000a900473ffffffffffffffffffffffffffffffffffffffff1673ffffffffffffffffffffffffffffffffffffffff16635fc7e71e30858989896040518663ffffffff1660e01b8152600401808673ffffffffffffffffffffffffffffffffffffffff1673ffffffffffffffffffffffffffffffffffffffff1681526020018573ffffffffffffffffffffffffffffffffffffffff1673ffffffffffffffffffffffffffffffffffffffff1681526020018473ffffffffffffffffffffffffffffffffffffffff1673ffffffffffffffffffffffffffffffffffffffff1681526020018373ffffffffffffffffffffffffffffffffffffffff1673ffffffffffffffffffffffffffffffffffffffff16815260200182815260200195505050505050602060405180830381600087803b158015616f5957600080fd5b505af1158015616f6d573d6000803e3d6000fd5b505050506040513d6020811015616f8357600080fd5b8101908080519060200190929190505050905060008114616fb357616fab6003601283614f07565b915050617747565b616fbb614f7b565b600a5414616fd757616fcf600a6016613a23565b915050617747565b616fdf614f7b565b8373ffffffffffffffffffffffffffffffffffffffff16636c540baf6040518163ffffffff1660e01b815260040160206040518083038186803b15801561702557600080fd5b505afa158015617039573d6000803e3d6000fd5b505050506040513d602081101561704f57600080fd5b81019080805190602001909291905050501461707957617071600a6011613a23565b915050617747565b8573ffffffffffffffffffffffffffffffffffffffff168573ffffffffffffffffffffffffffffffffffffffff1614156170c1576170b960066017613a23565b915050617747565b60008414156170de576170d660076015613a23565b915050617747565b7fffffffffffffffffffffffffffffffffffffffffffffffffffffffffffffffff84141561711a5761711260076014613a23565b915050617747565b600080600660009054906101000a900473ffffffffffffffffffffffffffffffffffffffff1673ffffffffffffffffffffffffffffffffffffffff1663c488847b3087896040518463ffffffff1660e01b8152600401808473ffffffffffffffffffffffffffffffffffffffff1673ffffffffffffffffffffffffffffffffffffffff1681526020018373ffffffffffffffffffffffffffffffffffffffff1673ffffffffffffffffffffffffffffffffffffffff1681526020018281526020019350505050604080518083038186803b1580156171f757600080fd5b505afa15801561720b573d6000803e3d6000fd5b505050506040513d604081101561722157600080fd5b810190808051906020019092919080519060200190929190505050915091506000821461725f576172556004601384614f07565b9350505050617747565b8473ffffffffffffffffffffffffffffffffffffffff166370a08231886040518263ffffffff1660e01b8152600401808273ffffffffffffffffffffffffffffffffffffffff1673ffffffffffffffffffffffffffffffffffffffff16815260200191505060206040518083038186803b1580156172dc57600080fd5b505afa1580156172f0573d6000803e3d6000fd5b505050506040513d602081101561730657600080fd5b81019080805190602001909291905050508111156173345761732a600d601d613a23565b9350505050617747565b6000617341898989615dcb565b90506000601081111561735057fe5b81146173775761736c81601081111561736557fe5b6018613a23565b945050505050617747565b60008673ffffffffffffffffffffffffffffffffffffffff1663b2a02ff18b8b866040518463ffffffff1660e01b8152600401808473ffffffffffffffffffffffffffffffffffffffff1673ffffffffffffffffffffffffffffffffffffffff1681526020018373ffffffffffffffffffffffffffffffffffffffff1673ffffffffffffffffffffffffffffffffffffffff1681526020018281526020019350505050602060405180830381600087803b15801561743457600080fd5b505af1158015617448573d6000803e3d6000fd5b505050506040513d602081101561745e57600080fd5b810190808051906020019092919050505090506000601081111561747e57fe5b81146174f2576040517f08c379a00000000000000000000000000000000000000000000000000000000081526004018080602001828103825260148152602001807f746f6b656e207365697a757265206661696c656400000000000000000000000081525060200191505060405180910390fd5b7f298637f684da70674f26509b10f07ec2fbc77a335ab1e7d6215a4b2484d8bb528a8a8a8a87604051808673ffffffffffffffffffffffffffffffffffffffff1673ffffffffffffffffffffffffffffffffffffffff1681526020018573ffffffffffffffffffffffffffffffffffffffff1673ffffffffffffffffffffffffffffffffffffffff1681526020018481526020018373ffffffffffffffffffffffffffffffffffffffff1673ffffffffffffffffffffffffffffffffffffffff1681526020018281526020019550505050505060405180910390a1600660009054906101000a900473ffffffffffffffffffffffffffffffffffffffff1673ffffffffffffffffffffffffffffffffffffffff166347ef3b3b30898d8d8d896040518763ffffffff1660e01b8152600401808773ffffffffffffffffffffffffffffffffffffffff1673ffffffffffffffffffffffffffffffffffffffff1681526020018673ffffffffffffffffffffffffffffffffffffffff1673ffffffffffffffffffffffffffffffffffffffff1681526020018573ffffffffffffffffffffffffffffffffffffffff1673ffffffffffffffffffffffffffffffffffffffff1681526020018473ffffffffffffffffffffffffffffffffffffffff1673ffffffffffffffffffffffffffffffffffffffff1681526020018381526020018281526020019650505050505050600060405180830381600087803b15801561771a57600080fd5b505af115801561772e573d6000803e3d6000fd5b505050506000601081111561773f57fe5b955050505050505b949350505050565b6000617759617e52565b60008061776e86600001518660000151616d8a565b915091506000600381111561777f57fe5b82600381111561778b57fe5b146177af578160405180602001604052806000815250809050935093505050617869565b6000806177ce6002670de0b6b3a7640000816177c757fe5b048461502c565b91509150600060038111156177df57fe5b8260038111156177eb57fe5b146178115781604051806020016040528060008152508090509550955050505050617869565b60008061782683670de0b6b3a7640000616ddd565b915091506000600381111561783757fe5b82600381111561784357fe5b1461784a57fe5b6000604051806020016040528083815250809050975097505050505050505b9250929050565b600080600660009054906101000a900473ffffffffffffffffffffffffffffffffffffffff1673ffffffffffffffffffffffffffffffffffffffff1663da3d454c3086866040518463ffffffff1660e01b8152600401808473ffffffffffffffffffffffffffffffffffffffff1673ffffffffffffffffffffffffffffffffffffffff1681526020018373ffffffffffffffffffffffffffffffffffffffff1673ffffffffffffffffffffffffffffffffffffffff1681526020018281526020019350505050602060405180830381600087803b15801561795057600080fd5b505af1158015617964573d6000803e3d6000fd5b505050506040513d602081101561797a57600080fd5b81019080805190602001909291905050509050600081146179aa576179a26003600e83614f07565b915050617e4c565b6179b2614f7b565b600a54146179cd576179c5600a80613a23565b915050617e4c565b826179d661495b565b10156179f0576179e8600e6009613a23565b915050617e4c565b6179f8617fbb565b617a0185614dfc565b826020018360400182815250826003811115617a1957fe5b6003811115617a2457fe5b815250505060006003811115617a3657fe5b81602001516003811115617a4657fe5b14617a7057617a676009600783602001516003811115617a6257fe5b614f07565b92505050617e4c565b617a7e81604001518561502c565b826020018360600182815250826003811115617a9657fe5b6003811115617aa157fe5b815250505060006003811115617ab357fe5b81602001516003811115617ac357fe5b14617aed57617ae46009600c83602001516003811115617adf57fe5b614f07565b92505050617e4c565b617af9600c548561502c565b826020018360800182815250826003811115617b1157fe5b6003811115617b1c57fe5b815250505060006003811115617b2e57fe5b81602001516003811115617b3e57fe5b14617b6857617b5f6009600b83602001516003811115617b5a57fe5b614f07565b92505050617e4c565b617b728585616543565b81600001906010811115617b8257fe5b90816010811115617b8f57fe5b8152505060006010811115617ba057fe5b81600001516010811115617bb057fe5b14617c23576040517f08c379a000000000000000000000000000000000000000000000000000000000815260040180806020018281038252601a8152602001807f626f72726f77207472616e73666572206f7574206661696c656400000000000081525060200191505060405180910390fd5b8060600151601160008773ffffffffffffffffffffffffffffffffffffffff1673ffffffffffffffffffffffffffffffffffffffff16815260200190815260200160002060000181905550600b54601160008773ffffffffffffffffffffffffffffffffffffffff1673ffffffffffffffffffffffffffffffffffffffff168152602001908152602001600020600101819055508060800151600c819055507f13ed6866d4e1ee6da46f845c46d7e54120883d75c5ea9a2dacc1c4ca8984ab80858583606001518460800151604051808573ffffffffffffffffffffffffffffffffffffffff1673ffffffffffffffffffffffffffffffffffffffff16815260200184815260200183815260200182815260200194505050505060405180910390a1600660009054906101000a900473ffffffffffffffffffffffffffffffffffffffff1673ffffffffffffffffffffffffffffffffffffffff16635c7786053087876040518463ffffffff1660e01b8152600401808473ffffffffffffffffffffffffffffffffffffffff1673ffffffffffffffffffffffffffffffffffffffff1681526020018373ffffffffffffffffffffffffffffffffffffffff1673ffffffffffffffffffffffffffffffffffffffff1681526020018281526020019350505050600060405180830381600087803b158015617e2257600080fd5b505af1158015617e36573d6000803e3d6000fd5b5050505060006010811115617e4757fe5b925050505b92915050565b6040518060200160405280600081525090565b60405180610140016040528060006003811115617e7e57fe5b815260200160008152602001600081526020016000815260200160008152602001617ea7618000565b8152602001600081526020016000815260200160008152602001600081525090565b6040518060c0016040528060006010811115617ee157fe5b815260200160006003811115617ef357fe5b8152602001600081526020016000815260200160008152602001600081525090565b6040518060e0016040528060006010811115617f2d57fe5b815260200160006003811115617f3f57fe5b815260200160008152602001600081526020016000815260200160008152602001600081525090565b6040518060e0016040528060006010811115617f8057fe5b815260200160006003811115617f9257fe5b815260200160008152602001600081526020016000815260200160008152602001600081525090565b6040518060a0016040528060006010811115617fd357fe5b815260200160006003811115617fe557fe5b81526020016000815260200160008152602001600081525090565b604051806020016040528060008152509056fe737570706c7952617465506572426c6f636b3a2063616c63756c6174696e6720626f72726f7773506572206661696c6564726564756365207265736572766573207472616e73666572206f7574206661696c6564737570706c7952617465506572426c6f636b3a2063616c63756c6174696e6720737570706c7952617465206661696c6564626f72726f7742616c616e636553746f7265643a20626f72726f7742616c616e636553746f726564496e7465726e616c206661696c6564737570706c7952617465506572426c6f636b3a2063616c63756c6174696e6720756e6465726c79696e67206661696c6564626f72726f7752617465506572426c6f636b3a20696e746572657374526174654d6f64656c2e626f72726f7752617465206661696c6564737570706c7952617465506572426c6f636b3a2063616c63756c6174696e6720626f72726f7752617465206661696c6564737570706c7952617465506572426c6f636b3a2063616c63756c6174696e67206f6e654d696e757352657365727665466163746f72206661696c656465786368616e67655261746553746f7265643a2065786368616e67655261746553746f726564496e7465726e616c206661696c65646f6e65206f662072656465656d546f6b656e73496e206f722072656465656d416d6f756e74496e206d757374206265207a65726f72656475636520726573657276657320756e657870656374656420756e646572666c6f77a265627a7a72315820f54c62eea59ab57bd27c941c0adbb38bc466e540df3ebef56d174b47d29fad9764736f6c634300050c003253657474696e6720696e7465726573742072617465206d6f64656c206661696c6564496e697469616c2065786368616e67652072617465206d7573742062652067726561746572207468616e207a65726f2e",
  "source": "pragma solidity ^0.5.8;\n\nimport \"./CToken.sol\";\n\n/**\n * @title Compound's CEther Contract\n * @notice CToken which wraps Ether\n * @author Compound\n */\ncontract CEther is CToken {\n    /**\n     * @notice Construct a new CEther money market\n     * @param comptroller_ The address of the Comptroller\n     * @param interestRateModel_ The address of the interest rate model\n     * @param initialExchangeRateMantissa_ The initial exchange rate, scaled by 1e18\n     * @param name_ ERC-20 name of this token\n     * @param symbol_ ERC-20 symbol of this token\n     * @param decimals_ ERC-20 decimal precision of this token\n     */\n    constructor(ComptrollerInterface comptroller_,\n                InterestRateModel interestRateModel_,\n                uint initialExchangeRateMantissa_,\n                string memory name_,\n                string memory symbol_,\n                uint decimals_) public\n    CToken(comptroller_, interestRateModel_, initialExchangeRateMantissa_, name_, symbol_, decimals_) {}\n\n    /*** User Interface ***/\n\n    /**\n     * @notice Sender supplies assets into the market and receives cTokens in exchange\n     * @dev Reverts upon any failure\n     */\n    function mint() external payable {\n        requireNoError(mintInternal(msg.value), \"mint failed\");\n    }\n\n    /**\n     * @notice Sender redeems cTokens in exchange for the underlying asset\n     * @dev Accrues interest whether or not the operation succeeds, unless reverted\n     * @param redeemTokens The number of cTokens to redeem into underlying\n     * @return uint 0=success, otherwise a failure (see ErrorReporter.sol for details)\n     */\n    function redeem(uint redeemTokens) external returns (uint) {\n        return redeemInternal(redeemTokens);\n    }\n\n    /**\n     * @notice Sender redeems cTokens in exchange for a specified amount of underlying asset\n     * @dev Accrues interest whether or not the operation succeeds, unless reverted\n     * @param redeemAmount The amount of underlying to redeem\n     * @return uint 0=success, otherwise a failure (see ErrorReporter.sol for details)\n     */\n    function redeemUnderlying(uint redeemAmount) external returns (uint) {\n        return redeemUnderlyingInternal(redeemAmount);\n    }\n\n    /**\n      * @notice Sender borrows assets from the protocol to their own address\n      * @param borrowAmount The amount of the underlying asset to borrow\n      * @return uint 0=success, otherwise a failure (see ErrorReporter.sol for details)\n      */\n    function borrow(uint borrowAmount) external returns (uint) {\n        return borrowInternal(borrowAmount);\n    }\n\n    /**\n     * @notice Sender repays their own borrow\n     * @dev Reverts upon any failure\n     */\n    function repayBorrow() external payable {\n        requireNoError(repayBorrowInternal(msg.value), \"repayBorrow failed\");\n    }\n\n    /**\n     * @notice Sender repays a borrow belonging to borrower\n     * @dev Reverts upon any failure\n     * @param borrower the account with the debt being payed off\n     */\n    function repayBorrowBehalf(address borrower) external payable {\n        requireNoError(repayBorrowBehalfInternal(borrower, msg.value), \"repayBorrowBehalf failed\");\n    }\n\n    /**\n     * @notice The sender liquidates the borrowers collateral.\n     *  The collateral seized is transferred to the liquidator.\n     * @dev Reverts upon any failure\n     * @param borrower The borrower of this cToken to be liquidated\n     * @param cTokenCollateral The market in which to seize collateral from the borrower\n     */\n    function liquidateBorrow(address borrower, CToken cTokenCollateral) external payable {\n        requireNoError(liquidateBorrowInternal(borrower, msg.value, cTokenCollateral), \"liquidateBorrow failed\");\n    }\n\n    /**\n     * @notice Send Ether to CEther to mint\n     */\n    function () external payable {\n        requireNoError(mintInternal(msg.value), \"mint failed\");\n    }\n\n    /*** Safe Token ***/\n\n    /**\n     * @notice Gets balance of this contract in terms of Ether, before this message\n     * @dev This excludes the value of the current message, if any\n     * @return The quantity of Ether owned by this contract\n     */\n    function getCashPrior() internal view returns (uint) {\n        (MathError err, uint startingBalance) = subUInt(address(this).balance, msg.value);\n        require(err == MathError.NO_ERROR);\n        return startingBalance;\n    }\n\n    /**\n     * @notice Checks whether the requested transfer matches the `msg`\n     * @dev Does NOT do a transfer\n     * @param from Address sending the Ether\n     * @param amount Amount of Ether being sent\n     * @return Whether or not the transfer checks out\n     */\n    function checkTransferIn(address from, uint amount) internal view returns (Error) {\n        // Sanity checks\n        require(msg.sender == from, \"sender mismatch\");\n        require(msg.value == amount, \"value mismatch\");\n        return Error.NO_ERROR;\n    }\n\n    /**\n     * @notice Perform the actual transfer in, which is a no-op\n     * @param from Address sending the Ether\n     * @param amount Amount of Ether being sent\n     * @return Success\n     */\n    function doTransferIn(address from, uint amount) internal returns (Error) {\n        // Sanity checks\n        require(msg.sender == from, \"sender mismatch\");\n        require(msg.value == amount, \"value mismatch\");\n        return Error.NO_ERROR;\n    }\n\n    function doTransferOut(address payable to, uint amount) internal returns (Error) {\n        /* Send the Ether, with minimal gas and revert on failure */\n        to.transfer(amount);\n        return Error.NO_ERROR;\n    }\n\n    function requireNoError(uint errCode, string memory message) internal pure {\n        if (errCode == uint(Error.NO_ERROR)) {\n            return;\n        }\n\n        bytes memory fullMessage = new bytes(bytes(message).length + 5);\n        uint i;\n\n        for (i = 0; i < bytes(message).length; i++) {\n            fullMessage[i] = bytes(message)[i];\n        }\n\n        fullMessage[i+0] = byte(uint8(32));\n        fullMessage[i+1] = byte(uint8(40));\n        fullMessage[i+2] = byte(uint8(48 + ( errCode / 10 )));\n        fullMessage[i+3] = byte(uint8(48 + ( errCode % 10 )));\n        fullMessage[i+4] = byte(uint8(41));\n\n        require(errCode == uint(Error.NO_ERROR), string(fullMessage));\n    }\n}\n",
  "sourcePath": "/Users/logic/eth/interestfund/contracts/mocks/compound/CEther.sol",
  "compiler": {
    "name": "solc",
    "version": "0.5.12+commit.7709ece9.Emscripten.clang",
    "optimizer": false,
    "runs": 200
  },
  "schemaVersion": "2.2.4",
  "updatedAt": "2019-10-23T11:47:55.509Z"
}