{
  "contractName": "PriceOracleProxy",
  "abi": [
    {
      "inputs": [
        {
          "internalType": "address",
          "name": "comptroller_",
          "type": "address"
        },
        {
          "internalType": "address",
          "name": "v1PriceOracle_",
          "type": "address"
        },
        {
          "internalType": "address",
          "name": "cEthAddress_",
          "type": "address"
        },
        {
          "internalType": "address",
          "name": "cUsdcAddress_",
          "type": "address"
        },
        {
          "internalType": "address",
          "name": "cDaiAddress_",
          "type": "address"
        }
      ],
      "payable": false,
      "stateMutability": "nonpayable",
      "type": "constructor"
    },
    {
      "constant": true,
      "inputs": [],
      "name": "cDaiAddress",
      "outputs": [
        {
          "internalType": "address",
          "name": "",
          "type": "address"
        }
      ],
      "payable": false,
      "stateMutability": "view",
      "type": "function"
    },
    {
      "constant": true,
      "inputs": [],
      "name": "cEthAddress",
      "outputs": [
        {
          "internalType": "address",
          "name": "",
          "type": "address"
        }
      ],
      "payable": false,
      "stateMutability": "view",
      "type": "function"
    },
    {
      "constant": true,
      "inputs": [],
      "name": "cUsdcAddress",
      "outputs": [
        {
          "internalType": "address",
          "name": "",
          "type": "address"
        }
      ],
      "payable": false,
      "stateMutability": "view",
      "type": "function"
    },
    {
      "constant": true,
      "inputs": [],
      "name": "comptroller",
      "outputs": [
        {
          "internalType": "contract Comptroller",
          "name": "",
          "type": "address"
        }
      ],
      "payable": false,
      "stateMutability": "view",
      "type": "function"
    },
    {
      "constant": true,
      "inputs": [],
      "name": "isPriceOracle",
      "outputs": [
        {
          "internalType": "bool",
          "name": "",
          "type": "bool"
        }
      ],
      "payable": false,
      "stateMutability": "view",
      "type": "function"
    },
    {
      "constant": true,
      "inputs": [],
      "name": "makerUsdOracleKey",
      "outputs": [
        {
          "internalType": "address",
          "name": "",
          "type": "address"
        }
      ],
      "payable": false,
      "stateMutability": "view",
      "type": "function"
    },
    {
      "constant": true,
      "inputs": [],
      "name": "v1PriceOracle",
      "outputs": [
        {
          "internalType": "contract V1PriceOracleInterface",
          "name": "",
          "type": "address"
        }
      ],
      "payable": false,
      "stateMutability": "view",
      "type": "function"
    },
    {
      "constant": true,
      "inputs": [
        {
          "internalType": "contract CToken",
          "name": "cToken",
          "type": "address"
        }
      ],
      "name": "getUnderlyingPrice",
      "outputs": [
        {
          "internalType": "uint256",
          "name": "",
          "type": "uint256"
        }
      ],
      "payable": false,
      "stateMutability": "view",
      "type": "function"
    }
  ],
  "bytecode": "0x608060405234801561001057600080fd5b506040516110c83803806110c8833981810160405260a081101561003357600080fd5b81019080805190602001909291908051906020019092919080519060200190929190805190602001909291908051906020019092919050505084600160006101000a81548173ffffffffffffffffffffffffffffffffffffffff021916908373ffffffffffffffffffffffffffffffffffffffff160217905550836000806101000a81548173ffffffffffffffffffffffffffffffffffffffff021916908373ffffffffffffffffffffffffffffffffffffffff16021790555082600260006101000a81548173ffffffffffffffffffffffffffffffffffffffff021916908373ffffffffffffffffffffffffffffffffffffffff16021790555081600360006101000a81548173ffffffffffffffffffffffffffffffffffffffff021916908373ffffffffffffffffffffffffffffffffffffffff16021790555080600460006101000a81548173ffffffffffffffffffffffffffffffffffffffff021916908373ffffffffffffffffffffffffffffffffffffffff160217905550600073ffffffffffffffffffffffffffffffffffffffff168173ffffffffffffffffffffffffffffffffffffffff16146102a6578073ffffffffffffffffffffffffffffffffffffffff16636f307dc36040518163ffffffff1660e01b815260040160206040518083038186803b15801561022a57600080fd5b505afa15801561023e573d6000803e3d6000fd5b505050506040513d602081101561025457600080fd5b8101908080519060200190929190505050600560006101000a81548173ffffffffffffffffffffffffffffffffffffffff021916908373ffffffffffffffffffffffffffffffffffffffff1602179055505b5050505050610e0e806102ba6000396000f3fe608060405234801561001057600080fd5b50600436106100885760003560e01c8063f2c65bf91161005b578063f2c65bf91461018d578063fc57d4df146101d7578063fe10c98d1461022f578063ff11439b1461027957610088565b80632ed58e151461008d5780635fe3b567146100d757806366331bba14610121578063bc8a4ef414610143575b600080fd5b6100956102c3565b604051808273ffffffffffffffffffffffffffffffffffffffff1673ffffffffffffffffffffffffffffffffffffffff16815260200191505060405180910390f35b6100df6102e9565b604051808273ffffffffffffffffffffffffffffffffffffffff1673ffffffffffffffffffffffffffffffffffffffff16815260200191505060405180910390f35b61012961030f565b604051808215151515815260200191505060405180910390f35b61014b610314565b604051808273ffffffffffffffffffffffffffffffffffffffff1673ffffffffffffffffffffffffffffffffffffffff16815260200191505060405180910390f35b61019561033a565b604051808273ffffffffffffffffffffffffffffffffffffffff1673ffffffffffffffffffffffffffffffffffffffff16815260200191505060405180910390f35b610219600480360360208110156101ed57600080fd5b81019080803573ffffffffffffffffffffffffffffffffffffffff169060200190929190505050610360565b6040518082815260200191505060405180910390f35b610237610bd7565b604051808273ffffffffffffffffffffffffffffffffffffffff1673ffffffffffffffffffffffffffffffffffffffff16815260200191505060405180910390f35b610281610bfc565b604051808273ffffffffffffffffffffffffffffffffffffffff1673ffffffffffffffffffffffffffffffffffffffff16815260200191505060405180910390f35b600260009054906101000a900473ffffffffffffffffffffffffffffffffffffffff1681565b600160009054906101000a900473ffffffffffffffffffffffffffffffffffffffff1681565b600181565b600560009054906101000a900473ffffffffffffffffffffffffffffffffffffffff1681565b600460009054906101000a900473ffffffffffffffffffffffffffffffffffffffff1681565b6000808290506000600160009054906101000a900473ffffffffffffffffffffffffffffffffffffffff1673ffffffffffffffffffffffffffffffffffffffff16638e8f294b836040518263ffffffff1660e01b8152600401808273ffffffffffffffffffffffffffffffffffffffff1673ffffffffffffffffffffffffffffffffffffffff168152602001915050604080518083038186803b15801561040657600080fd5b505afa15801561041a573d6000803e3d6000fd5b505050506040513d604081101561043057600080fd5b8101908080519060200190929190805190602001909291905050505090508061045e57600092505050610bd2565b600260009054906101000a900473ffffffffffffffffffffffffffffffffffffffff1673ffffffffffffffffffffffffffffffffffffffff168273ffffffffffffffffffffffffffffffffffffffff1614156104c657670de0b6b3a764000092505050610bd2565b600360009054906101000a900473ffffffffffffffffffffffffffffffffffffffff1673ffffffffffffffffffffffffffffffffffffffff168273ffffffffffffffffffffffffffffffffffffffff1614156106375761062e64e8d4a510006000809054906101000a900473ffffffffffffffffffffffffffffffffffffffff1673ffffffffffffffffffffffffffffffffffffffff16635e9a523c600560009054906101000a900473ffffffffffffffffffffffffffffffffffffffff166040518263ffffffff1660e01b8152600401808273ffffffffffffffffffffffffffffffffffffffff1673ffffffffffffffffffffffffffffffffffffffff16815260200191505060206040518083038186803b1580156105e557600080fd5b505afa1580156105f9573d6000803e3d6000fd5b505050506040513d602081101561060f57600080fd5b8101908080519060200190929190505050610c2290919063ffffffff16565b92505050610bd2565b600460009054906101000a900473ffffffffffffffffffffffffffffffffffffffff1673ffffffffffffffffffffffffffffffffffffffff168273ffffffffffffffffffffffffffffffffffffffff161415610a6e5760008060009054906101000a900473ffffffffffffffffffffffffffffffffffffffff1673ffffffffffffffffffffffffffffffffffffffff16635e9a523c600560009054906101000a900473ffffffffffffffffffffffffffffffffffffffff166040518263ffffffff1660e01b8152600401808273ffffffffffffffffffffffffffffffffffffffff1673ffffffffffffffffffffffffffffffffffffffff16815260200191505060206040518083038186803b15801561074f57600080fd5b505afa158015610763573d6000803e3d6000fd5b505050506040513d602081101561077957600080fd5b8101908080519060200190929190505050905060008060009054906101000a900473ffffffffffffffffffffffffffffffffffffffff1673ffffffffffffffffffffffffffffffffffffffff16635e9a523c60016040518263ffffffff1660e01b8152600401808273ffffffffffffffffffffffffffffffffffffffff1673ffffffffffffffffffffffffffffffffffffffff16815260200191505060206040518083038186803b15801561082d57600080fd5b505afa158015610841573d6000803e3d6000fd5b505050506040513d602081101561085757600080fd5b81019080805190602001909291905050509050600061095d64e8d4a510006000809054906101000a900473ffffffffffffffffffffffffffffffffffffffff1673ffffffffffffffffffffffffffffffffffffffff16635e9a523c60026040518263ffffffff1660e01b8152600401808273ffffffffffffffffffffffffffffffffffffffff1673ffffffffffffffffffffffffffffffffffffffff16815260200191505060206040518083038186803b15801561091457600080fd5b505afa158015610928573d6000803e3d6000fd5b505050506040513d602081101561093e57600080fd5b8101908080519060200190929190505050610c2290919063ffffffff16565b9050600061098e83610980670de0b6b3a764000085610c2290919063ffffffff16565b610ca890919063ffffffff16565b9050670d2f13f7789f00008110156109e2576109d5670de0b6b3a76400006109c7670d2f13f7789f000087610c2290919063ffffffff16565b610ca890919063ffffffff16565b9650505050505050610bd2565b670e92596fd6290000811115610a3457610a27670de0b6b3a7640000610a19670e92596fd629000087610c2290919063ffffffff16565b610ca890919063ffffffff16565b9650505050505050610bd2565b610a61670de0b6b3a7640000610a538387610c2290919063ffffffff16565b610ca890919063ffffffff16565b9650505050505050610bd2565b60008273ffffffffffffffffffffffffffffffffffffffff16636f307dc36040518163ffffffff1660e01b815260040160206040518083038186803b158015610ab657600080fd5b505afa158015610aca573d6000803e3d6000fd5b505050506040513d6020811015610ae057600080fd5b810190808051906020019092919050505090506000809054906101000a900473ffffffffffffffffffffffffffffffffffffffff1673ffffffffffffffffffffffffffffffffffffffff16635e9a523c826040518263ffffffff1660e01b8152600401808273ffffffffffffffffffffffffffffffffffffffff1673ffffffffffffffffffffffffffffffffffffffff16815260200191505060206040518083038186803b158015610b9157600080fd5b505afa158015610ba5573d6000803e3d6000fd5b505050506040513d6020811015610bbb57600080fd5b810190808051906020019092919050505093505050505b919050565b6000809054906101000a900473ffffffffffffffffffffffffffffffffffffffff1681565b600360009054906101000a900473ffffffffffffffffffffffffffffffffffffffff1681565b600080831415610c355760009050610ca2565b6000828402905082848281610c4657fe5b0414610c9d576040517f08c379a0000000000000000000000000000000000000000000000000000000008152600401808060200182810382526021815260200180610db96021913960400191505060405180910390fd5b809150505b92915050565b6000610cea83836040518060400160405280601a81526020017f536166654d6174683a206469766973696f6e206279207a65726f000000000000815250610cf2565b905092915050565b60008083118290610d9e576040517f08c379a00000000000000000000000000000000000000000000000000000000081526004018080602001828103825283818151815260200191508051906020019080838360005b83811015610d63578082015181840152602081019050610d48565b50505050905090810190601f168015610d905780820380516001836020036101000a031916815260200191505b509250505060405180910390fd5b506000838581610daa57fe5b04905080915050939250505056fe536166654d6174683a206d756c7469706c69636174696f6e206f766572666c6f77a265627a7a72315820eae7db2404d2b5e6f4226ecc809097e1e324f689e149a3d12662fd69432f323664736f6c634300050c0032",
  "source": "pragma solidity ^0.5.8;\n\nimport \"./CErc20.sol\";\nimport \"./CToken.sol\";\nimport \"./PriceOracle.sol\";\nimport \"./Comptroller.sol\";\nimport \"./SafeMath.sol\";\n\ninterface V1PriceOracleInterface {\n    function assetPrices(address asset) external view returns (uint);\n}\n\ncontract PriceOracleProxy is PriceOracle {\n    using SafeMath for uint256;\n\n    /**\n     * @notice The v1 price oracle, which will continue to serve prices for v1 assets\n     */\n    V1PriceOracleInterface public v1PriceOracle;\n\n    /**\n     * @notice The comptroller which is used to white-list assets the proxy will price\n     * @dev Assets which are not white-listed will not be priced, to defend against abuse\n     */\n    Comptroller public comptroller;\n\n    /**\n     * @notice address of the cEther contract, which has a constant price\n     */\n    address public cEthAddress;\n\n    /**\n     * @notice address of the cUSDC contract, which we hand pick a key for\n     */\n    address public cUsdcAddress;\n\n    /**\n     * @notice address of the cDAI contract, which we hand pick a key for\n     */\n    address public cDaiAddress;\n\n    /**\n     * @notice address of the USDC contract, which we hand pick a key for\n     */\n    address constant usdcOracleKey = address(1);\n\n    /**\n     * @notice address of the DAI contract, which we hand pick a key for\n     */\n    address constant daiOracleKey = address(2);\n\n    /**\n     * @notice address of the asset which contains the USD/ETH price from Maker\n     */\n    address public makerUsdOracleKey;\n\n    /**\n     * @notice Indicator that this is a PriceOracle contract (for inspection)\n     */\n    bool public constant isPriceOracle = true;\n\n    /**\n     * @param comptroller_ The address of the comptroller, which will be consulted for market listing status\n     * @param v1PriceOracle_ The address of the v1 price oracle, which will continue to operate and hold prices for collateral assets\n     * @param cEthAddress_ The address of cETH, which will return a constant 1e18, since all prices relative to ether\n     * @param cUsdcAddress_ The address of cUSDC, which will be read from a special oracle key\n     * @param cDaiAddress_ The address of cDAI, which will be read from a special oracle key\n     */\n    constructor(address comptroller_,\n                address v1PriceOracle_,\n                address cEthAddress_,\n                address cUsdcAddress_,\n                address cDaiAddress_) public {\n        comptroller = Comptroller(comptroller_);\n        v1PriceOracle = V1PriceOracleInterface(v1PriceOracle_);\n\n        cEthAddress = cEthAddress_;\n        cUsdcAddress = cUsdcAddress_;\n        cDaiAddress = cDaiAddress_;\n\n        if (cDaiAddress_ != address(0)) {\n            makerUsdOracleKey = CErc20(cDaiAddress_).underlying();\n        }\n    }\n\n    /**\n     * @notice Get the underlying price of a listed cToken asset\n     * @param cToken The cToken to get the underlying price of\n     * @return The underlying asset price mantissa (scaled by 1e18).\n     *  Zero means the price is unavailable.\n     */\n    function getUnderlyingPrice(CToken cToken) public view returns (uint) {\n        address cTokenAddress = address(cToken);\n        (bool isListed, ) = comptroller.markets(cTokenAddress);\n\n        if (!isListed) {\n            // not white-listed, worthless\n            return 0;\n        }\n\n        if (cTokenAddress == cEthAddress) {\n            // ether always worth 1\n            return 1e18;\n        }\n\n        if (cTokenAddress == cUsdcAddress) {\n            // we assume USDC/USD = 1, and let DAI/ETH float based on the DAI/USDC ratio\n            //  use the maker usd price (for a token w/ 6 decimals)\n            return v1PriceOracle.assetPrices(makerUsdOracleKey).mul(1e12); // 1e(18 - 6)\n        }\n\n        if (cTokenAddress == cDaiAddress) {\n            // check and bound the DAI/USDC posted price ratio\n            //  and use that to scale the maker price (for a token w/ 18 decimals)\n            uint makerUsdPrice = v1PriceOracle.assetPrices(makerUsdOracleKey);\n            uint postedUsdcPrice = v1PriceOracle.assetPrices(usdcOracleKey);\n            uint postedScaledDaiPrice = v1PriceOracle.assetPrices(daiOracleKey).mul(1e12);\n            uint daiUsdcRatio = postedScaledDaiPrice.mul(1e18).div(postedUsdcPrice);\n\n            if (daiUsdcRatio < 0.95e18) {\n                return makerUsdPrice.mul(0.95e18).div(1e18);\n            }\n\n            if (daiUsdcRatio > 1.05e18) {\n                return makerUsdPrice.mul(1.05e18).div(1e18);\n            }\n\n            return makerUsdPrice.mul(daiUsdcRatio).div(1e18);\n        }\n\n        // otherwise just read from v1 oracle\n        address underlying = CErc20(cTokenAddress).underlying();\n        return v1PriceOracle.assetPrices(underlying);\n    }\n}\n",
  "sourcePath": "/Users/logic/eth/interestfund/contracts/mocks/compound/PriceOracleProxy.sol",
  "compiler": {
    "name": "solc",
    "version": "0.5.12+commit.7709ece9.Emscripten.clang",
    "optimizer": false,
    "runs": 200
  },
  "schemaVersion": "2.2.4",
  "updatedAt": "2019-10-23T14:04:58.972Z"
}