{
  "contractName": "SimplePriceOracle",
  "abi": [
    {
      "constant": true,
      "inputs": [],
      "name": "isPriceOracle",
      "outputs": [
        {
          "internalType": "bool",
          "name": "",
          "type": "bool"
        }
      ],
      "payable": false,
      "stateMutability": "view",
      "type": "function"
    },
    {
      "constant": true,
      "inputs": [
        {
          "internalType": "contract CToken",
          "name": "cToken",
          "type": "address"
        }
      ],
      "name": "getUnderlyingPrice",
      "outputs": [
        {
          "internalType": "uint256",
          "name": "",
          "type": "uint256"
        }
      ],
      "payable": false,
      "stateMutability": "view",
      "type": "function"
    },
    {
      "constant": false,
      "inputs": [
        {
          "internalType": "contract CToken",
          "name": "cToken",
          "type": "address"
        },
        {
          "internalType": "uint256",
          "name": "underlyingPriceMantissa",
          "type": "uint256"
        }
      ],
      "name": "setUnderlyingPrice",
      "outputs": [],
      "payable": false,
      "stateMutability": "nonpayable",
      "type": "function"
    },
    {
      "constant": false,
      "inputs": [
        {
          "internalType": "address",
          "name": "a",
          "type": "address"
        },
        {
          "internalType": "uint256",
          "name": "price",
          "type": "uint256"
        }
      ],
      "name": "setDirectPrice",
      "outputs": [],
      "payable": false,
      "stateMutability": "nonpayable",
      "type": "function"
    },
    {
      "constant": true,
      "inputs": [
        {
          "internalType": "address",
          "name": "asset",
          "type": "address"
        }
      ],
      "name": "assetPrices",
      "outputs": [
        {
          "internalType": "uint256",
          "name": "",
          "type": "uint256"
        }
      ],
      "payable": false,
      "stateMutability": "view",
      "type": "function"
    }
  ],
  "bytecode": "0x608060405234801561001057600080fd5b50610422806100206000396000f3fe608060405234801561001057600080fd5b50600436106100575760003560e01c806309a8acb01461005c578063127ffda0146100aa5780635e9a523c146100f857806366331bba14610150578063fc57d4df14610172575b600080fd5b6100a86004803603604081101561007257600080fd5b81019080803573ffffffffffffffffffffffffffffffffffffffff169060200190929190803590602001909291905050506101ca565b005b6100f6600480360360408110156100c057600080fd5b81019080803573ffffffffffffffffffffffffffffffffffffffff16906020019092919080359060200190929190505050610211565b005b61013a6004803603602081101561010e57600080fd5b81019080803573ffffffffffffffffffffffffffffffffffffffff1690602001909291905050506102d8565b6040518082815260200191505060405180910390f35b610158610320565b604051808215151515815260200191505060405180910390f35b6101b46004803603602081101561018857600080fd5b81019080803573ffffffffffffffffffffffffffffffffffffffff169060200190929190505050610325565b6040518082815260200191505060405180910390f35b806000808473ffffffffffffffffffffffffffffffffffffffff1673ffffffffffffffffffffffffffffffffffffffff168152602001908152602001600020819055505050565b806000808473ffffffffffffffffffffffffffffffffffffffff16636f307dc36040518163ffffffff1660e01b815260040160206040518083038186803b15801561025b57600080fd5b505afa15801561026f573d6000803e3d6000fd5b505050506040513d602081101561028557600080fd5b810190808051906020019092919050505073ffffffffffffffffffffffffffffffffffffffff1673ffffffffffffffffffffffffffffffffffffffff168152602001908152602001600020819055505050565b60008060008373ffffffffffffffffffffffffffffffffffffffff1673ffffffffffffffffffffffffffffffffffffffff168152602001908152602001600020549050919050565b600181565b60008060008373ffffffffffffffffffffffffffffffffffffffff16636f307dc36040518163ffffffff1660e01b815260040160206040518083038186803b15801561037057600080fd5b505afa158015610384573d6000803e3d6000fd5b505050506040513d602081101561039a57600080fd5b810190808051906020019092919050505073ffffffffffffffffffffffffffffffffffffffff1673ffffffffffffffffffffffffffffffffffffffff16815260200190815260200160002054905091905056fea265627a7a72315820ee3dce6d6463ddfcf501caaf29e1d42c704ef3a6b2d2023ce661a8d8aa0c961364736f6c634300050c0032",
  "source": "pragma solidity ^0.5.8;\n\nimport \"./PriceOracle.sol\";\nimport \"./CErc20.sol\";\n\ncontract SimplePriceOracle is PriceOracle {\n    mapping(address => uint) prices;\n    bool public constant isPriceOracle = true;\n\n    function getUnderlyingPrice(CToken cToken) public view returns (uint) {\n        return prices[address(CErc20(address(cToken)).underlying())];\n    }\n\n    function setUnderlyingPrice(CToken cToken, uint underlyingPriceMantissa) public {\n        prices[address(CErc20(address(cToken)).underlying())] = underlyingPriceMantissa;\n    }\n\n    function setDirectPrice(address a, uint price) public {\n        prices[a] = price;\n    }\n\n    // v1 price oracle interface for use as backing of proxy\n    function assetPrices(address asset) external view returns (uint) {\n        return prices[asset];\n    }\n}\n",
  "sourcePath": "/Users/logic/eth/interestfund/contracts/mocks/compound/SimplePriceOracle.sol",
  "compiler": {
    "name": "solc",
    "version": "0.5.12+commit.7709ece9.Emscripten.clang",
    "optimizer": false,
    "runs": 200
  },
  "schemaVersion": "2.2.4",
  "updatedAt": "2019-10-23T11:47:55.423Z"
}