{
  "contractName": "UnitrollerAdminStorage",
  "abi": [
    {
      "constant": true,
      "inputs": [],
      "name": "admin",
      "outputs": [
        {
          "internalType": "address",
          "name": "",
          "type": "address"
        }
      ],
      "payable": false,
      "stateMutability": "view",
      "type": "function"
    },
    {
      "constant": true,
      "inputs": [],
      "name": "comptrollerImplementation",
      "outputs": [
        {
          "internalType": "address",
          "name": "",
          "type": "address"
        }
      ],
      "payable": false,
      "stateMutability": "view",
      "type": "function"
    },
    {
      "constant": true,
      "inputs": [],
      "name": "pendingAdmin",
      "outputs": [
        {
          "internalType": "address",
          "name": "",
          "type": "address"
        }
      ],
      "payable": false,
      "stateMutability": "view",
      "type": "function"
    },
    {
      "constant": true,
      "inputs": [],
      "name": "pendingComptrollerImplementation",
      "outputs": [
        {
          "internalType": "address",
          "name": "",
          "type": "address"
        }
      ],
      "payable": false,
      "stateMutability": "view",
      "type": "function"
    }
  ],
  "bytecode": "0x608060405234801561001057600080fd5b50610245806100206000396000f3fe608060405234801561001057600080fd5b506004361061004c5760003560e01c80632678224714610051578063bb82aa5e1461009b578063dcfbc0c7146100e5578063f851a4401461012f575b600080fd5b610059610179565b604051808273ffffffffffffffffffffffffffffffffffffffff1673ffffffffffffffffffffffffffffffffffffffff16815260200191505060405180910390f35b6100a361019f565b604051808273ffffffffffffffffffffffffffffffffffffffff1673ffffffffffffffffffffffffffffffffffffffff16815260200191505060405180910390f35b6100ed6101c5565b604051808273ffffffffffffffffffffffffffffffffffffffff1673ffffffffffffffffffffffffffffffffffffffff16815260200191505060405180910390f35b6101376101eb565b604051808273ffffffffffffffffffffffffffffffffffffffff1673ffffffffffffffffffffffffffffffffffffffff16815260200191505060405180910390f35b600160009054906101000a900473ffffffffffffffffffffffffffffffffffffffff1681565b600260009054906101000a900473ffffffffffffffffffffffffffffffffffffffff1681565b600360009054906101000a900473ffffffffffffffffffffffffffffffffffffffff1681565b6000809054906101000a900473ffffffffffffffffffffffffffffffffffffffff168156fea265627a7a72315820cb42d88b9a3151cb30034798e588f388cf0c8ceeca7714c32dca7d7b04abf57d64736f6c634300050c0032",
  "source": "pragma solidity ^0.5.8;\n\nimport \"./CToken.sol\";\nimport \"./PriceOracle.sol\";\n\ncontract UnitrollerAdminStorage {\n    /**\n    * @notice Administrator for this contract\n    */\n    address public admin;\n\n    /**\n    * @notice Pending administrator for this contract\n    */\n    address public pendingAdmin;\n\n    /**\n    * @notice Active brains of Unitroller\n    */\n    address public comptrollerImplementation;\n\n    /**\n    * @notice Pending brains of Unitroller\n    */\n    address public pendingComptrollerImplementation;\n}\n\ncontract ComptrollerV1Storage is UnitrollerAdminStorage {\n\n    /**\n     * @notice Oracle which gives the price of any given asset\n     */\n    PriceOracle public oracle;\n\n    /**\n     * @notice Multiplier used to calculate the maximum repayAmount when liquidating a borrow\n     */\n    uint public closeFactorMantissa;\n\n    /**\n     * @notice Multiplier representing the discount on collateral that a liquidator receives\n     */\n    uint public liquidationIncentiveMantissa;\n\n    /**\n     * @notice Max number of assets a single account can participate in (borrow or use as collateral)\n     */\n    uint public maxAssets;\n\n    /**\n     * @notice Per-account mapping of \"assets you are in\", capped by maxAssets\n     */\n    mapping(address => CToken[]) public accountAssets;\n\n}\n",
  "sourcePath": "/Users/logic/eth/interestfund/contracts/mocks/compound/ComptrollerStorage.sol",
  "compiler": {
    "name": "solc",
    "version": "0.5.12+commit.7709ece9.Emscripten.clang",
    "optimizer": false,
    "runs": 200
  },
  "schemaVersion": "2.2.4",
  "updatedAt": "2019-10-23T14:04:58.895Z"
}